type=LUOC-S
mode=application
version =1.0.0.8 STD-2024.7.17
hash=0213F84CCF1C96D1FC650803BA5E01B3
:020000040802F0
:1000000020DA0020A1EB03084DEF03084FEF0308AF
:1000100051EF030853EF030855EF030800000000F9
:10002000000000000000000000000000250103089F
:1000300057EF030800000000CD000308F7A50208F1
:1000400019F303081DF3030821F3030825F303083C
:1000500029F303082DF3030831F3030835F30308EC
:1000600039F303083DF30308198C030841F303082F
:1000700045F3030849F303084DF3030851F303085C
:1000800055F3030859F303085DF3030861F303080C
:1000900065F3030869F303086DF3030867A2020818
:1000A000918D03082F9E0208959E020871F30308A4
:1000B0000D23030875F303083523030879F30308B8
:1000C0007DF3030881F3030885F3030889F303082C
:1000D0008DF3030885DC020891F3030895F3030808
:1000E0007D82020899F303089DF303085D2303084A
:1000F00085230308098D0308A1F30308A5F303086A
:10010000A9F30308ADF303088F910308B1F30308C3
:10011000B5F30308B9F30308318102086149020805
:10012000BDF30308338B0308C1F30308C5F30308C9
:10013000C9F30308CDF30308D1F30308D5F303088B
:10014000D9F30308DDF30308E1F30308E5F303083B
:10015000E9F30308EDF30308F1F30308C5B402085B
:10016000F5F30308F9F30308FDF3030801F40308AA
:1001700005F4030809F403080DF4030811F4030857
:1001800015F4030819F403081DF403080D8C020884
:1001900021F4030825F4030829F403082DF40308C7
:1001A000000000000000000031F4030838B504002E
:1001B0000D002900200003F01FFA002801D10120C2
:1001C00000E00020C0B232BDF8B50020039000204E
:1001D0000290DFF8D80801900420009000234FF42B
:1001E0008072DFF8CC1B0FF20D0003F047FA05B068
:1001F00000BD000010B50400002003F024FBDFF870
:10020000B00800880121B0FBF1F003F0E0FADFF85C
:10021000A4080078002804D0012803D0032804D0C3
:10022000EDE7ECE704F05CFAE9E704F0AAFBE6E7A7
:1002300038B504000D00DFF880186868FFF7B6FFD6
:1002400000281DD0A868002814D0A86804F0D1FCAC
:100250000A280FDBA86804F0CCFCDFF854180880EB
:100260000320DFF850180870DFF84008006803F03A
:1002700071FB2EE0A968DFF8440804F012FF28E0C3
:10028000DFF83C186868FFF791FF002805D0DFF819
:100290001C08006803F0D7FA1BE0686800280CD03F
:1002A000DFF8381A6868FFF781FF002805D140A100
:1002B0006868FFF77BFF00280BD0DFF8240A04F002
:1002C000F0FEDFF8200A04F0ECFEDFF8EC0A04F0A0
:1002D000E8FE002032BD70B504000D000026DFF8F6
:1002E000081A6868FFF762FF002809D005F0C6F910
:1002F00006003100C9B2DFF8F40904F0D2FE17E0BD
:10030000686800280CD0DFF8D4196868FFF74EFF42
:10031000002805D126A16868FFF748FF002807D00C
:10032000DFF8CC0904F0BDFEDFF8900A04F0B9FE56
:10033000F6B2300070BDF8B504000D006868002802
:100340001CD0A868002814D0E868002811D0E868FC
:1003500004F04FFC0600A86804F04BFC0700686836
:1003600004F047FC320092B2390089B205F001FA7C
:100370001CE0DFF84C0A04F094FE17E068680028DF
:100380000CD0DFF858196868FFF710FF002805D176
:1003900007A16868FFF70AFF002807D0DFF8280ADE
:1003A00004F07FFEDFF8240A04F07BFE0020F2BD9B
:1003B0003F00000070B588B004000D00DFF8141A8B
:1003C0006868FFF7F3FE002802D005F098FACFE046
:1003D000DFF8041A6868FFF7E9FE00281CD0A86857
:1003E000002814D0E868002811D0286900280ED011
:1003F000286904F0FEFB0600E86804F0FAFB32000E
:1004000092B2010089B2A86805F09BFAB0E0DFF86B
:10041000B00904F046FEABE0DFF8C0196868FFF7EA
:10042000C5FE00280ED0A868002806D0A86804F0F1
:10043000E0FB80B205F030FB9AE0DFF8840904F0BD
:1004400030FE95E0DFF898196868FFF7AFFE0028E6
:100450002FD0A868002827D0E868002824D0684654
:100460001E2105F0BDFBE86804F0C3FB0600A86888
:1004700004F0BFFB6A46310005F0E0FB3EA004F04B
:1004800010FE0026E86804F0B4FB864207DA6846EE
:10049000815DDFF8500904F004FE761CF2E769463E
:1004A00036A004F0FEFD63E0DFF8140904F0F9FD66
:1004B0005EE0DFF834196868FFF778FE002807D09F
:1004C00005F05DFB80B201002DA004F0EAFD4FE0D5
:1004D000DFF818196868FFF769FE002808D005F0F2
:1004E0004AFB0600310049B225A004F0DAFD3FE0E6
:1004F000DFF8FC186868FFF759FE002802D005F005
:1005000036FB35E0686800280CD0DFF8D017686843
:10051000FFF74CFE002805D18FA16868FFF746FE63
:10052000002820D0DFF8CC0804F0BBFDDFF8C808B5
:1005300004F0B7FDDFF8C40804F0B3FDDFF8C0082D
:1005400004F0AFFDDFF8BC0804F0ABFDDFF8B8083D
:1005500004F0A7FDDFF8B40804F0A3FDDFF8B0084D
:1005600004F09FFD04E06968DFF8700B04F099FD6A
:10057000002008B070BD00000A0000000A257300CA
:1005800025640A0070B588B004000D00DFF88418F7
:100590006868FFF70BFE002821D0A868002819D052
:1005A000E868002816D02869002813D0E86804F00D
:1005B00020FB0600A86804F01CFB2A69310005F046
:1005C00022FDA86804F015FB0100DFF84C0804F0D8
:1005D00068FDBDE0DFF8E80704F063FDB8E0DFF890
:1005E000F8176868FFF7E2FD002821D0A868002806
:1005F00019D0E868002816D02869002813D0E868C8
:1006000004F0F7FA0600A86804F0F3FA2A6931004A
:1006100005F074FDA86804F0ECFA0100DFF8F807B3
:1006200004F03FFD94E0DFF8980704F03AFD8FE016
:10063000DFF8AC176868FFF7B9FD002834D0A86868
:1006400000282CD0E868002829D068461E2105F033
:10065000C7FAE86804F0CDFA0600A86804F0C9FA01
:100660006A46310005F0B8FCA86804F0C2FA01003F
:10067000DFF86C0A04F015FD0026E86804F0B9FA0A
:10068000864207DA6846815DDFF8580704F009FD05
:10069000761CF2E769469AA004F003FD58E0DFF803
:1006A000200704F0FEFC53E0DFF828176868FFF726
:1006B0007DFD002815D0A86800280DD0A86804F09A
:1006C00098FA05F078FCA86804F093FA0100DFF8C6
:1006D000180A04F0E6FC3BE0DFF8E40604F0E1FC75
:1006E00036E088A16868FFF761FD002806D0DFF8D2
:1006F000FC19DFF8FC0904F0D4FC29E06868002844
:100700000CD0DFF8D8156868FFF750FD002805D138
:1007100011A16868FFF74AFD002814D0DFF8D4095A
:1007200004F0BFFCDFF8D00904F0BBFCDFF8CC0913
:1007300004F0B7FCDFF8C80904F0B3FCDFF8C40923
:1007400004F0AFFC04E06968DFF8900904F0A9FC4C
:10075000002008B070BD00003F00000038B5040064
:100760000D0005F043FD002006F028F906F0BFF962
:1007700006F0D6FD03F0B7FE002032BD70B50400D0
:100780000D0061A16868FFF711FD00280DD0A86871
:10079000002805D0A86804F02CFA06F00FF951E003
:1007A000DFF8640904F07DFC4CE0DFF8601968684C
:1007B000FFF7FCFC002816D0A86800280ED0A86817
:1007C00004F017FA012809DBA86804F012FA010006
:1007D0000120491E884006F0F1F833E0DFF82809CF
:1007E00004F05FFC2EE0DFF828196868FFF7DEFCF4
:1007F000002803D0002006F0E1F823E043A1686858
:10080000FFF7D4FC002808D006F011F906003100EB
:10081000DFF8000904F045FC14E0DFF8FC18686814
:10082000FFF7C4FC002808D006F0C6F880B201002B
:10083000DFF8E80804F035FC04E06968DFF89C089C
:1008400004F02FFC002070BD70B504000D00686836
:10085000002818D0686804F0CCF9060005F084FD83
:10086000864206DA686804F0C4F9DFF8B418087044
:1008700026E005F079FD80B2401E0100DFF8A408F3
:1008800004F00FFC1CE0686800280CD0DFF84C1462
:100890006868FFF78BFC002805D181A16868FFF725
:1008A00085FC00280CD0DFF8800804F0FAFB05F086
:1008B0005BFD010089B2491EDFF8980C04F0F1FBE2
:1008C000002070BDF8B504000D00DFF854683078E2
:1008D00005F0D2FF07003800C0B2002802D001287E
:1008E00006D00AE03178DFF8440804F0DAFB04E0CF
:1008F0003178DFF8640C04F0D4FB0020F2BD000076
:100900000A257300656E64006D6170006765740090
:100910002DE9F0472DED028B82B004000D0061A19E
:100920006868FFF743FC00283AD0A868002832D056
:10093000DFF8EC673078022820D1A86806F0D1FDF6
:1009400051EC100B06F0D2FD00EE100A022005F06B
:100950003DFEA86806F0C5FD51EC100B06F0C6FD83
:1009600000EE100A06F0F6FDA86806F0BAFD53EC9A
:10097000102BDFF8080B04F094FB8AE0A86806F05F
:10098000B0FD51EC100B06F0B1FD00EE100A30780E
:1009900005F01CFE7DE0DFF8280404F082FB78E01F
:1009A00041A16868FFF702FC002816D0DFF87067E5
:1009B000307805F0B7FCB0EE408A3178DFF8C00A35
:1009C00004F06FFB0821B0EE480A012003F042FF5B
:1009D000DFF8B00A04F065FB5BE0686800280BD024
:1009E000BE496868FFF7E2FB002805D12CA16868C2
:1009F000FFF7DCFB00280CD0DFF88C0A04F051FB79
:100A0000DFF8880A04F04DFBDFF8840A04F049FBA4
:100A10003FE0DFF8801A6868FFF7C8FB002833D092
:100A200068460021016000200190DFF8346BA8685F
:100A300004F0DFF807003800C0B202280ADB6A467B
:100A400004213B00DBB2DFF81C0B10EB830005F048
:100A5000C3FA07E06A4604213800C0B216EB8000F2
:100A600005F0BAFA5FF00408E9460DF1040A4246BF
:100A70004946504606F04EFF019A3900C9B2DFF8E8
:100A8000E80A04F00EFB04E06968DFF8500604F0A1
:100A900008FB002002B0BDEC028BBDE8F08700002F
:100AA0003F0000007365740067657400D0D40020B7
:100AB000E6D5002007D600200CF00308D4E2030896
:100AC00014F0030870B52DED048B05000E0081A114
:100AD0007068FFF76BFB002832D0B06800282BD07D
:100AE000F068002828D0F06806F0FBFCB0EE408AE1
:100AF000F0EE608AB06806F0F4FCB0EE409AF0EEDA
:100B0000609A00210C0051EC180B06F0EFFC00EE8F
:100B1000900A2100B0EE608A0C0051EC190B06F02F
:100B2000E5FC00EE100A2100F0EE480ADFF8F005BF
:100B3000007805F01BFCBBE0A14804F0B2FAB7E076
:100B400065A17068FFF732FB002822D0DFF8D0459E
:100B5000207805F082FBB0EE408AF0EE608A2178C2
:100B6000DFF8080A04F09DFA0421B0EE480A0120DB
:100B700003F070FEDFF8F80904F093FA0421B0EEF8
:100B8000680A012003F066FEDFF8E80904F089FA3C
:100B90008EE0DFF8E4197068FFF708FB002832D018
:100BA000B06800282BD0F068002828D0F06806F044
:100BB00098FCB0EE408AF0EE608AB06806F091FCD6
:100BC000B0EE409AF0EE609A01210C0051EC180B47
:100BD00006F08CFC00EE900A2100B0EE608A0C005A
:100BE00051EC190B06F082FC00EE100A2100F0EE29
:100BF000480ADFF82C05007805F0B8FB58E070488B
:100C000004F04FFA54E0DFF874197068FFF7CEFA79
:100C1000002808D006F0CBFC04002100DFF86009B2
:100C200004F03FFA44E0DFF85C197068FFF7BEFAA1
:100C3000002810D0B06800283AD0B06803F0D9FF7F
:100C400006F0C9FCB06803F0D4FF0100DFF8E00A49
:100C500004F027FA2CE0706800280BD01F49706858
:100C6000FFF7A4FA002805D152A17068FFF79EFA99
:100C7000002818D0DFF8BC0A04F013FADFF8B80A2D
:100C800004F00FFADFF8B40A04F00BFADFF8B00A48
:100C900004F007FADFF8AC0A04F003FADFF8A80A58
:100CA00004F0FFF904E07168DFF8300404F0F9F9AA
:100CB0000020BDEC048B70BD38B504000D0005F0BC
:100CC00053FB80B20100DFF8840A04F0EAF9002047
:100CD00032BD000073657400676574008CEF030813
:100CE000ECC3030820D403081CF00308E8E203085F
:100CF00010C4030870B52DED028B04000D00DFF861
:100D0000541A6868FFF752FA002815D0A86800281E
:100D10000ED0A86806F0E5FB51EC100B06F0E6FBE0
:100D200000EE100ADFF8F803007805F045FD3BE01F
:100D3000234804F0B6F937E022A16868FFF736FAD5
:100D4000002815D0DFF8D863307805F067FAB0EEE8
:100D5000408A3178DFF8000A04F0A3F90421B0EEEC
:100D6000480A012003F076FD19A004F09AF91BE06F
:100D7000686800280CD0DFF8E4196868FFF716FAF5
:100D8000002805D10BA16868FFF710FA00280BD0E6
:100D9000DFF8CC0904F085F9DFF8C80904F081F91F
:100DA000DFF8080C04F07DF90020BDEC028B70BD6B
:100DB00058EC03083F0000003CD4030834C4030887
:100DC00000E70308676574002CCC030874BD0308B2
:100DD000206D6C0024F003082CF00308FCEF0308DE
:100DE00034F003083CF0030844F003084CF0030817
:100DF00054F0030858D4030810E7030858C4030844
:100E00007CC40308A0C40308C4C40308E8C40308DE
:100E10000CC5030864EC030810E303082DE9F8434C
:100E20002DED068B06000F005FF00008DFF8381983
:100E30007868FFF7BBF9002806D1A5A421007868DF
:100E4000FFF7B4F9002804D00120804600200500F7
:100E50009FE0DFF818197868FFF7A8F9002807D194
:100E60000FF2702949467868FFF7A0F9002804D0EE
:100E700001208046012005008BE097A17868FFF7EC
:100E800095F9002800F085802100B868FFF78EF9F9
:100E900000283CD0386906F024FBB0EE408AF0EE22
:100EA000608A786906F01DFBB0EE409AF0EE609A19
:100EB000F86806F016FBB0EE40AAF0EE60AA00203B
:100EC000040051EC180B06F011FB01EE100A200093
:100ED000B0EE418A040051EC190B06F007FB00EE5E
:100EE000900A2000B0EE481AB0EE608AF0EE418A17
:100EF000040051EC1A0B06F0F9FA00EE100A20007B
:100F0000B0EE681AF0EE480A06F0D6FB41E049461A
:100F1000B868FFF74BF900283BD0386906F0E1FAD2
:100F2000B0EE408AF0EE608A786906F0DAFAB0EE48
:100F3000409AF0EE609AF86806F0D3FAB0EE40AA54
:100F4000F0EE60AA0120040051EC180B06F0CEFA76
:100F500001EE100A2000B0EE418A040051EC190B9A
:100F600006F0C4FA00EE900A2000B0EE481AB0EE87
:100F7000608AF0EE418A040051EC1A0B06F0B6FAD2
:100F800000EE100A2000B0EE681AF0EE480A06F0F3
:100F900093FB4046C0B201285CD1B868002854D009
:100FA000F86800283ED0386900283BD0386906F040
:100FB00098FAB0EE408AF0EE608AF86806F091FA8E
:100FC000B0EE409AF0EE609ADFF8549101210C00E7
:100FD00051EC180B06F08AFA00EE900A2100B0EEF0
:100FE000608A0C0051EC190B06F080FA00EE100A32
:100FF0002100F0EE480A99F8000005F0B7F9B8684A
:1010000006F06FFA0322140051EC100B06F06EFA92
:1010100000EE100A22002900C9B299F8000005F07C
:1010200033FB50E0B86806F05CFA0222140051EC81
:10103000100B06F05BFA00EE100A22002900C9B27C
:101040003748007805F020FB3DE0DFF8700904F038
:1010500028F838E0DFF868197868FFF7A7F8002863
:1010600004D02F48007805F06DFB2CE0786800284C
:101070000CD0DFF8E8167868FFF798F8002805D15B
:1010800018A17868FFF792F8002818D0DFF8340923
:1010900004F007F8DFF8300904F003F8DFF82C0952
:1010A00003F0FFFFDFF8280903F0FBFFDFF8240956
:1010B00003F0F7FFDFF8200903F0F3FF03E079689E
:1010C000064803F0EEFF0020BDEC068BBDE8F2837E
:1010D000650000006400000073000000FCE20308EB
:1010E00020E703083F00000030E70308740101080F
:1010F00070EC03084CCC030880B60308ACB60308B8
:10110000D8B6030804B7030840E703085CF00308F7
:101110007CEC030824E3030864F0030888EC03086C
:1011200006D6002014DC03086CCC030850E7030843
:1011300070B52DED028B04000D00DFF8A018686873
:10114000FFF734F8002824D0A86806F0CAF951EC5B
:10115000100B0022002306F031FC14D8A86806F01A
:10116000C0F951EC100B0122DFF8743806F03EFC98
:1011700009D2E86803F03DFD002800F17881E868B5
:1011800003F037FD73E1A968DFF87C0B03F089FFFA
:101190006DE1DFF850186868FFF708F8002812D0F2
:1011A000A86803F026FD01230200D2B2002100202E
:1011B00006F026FD002840F05A81E968DFF8480B68
:1011C00003F06FFF53E1ACA16868FEF7EFFF002862
:1011D00016D0E86803F00DFD0600A86803F009FDCD
:1011E000320092B20100C9B2002006F0AEFD002824
:1011F00040F03D81E968DFF8100B03F052FF36E163
:10120000DFF8E4176868FEF7D1FF002816D0E86819
:1012100003F0EFFC0600A86803F0EBFC320092B28A
:101220000100C9B2002006F00BFE002840F01F812B
:10123000E968DFF8D40A03F034FF18E1DFF880171B
:101240006868FEF7B3FF00281BD0A86803F0D1FC44
:10125000002810D4A86803F0CCFC02280BDAA86898
:1012600003F0C7FCC0B206F065FEA968DFF8200AEB
:1012700003F017FFFBE0A968DFF88C0A03F011FF09
:10128000F5E0DFF8101A6868FEF790FF00281CD020
:10129000A86803F0AEFC002811D4A86803F0A9FCEC
:1012A00001280CDAA86803F0A4FCC0B206F06AFCBE
:1012B000C0B20100DFF85C0A03F0F3FED7E0A968D2
:1012C000DFF8440A03F0EDFED1E0DFF84C1A68685D
:1012D000FEF76CFF002820D0A86803F08AFC0028E5
:1012E00015D4A86803F085FC022810DAA86803F07A
:1012F00080FCC0B206F0D6FE10EE100A07F01AF815
:1013000002000B00DFF8140A03F0CBFEAFE0A9687F
:10131000DFF8F40903F0C5FEA9E0DFF8041A6868F5
:10132000FEF744FF002820D0A86803F062FC0028E4
:1013300015D4A86803F05DFC022810DAA86803F051
:1013400058FCC0B206F08AFE10EE100A06F0F2FF5A
:1013500002000B00DFF8C40903F0A3FE87E0A968D0
:10136000DFF8A40903F09DFE81E0DFF8B819686892
:10137000FEF71CFF002845D0A86806F0B2F851EC33
:10138000100B0022DFF8A03906F018FB34D8A8684B
:1013900006F0A7F851EC100B0122DFF8903906F0A7
:1013A00025FB29D2E86803F024FC00281ED4E86855
:1013B00003F01FFC022819DAA86806F092F8B0EED4
:1013C000408AF0EE608AE86803F013FC060051ECF6
:1013D000180B06F08BF800EE100A3000C0B206F0D1
:1013E000DDFDDFF84C0903F05CFE40E0E968DFF862
:1013F000180903F056FE3AE0A968DFF80C0903F07B
:1014000050FE34E0686800280BD0D4496868FEF7C5
:10141000CDFE002805D151A16868FEF7C7FE00285F
:1014200020D0DFF8A00503F03CFEDFF8080903F048
:1014300038FEDFF8040903F034FEDFF8000903F09A
:1014400030FEDFF8FC0803F02CFEDFF8F80803F0AC
:1014500028FEDFF8F40803F024FEDFF8F00803F0BC
:1014600020FE04E06968DFF8A00803F01AFE0020FF
:10147000BDEC028B70BD0000646972002CDC0308B7
:1014800070E7030894EC030830C50308549A030876
:10149000A49B03086CF0030838B504000D00DFF8C6
:1014A000B0186868FEF782FE00281FD0A8680028E0
:1014B00017D0A86803F09DFB01280DDBA86803F096
:1014C00098FB032808DAA86803F093FB0100C9B26F
:1014D000012003F01FF93AE0DFF8780803F0E1FD9E
:1014E00035E0DFF8700803F0DCFD30E0DFF8681865
:1014F0006868FEF75BFE002808D00121002003F099
:1015000009F9DFF8580803F0CCFD20E068680028EE
:101510000BD092496868FEF749FE002805D10FA15B
:101520006868FEF743FE00280CD0DFF8340803F0AB
:10153000B8FDDFF8300803F0B4FDDFF82C0803F045
:10154000B0FD04E06968DFF8C00703F0AAFD0020E1
:1015500032BD00005099030860E703083F00000017
:1015600064000108E000010880E7030890E7030831
:1015700038E3030874F00308A0EC03087CF00308C8
:1015800074D4030884F0030838B504000D00DFF8B4
:10159000DC176868FEF70AFE002835D0DFF83C1437
:1015A000A868FEF703FE00281CD0E868002814D0C5
:1015B000E86803F01EFB0A280FDBE86803F019FB5C
:1015C000DFF8AC1708800120DFF8A8170870DFF8F3
:1015D000A807006802F0BEF9A8E0DFF8E00303F016
:1015E00060FDA3E0DFF8D813A868FEF7DFFD002850
:1015F00005D0DFF88407006802F025F996E0DFF8EF
:101600007C0703F04EFD91E0DFF8D0136868FEF729
:10161000CDFD002820D0A868002818D0A86805F0C3
:1016200060FF51EC100B0022002306F0C7F90ED822
:1016300002F0DCFFA86805F054FF51EC100B05F038
:1016400055FF00EE100A012002F05EFF6EE0DFF8A9
:101650002C0703F026FD69E0DFF864136868FEF7E5
:10166000A5FD002804D002F0C1FF02F097FF5DE065
:10167000DFF80C176868FEF799FD002818D0A868F5
:10168000002853D0A86805F02CFF51EC100B002265
:10169000002306F093F949D8A86805F022FF51EC21
:1016A000100B05F023FF00EE100A02F0CBFF3DE027
:1016B000DFF8D0166868FEF779FD002802D002F046
:1016C0001CFF33E0686800280BD024496868FEF7E7
:1016D0006DFD002805D11EA16868FEF767FD002892
:1016E0001FD0DFF8A40603F0DCFCDFF8A00603F04F
:1016F000D8FCDFF89C0603F0D4FCDFF8180B03F0ED
:10170000D0FCDFF8140B03F0CCFC0A2003F073F8D4
:10171000DFF8080B03F0C5FCDFF8040B03F0C1FC95
:1017200004E06968DFF8E00503F0BBFC002032BD8F
:1017300090D4030830B70308F0910308E09703083A
:10174000CC940308F49B0308449C0308A0E7030817
:101750003F0000008CF00308B0E703088CEF03089B
:1017600054C50308B89E030894F003089CF00308CE
:10177000F8B504000D0099496868FEF717FD0028C8
:1017800024D0A86800281CD0E868002814D0286954
:10179000002811D0286903F02CFA0600E86803F04D
:1017A00028FA0700A86803F024FA3200D2B2390000
:1017B000C0B206F0E3FDF7E0DFF8700A03F071FC59
:1017C000F2E0DFF86C0A03F06CFCEDE07C4968683D
:1017D000FEF7ECFC002802D006F07DFEE4E0DFF826
:1017E000541A6868FEF7E2FC00280DD006F0EEFF00
:1017F000012804D1DFF8400A03F053FCD4E0DFF8FD
:101800003C0A03F04EFCCFE069A16868FEF7CEFC0D
:1018100000283AD0DFF8281AA868FEF7C7FC00288D
:1018200017D0E86800280FD0286900280CD0286954
:1018300003F0DFF90600E86803F0DBF93100C9B214
:10184000C0B206F0B6FEAFE0DFF8E40903F029FC11
:10185000AAE0DFF8F019A868FEF7A8FC00280ED06F
:10186000E868002806D0E86803F0C3F9C0B206F0C3
:1018700033FF99E0DFF8B80903F013FC94E0A9689E
:10188000DFF8840403F00DFC8EE04AA16868FEF7DF
:101890008DFC00284CD0DFF8A819A868FEF786FC5C
:1018A000002820D0E868002818D02869002815D022
:1018B0006869002812D0686903F09BF9060028695E
:1018C00003F097F90700E86803F093F93200D2B209
:1018D000390089B2C0B206F0B1FE65E0DFF86809F0
:1018E00003F0DFFB60E0DFF85C19A868FEF75EFC40
:1018F000002817D0E86800280FD0286900280CD0ED
:10190000286903F076F90600E86803F072F93100FF
:1019100089B2C0B206F01BFF46E0DFF82C0903F0E5
:10192000C0FB41E0A968DFF8E00303F0BAFB3BE04D
:10193000686800280CD0DFF814196868FEF736FCD8
:10194000002805D11CA16868FEF730FC002826D0CD
:10195000DFF8FC0803F0A5FBDFF8F80803F0A1FBB3
:10196000DFF8F40803F09DFB032002F044FFDFF8EA
:10197000EC0803F096FBDFF8E80803F092FB032085
:1019800002F039FFDFF8DC0803F08BFBDFF8D80842
:1019900003F087FBDFF8D40803F083FB04E06968F9
:1019A000DFF8640303F07DFB0020F2BD84B303087D
:1019B00067657400736574003F00000000E703086A
:1019C00014F003088CCC030830950308C096030874
:1019D0005CB70308009F030854A503080CF0030834
:1019E0000088B340A4F00308ACF003082DE9F041EF
:1019F0002DED048B84B005000E00A3A17068FEF7E6
:101A0000D5FB00280CD007F07EF8DFF864080078DA
:101A10000428C0F23381DFF85C0803F042FB2DE1BB
:101A2000DFF854187068FEF7C1FB002840F02681EB
:101A300096A17068FEF7BAFB00280CD007F07DF87D
:101A4000DFF82C0800780428C0F21881DFF82C0891
:101A500003F027FB12E1DFF828187068FEF7A6FBF9
:101A600000280BD0B06803F0C4F800EE100A002183
:101A7000B8EEC00A002006F0C3FFFFE0DFF84C1B01
:101A80007068FEF793FB002840F0F880DFF8401BF9
:101A90007068FEF78BFB002838D0B068002830D083
:101AA000F06800282DD0306900282AD0306903F072
:101AB000A0F80400F06805F014FDB0EE408AF0EEE6
:101AC000608AB06805F00DFDB0EE409AF0EE609AC5
:101AD00021000C0051EC180B05F008FD00EE900AF7
:101AE0002100B0EE608A0C0051EC190B05F0FEFCF1
:101AF00000EE100A2100F0EE480A002006F08AFEEF
:101B0000BCE0DFF8D00A03F0CCFAB7E07CA1706843
:101B1000FEF74CFB00284DD07AA1B068FEF746FBDB
:101B2000002818D0F068002810D0F06803F061F8A1
:101B3000C0B206F038FF10EE100A06F0FBFB020000
:101B40000B00DFF81C0B03F0ACFA97E0F1686E486D
:101B500003F0A7FA92E06DA1B068FEF727FB00281A
:101B600023D0F06800281BD03069002818D03069D5
:101B700005F0B7FCB0EE408AF0EE608AF06803F042
:101B800038F8070001210C0051EC180B05F0AEFCF1
:101B900000EE100A21003800C0B206F031FF6DE0FF
:101BA000F168594803F07DFA68E0B168564803F0DF
:101BB00078FA63E0DFF8AC1A7068FEF7F7FA0028ED
:101BC0005CD1DFF8A41A7068FEF7F0FA002821D083
:101BD00001A8DFF8981AD1E90023C0E9002300200A
:101BE000ADF80000F06803F004F8ADF80000B0684C
:101BF00002F0FFFF8DF8070002246F460DF1080880
:101C000022003900404605F085FE082101A807F0B2
:101C1000D0F833E0706800280CD0DFF83016706818
:101C2000FEF7C4FA002805D139A17068FEF7BEFAA4
:101C300000281FD0DFF8380A03F033FADFF8340A3F
:101C400003F02FFADFF8300A03F02BFADFF82C0A42
:101C500003F027FADFF8280A03F023FA0A2002F03B
:101C6000CAFDDFF8200A03F01CFADFF81C0A03F0B3
:101C700018FA03E07168244803F013FA002004B056
:101C8000BDEC048BBDE8F0816F6E00006F666600EE
:101C9000B4F00308ACEC030838B504000D00DFF81D
:101CA000EC196868FEF782FA002827D1DFF8E019FE
:101CB0006868FEF77BFA002820D1686800280CD0FD
:101CC000DFF888156868FEF771FA002805D110A1C1
:101CD0006868FEF76BFA00280CD0DFF8B80903F04B
:101CE000E0F9DFF8B40903F0DCF9DFF8B00903F03C
:101CF000D8F903E06968044803F0D3F9002032BD45
:101D00006465660067657400FCE20308736574002F
:101D10003F000000C0E70308B8EC0308D0E7030861
:101D2000C4EC0308D0EC030800407FC000407F40B3
:101D30004CE3030878C50308ACD40308ACCC030813
:101D4000B4AE0308489F030888B703089CC503087E
:101D50005CF00308E0E70308BCF00308C8D40308FC
:101D6000CCCC03083C98030838A30308C4F003084C
:101D7000E6D5002007D60020D0D40020F0E70308E5
:101D8000CCF0030884EF0308E4D403081493030899
:101D90009898030870B52DED068B04000D00DFF850
:101DA0001C1B6868FEF702FA002853D0A8680028B8
:101DB0004BD0E868002848D02869002845D06869D9
:101DC000002842D0A86802F014FFC0B204F0A9FFB6
:101DD000686905F086FBB0EE408AF0EE608A2869FB
:101DE00005F07FFBB0EE409AF0EE609AE86805F0EF
:101DF00078FBB0EE40AAF0EE60AAA86802F0F9FE07
:101E0000060051EC180B05F071FB01EE100AB0EE64
:101E1000418A51EC190B05F069FB00EE900AB0EE17
:101E2000481AB0EE608AF0EE418A51EC1A0B05F0C8
:101E30005DFB00EE100AB0EE681AF0EE480A0021D1
:101E40003000C0B204F0FAFEDFE1DFF8880703F0EB
:101E500028F9DAE1DFF86C1A6868FEF7A7F90028BC
:101E600053D0A86800284BD0E868002848D02869DB
:101E7000002845D06869002842D0A86802F0B9FE61
:101E8000C0B204F04EFF686905F02BFBB0EE408A4B
:101E9000F0EE608A286905F024FBB0EE409AF0EE7F
:101EA000609AE86805F01DFBB0EE40AAF0EE60AA6B
:101EB000A86802F09EFE060051EC180B05F016FB18
:101EC00001EE100AB0EE418A51EC190B05F00EFB41
:101ED00000EE900AB0EE481AB0EE608AF0EE418A49
:101EE00051EC1A0B05F002FB00EE100AB0EE681A76
:101EF000F0EE480A01213000C0B204F09FFE84E1F8
:101F0000DFF8D00603F0CDF87FE1DFF8BC19686890
:101F1000FEF74CF9002853D0A86800284BD0E86899
:101F2000002848D02869002845D06869002842D098
:101F3000A86802F05EFEC0B204F0F3FE686905F026
:101F4000D0FAB0EE408AF0EE608A286905F0C9FA4E
:101F5000B0EE409AF0EE609AE86805F0C2FAB0EE92
:101F600040AAF0EE60AAA86802F043FE060051EC19
:101F7000180B05F0BBFA01EE100AB0EE418A51ECE5
:101F8000190B05F0B3FA00EE900AB0EE481AB0EE65
:101F9000608AF0EE418A51EC1A0B05F0A7FA00EEC8
:101FA000100AB0EE681AF0EE480A02213000C0B202
:101FB00004F044FE29E1DFF81C0603F072F824E186
:101FC000DFF808196868FEF7F1F8002853D0A86810
:101FD00000284BD0E868002848D02869002845D060
:101FE0006869002842D0A86802F003FEC0B204F07D
:101FF00098FE686905F075FAB0EE408AF0EE608AE6
:10200000286905F06EFAB0EE409AF0EE609AE86842
:1020100005F067FAB0EE40AAF0EE60AAA86802F0F8
:10202000E8FD060051EC180B05F060FA01EE100A0D
:10203000B0EE418A51EC190B05F058FA00EE900A07
:10204000B0EE481AB0EE608AF0EE418A51EC1A0BFD
:1020500005F04CFA00EE100AB0EE681AF0EE480AED
:1020600003213000C0B204F0E9FDCEE0DFF86405E2
:1020700003F017F8C9E0DFF858186868FEF796F81B
:10208000002814D0A86800280CD0A86802F0B1FD80
:10209000C0B204F046FEA86802F0ABFDC0B204F086
:1020A00092FEB2E0DFF82C0502F0FBFFADE0DFF8B6
:1020B000001B6868FEF77AF800282AD0A868002874
:1020C00022D0A86802F095FDC0B204F096FD06008B
:1020D0003000C0B200280BD1A86802F08AFDC0B25F
:1020E00004F0DDFC0100DFF8CC0A02F0DAFF8CE03E
:1020F000A86802F07EFDC0B204F0D1FC0100DFF858
:10210000B80A02F0CEFF80E0DFF8C80402F0C9FF91
:102110007BE0DFF8AC1A6868FEF748F8002805D0C5
:102120000321DFF8A00A02F0BCFF6EE0DFF8981A86
:102130006868FEF73BF800281BD03AA1A868FEF7B4
:1021400035F800280AD04FF48041DFF8800A06F005
:10215000E2FEDFF87C0A02F0A4FF56E04FF4804173
:10216000DFF8680A06F0D9FEDFF8680A02F099FF86
:102170004BE0686800280BD034496868FEF716F811
:10218000002805D128A16868FEF710F8002837D08C
:10219000DFF8440A02F085FFDFF8400A02F081FF11
:1021A000DFF83C0A02F07DFFDFF8380A02F079FF21
:1021B000022002F020FBDFF8300A02F072FFDFF8A5
:1021C0002C0A02F06EFFDFF8280A02F06AFFDFF83F
:1021D000240A02F066FF0A2002F00DFB0026300000
:1021E000C0B2032811DA3000C0B204F058FC02007B
:1021F0003100C9B2DFF8000A02F053FF761CEEE7A7
:102200006968DFF89C0B02F04CFF0020BDEC068BE8
:1022100070BD000094950308ECCC0308A89A03084D
:10222000849303086F6666003F00000044DC0308E7
:102230005CDC0308D4F0030874DC03088CDC0308BE
:10224000DCF00308E4F003080CCD03088CEF03086E
:10225000B4B7030830E10208E0B70308D49D0308CF
:10226000FC9A0308E8AE0308D4A8030810A90308E1
:102270004200002000E803080CF0030810E80308FF
:10228000ECF003082DE9F0412DED088B05000E0060
:102290009FEDCABACAA421007068FDF787FF002825
:1022A00023D0B06800281AD0B06802F0A2FCC0B2F7
:1022B00006F0D0FEB0EE408AB06802F09AFCC0B2E0
:1022C00006F067FE040018EE100A06F033F802006C
:1022D0000B002100DFF8D00A02F0E3FE69E1B168EB
:1022E000DFF8BC0A02F0DDFE63E1B6A17068FDF71D
:1022F0005DFF00280CD006F0DDFE10EE100A06F09F
:1023000019F802000B00DFF8A40A02F0CAFE50E13F
:10231000ADA17068FDF74AFF00283AD006F0CAFE6A
:1023200010EE100A06F006F802000B00DFF87C0A37
:1023300002F0B7FE00273800C0B2032819DAB7EE62
:10234000008A3800C0B204F071FFF0EE408A380015
:10235000C0B204F0A4FB040018EE900A05F0EAFFF6
:1023600002000B002100DFF84C0A02F09AFE7F1CED
:10237000E1E7032006F06EFEB0EE40BA1BEE100A55
:1023800005F0D8FF02000B00DFF82C0A02F089FEEE
:102390000FE1DFF8281A7068FDF708FF002806D063
:1023A000B06802F026FCC0B207F03CFA01E1DFF8A9
:1023B000101A7068FDF7FAFE00281CD00A2002F0FF
:1023C0001AFA00242000C0B2092880F2F280002707
:1023D0002000C0B207F064FB8046424692B2210062
:1023E000C9B2491CDFF8DC0902F05BFE0A2002F0EA
:1023F00002FA641CE6E7DFF8D0197068FDF7D6FE34
:10240000002800F08F802100B068FDF7CFFE002883
:102410003ED0F068002836D0F06802F0EAFBC0B287
:1024200006F0BEFDF0EE409AB0EE60AAF0EE41AAD2
:10243000DFF89809007804280ADBF06802F0D9FB7D
:10244000C0B206F0A6FD0100DFF8840902F029FE03
:102450000821B0EE690A012002F0FCF9DFF87409E6
:1024600002F01FFE0821B0EE4A0A012002F0F2F944
:10247000DFF8640902F015FE0821B0EE6A0A0120B7
:1024800002F0E8F995E0DFF8540902F00AFE90E066
:1024900071A1B068FDF78AFE002800F08A80F0681C
:1024A00000283AD03069002837D07069002834D02D
:1024B000B069002831D0306905F013F851EC100BE9
:1024C00005F014F800EE100AB0EE408A706905F0CD
:1024D00008F851EC100B05F009F800EE100AF0EEC8
:1024E000408AB06904F0FDFF51EC100B04F0FEFFD0
:1024F00000EE100AB0EE409AF06802F07AFBB0EEFF
:10250000480AF0EE680AB0EE491AC0B206F072FD51
:10251000DFF8CC0802F0C5FD4BE0DFF8C00802F0A0
:10252000C0FD46E0706800280CD0DFF8B81870686D
:10253000FDF73CFE002805D148A17068FDF736FE86
:10254000002831D0DFF8A00802F0ABFDDFF89C08CE
:1025500002F0A7FDDFF8980802F0A3FDDFF8280BD2
:1025600002F09FFDDFF8240B02F09BFDDFF8200B4B
:1025700002F097FDDFF81C0B02F093FDDFF8180B5B
:1025800002F08FFD00242000C0B2052811DA2000DF
:10259000C0B206F0FEFC02002100C9B2DFF8580606
:1025A00002F07FFD641CEEE77168DFF8F40702F0CB
:1025B00078FD0020BDEC088BBDE8F0810000000034
:1025C00067657400656E7600616C6C00F4F003085A
:1025D000FCF0030800E7030838B504000D00686844
:1025E000002819D0686804F07CFF51EC100B002221
:1025F000002305F0E3F90FD8686804F072FF51EC8E
:10260000100B04F073FF00EE100A04F07BFCDFF8FF
:10261000D00702F046FD1DE0686800280CD0DFF806
:10262000C4176868FDF7C2FD002805D10BA16868D2
:10263000FDF7BCFD002808D0DFF8080B02F031FDE3
:10264000DFF8040B02F02DFD04E06968DFF85007A5
:1026500002F027FD002032BD736574003F000000CA
:102660002CCD030804F103086CF003080CF10308F7
:102670004CCD03080CB8030838B80308F4930308DA
:102680004CA9030894A50308909F0308DCEC0308F9
:1026900014F103086CCD030860E3030874E3030836
:1026A00070B52DED048B04000D0082A16868FDF764
:1026B0007DFD00286ED0A868002866D0A86802F0CA
:1026C00098FAC0B204F01EFDB0EE408AF0EE608AC7
:1026D000B0EE419AA86802F08CFA00282AD1DFF8FF
:1026E000EC06007804280ADBA86802F082FAC0B27F
:1026F00004F0D5F90100DFF8DC0A02F0D2FC082171
:10270000B0EE480A012002F0A5F8DFF8CC0A02F08A
:10271000C8FC0821B0EE680A012002F09BF8DFF83F
:10272000BC0A02F0BEFC0821B0EE490A012002F00A
:1027300091F8BBE0DFF89406007804280ADBA8686B
:1027400002F057FAC0B204F0AAF90100DFF8900ACB
:1027500002F0A7FC0821B0EE480A012002F07AF846
:10276000DFF8700602F09DFC0821B0EE680A012037
:1027700002F070F8DFF8600602F093FC0821B0EE7A
:10278000490A012002F066F890E0DFF8500602F0F6
:1027900088FC8BE048A16868FDF708FD002842D05E
:1027A000A86800283AD0E868002837D028690028AF
:1027B00034D06869002831D0E86804F092FE51EC0A
:1027C000100B04F093FE00EE100AB0EE408A286968
:1027D00004F087FE51EC100B04F088FE00EE100AA6
:1027E000F0EE408A686904F07CFE51EC100B04F0B6
:1027F0007DFE00EE100AB0EE409AA86802F0F9F9EA
:10280000B0EE480AF0EE680AB0EE491AC0B204F021
:10281000B7FCDFF8CC0502F044FC47E0DFF8BC056C
:1028200002F03FFC42E0686800280CD0DFF8B415E5
:102830006868FDF7BBFC002805D121A16868FDF799
:10284000B5FC00282DD0DFF8600A02F02AFCDFF882
:102850005C0A02F026FCDFF8580A02F022FC0A208B
:1028600001F0C9FF00263000C0B203280BDA3000A7
:10287000C0B204F014F902003100C9B2DE4802F01F
:1028800010FC761CEFE7DC4EDFF8282A032130002D
:1028900002F007FCDFF8202A0421300002F001FCDE
:1028A00004E06968DFF8F80402F0FBFB0020BDECEF
:1028B000048B70BD67657400736574001CF10308B8
:1028C0003F00000024F10308E8EC03082CF10308A2
:1028D00014F0030870B52DED048B82B004000D00D8
:1028E000B1A16868FDF762FC00283AD0A86800280A
:1028F00031D0A86802F07DF9C0B204F00FF9B0EE53
:10290000408AF0EE608AB0EE419AA86802F071F950
:10291000C0B204F0C4F80100DFF8740A02F0C1FB91
:102920000321B0EE480A012001F094FFDFF8640AA9
:1029300002F0B7FB0321B0EE680A012001F08AFF24
:10294000DFF8540A02F0ADFB0321B0EE490A012082
:1029500001F080FF22E1A968DFF8440402F0A1FB46
:102960001CE192A16868FDF721FC002849D0A86805
:1029700000283CD0E868002839D02869002836D0E3
:102980006869002833D0E86804F0ABFD51EC100B07
:1029900004F0ACFD00EE100AB0EE408A286904F0A5
:1029A000A0FD51EC100B04F0A1FD00EE100AF0EEBA
:1029B000408A686904F095FD51EC100B04F096FD17
:1029C00000EE100AB0EE409AA86802F012F9B0EEDC
:1029D000480AF0EE680AB0EE491AC0B204F0CCF82A
:1029E000C0B20100DFF8540A02F05BFBD6E0686970
:1029F00000902B69EA68A968DFF8440A02F051FBED
:102A0000CCE0DFF8401A6868FDF7D0FB002839D029
:102A1000A868002831D0A86802F0EBF8C0B204F032
:102A200002FAB0EE408AF0EE608AB0EE419AA868F1
:102A300002F0DFF8C0B204F032F80100DFF850090C
:102A400002F02FFB0321B0EE480A012001F002FF43
:102A5000DFF8400902F025FB0321B0EE680A0120EF
:102A600001F0F8FEDFF8300902F01BFB0321B0EEA5
:102A7000490A012001F0EEFE90E0A968C84802F082
:102A800010FB8BE0DFF8401A6868FDF78FFB002829
:102A900049D0A86800283CD0E868002839D02869C7
:102AA000002836D06869002833D0E86804F019FDA2
:102AB00051EC100B04F01AFD00EE100AB0EE408A43
:102AC000286904F00EFD51EC100B04F00FFD00EE30
:102AD000100AF0EE408A686904F003FD51EC100B17
:102AE00004F004FD00EE100AB0EE409AA86802F06F
:102AF00080F8B0EE480AF0EE680AB0EE491AC0B2AB
:102B000004F0BFF9C0B20100DFF8300902F0C9FAE1
:102B100044E0686900902B69EA68A968DFF8200939
:102B200002F0BFFA3AE0686800280BD0AD49686847
:102B3000FDF73CFB002805D120A16868FDF736FBB6
:102B4000002827D0DFF8880902F0ABFADFF8840903
:102B500002F0A7FADFF8800902F0A3FADFF87C0997
:102B600002F09FFADFF8780902F09BFA0A2001F0E0
:102B700042FE00263000C0B203280FDA3000C0B297
:102B800003F08DFF02003100C9B21B4802F089FA40
:102B9000761CEFE76968824802F083FA002002B0F1
:102BA000BDEC048B70BD0000676574007365740034
:102BB00034F10308A4DC0308BCDC03083F00000078
:102BC0003CF10308D4DC030804F0030800100240C1
:102BD00088E303089CE303088CCD03081CAF0308BB
:102BE00050AF030884AF0308B8AF0308ECAF030885
:102BF00020B0030854B0030820E8030870B52DED99
:102C0000028B04000D00DFF8DC186868FDF7CEFACF
:102C100000284CD0A868002844D0A86804F061FCC3
:102C200051EC100B0022002304F0C8FE3AD8A8682B
:102C300004F057FC51EC100B0122DFF8AC3804F023
:102C4000D5FE2FD2E868002827D0E86801F0D1FF30
:102C5000002822D4E86801F0CCFF02281DDAA86819
:102C600004F03FFCB0EE408AF0EE608AE86801F0C4
:102C7000C0FF060051EC180B04F038FC00EE100AFF
:102C80003000C0B207F08AF8E86801F0B2FF010036
:102C9000DFF8580802F005FA7DE0DFF8540802F08A
:102CA00000FA78E0DFF84C0802F0FBF973E0DFF897
:102CB00048186868FDF77AFA002822D0A86800282A
:102CC0001AD0A86801F095FF002815D4A86801F073
:102CD00090FF022810DAA86801F08BFF9FED310AFF
:102CE000C0B207F05BF8A86801F083FF0100DFF8CD
:102CF0000C0802F0D6F94EE0DFF8F40702F0D1F943
:102D000049E0DFF8FC176868FDF750FA00281ED08C
:102D1000A868002816D0A86801F06BFF002811D41D
:102D2000A86801F066FF02280CDAA86801F061FFCC
:102D3000C0B207F071F8C0B20100DFF8C80702F0B6
:102D4000B0F928E0DFF8A80702F0ABF923E06868E3
:102D500000280BD023496868FDF728FA002805D120
:102D600013A16868FDF722FA002810D0DFF8980751
:102D700002F097F9DFF8940702F093F9DFF8900773
:102D800002F08FF9DFF88C0702F08BF903E0696835
:102D9000034802F086F90020BDEC028B70BD0000F4
:102DA000FCE203080000000030E80308ECDC030844
:102DB0003F00000000D503081CD5030844F10308B8
:102DC000C4F0030838D503084CF103084200002082
:102DD000ACCD0308F4EC030800ED030840E8030859
:102DE0000CED03088CEF0308CCCD030864B803088E
:102DF00090B8030870B52DED028B05000E00DFF8CA
:102E0000E4167068FDF7D2F9002843D0B0680028B6
:102E10003AD0F068002837D0B06801F0EAFEC0B2BE
:102E200004F093FA0100DFF8F00602F03AF9F068D6
:102E300004F057FB03210C0053EC102B0020DFF8AB
:102E4000DC1607F07DF804F051FB00EE100A2100BB
:102E5000012001F0FFFCA1A002F023F9F06804F0CA
:102E600040FBB0EE408AF0EE608AB06801F0C1FE2F
:102E7000040051EC180B04F039FB00EE100A20009E
:102E8000C0B204F09DFAFBE0B168DFF8940602F0EE
:102E900008F9F5E0DFF860167068FDF787F900289B
:102EA0001CD0B068002813D0B06801F0A2FEC0B2F8
:102EB00004F04BFA0100DFF86C0602F0F2F8B0689B
:102EC00001F097FE9FED9E0AC0B204F079FAD7E0B8
:102ED000B168DFF84C0602F0E4F8D1E0DFF84816FC
:102EE0007068FDF763F900281AD0B068002811D087
:102EF000B06801F07EFEC0B204F027FA0100DFF8EE
:102F00002C0602F0CEF8B06801F073FEC0B204F0F7
:102F100023FAB5E0B168DFF8080602F0C2F8AFE0C6
:102F2000DFF80C167068FDF741F9002843D0B0684F
:102F300000283AD0F068002837D0B06801F059FE78
:102F4000C0B204F002FA0100DFF8E80502F0A9F8C7
:102F5000F06804F0C6FA03210C0053EC102B00209B
:102F6000DFF8B81506F0ECFF04F0C0FA00EE100A26
:102F70002100012001F06EFC58A002F092F8F068E8
:102F800004F0AFFAB0EE408AF0EE608AB06801F06B
:102F900030FE040051EC180B04F0A8FA00EE100A01
:102FA0002000C0B204F060FA6AE0B168DFF8700592
:102FB00002F077F864E0DFF880157068FDF7F6F846
:102FC00000281AD0B068002811D0B06801F011FEB6
:102FD000C0B204F0BAF90100DFF8600502F061F850
:102FE000B06801F006FEC0B204F01AFA48E0B16819
:102FF000DFF82C0502F055F842E0706800280CD08C
:10300000DFF83C157068FDF7D1F8002805D170A1F4
:103010007068FDF7CBF800282DD0DFF8280502F006
:1030200040F80521DFF8200502F03BF8DFF81C0529
:1030300002F037F8DFF8180502F033F8DFF814056E
:1030400002F02FF8DFF8100502F02BF80024200022
:10305000C0B2052814DA2000C0B204F076F90200EC
:103060002100C9B2DFF8F40402F01BF8012001F0DE
:10307000C2FB641CEBE77168DFF8A40402F011F8EE
:103080000020BDEC028B70BDBCB80308E8B8030893
:1030900014B9030820970308949C030870B5040032
:1030A0000D00DFF8BC0401F0FCFFDFF8B80401F00C
:1030B000F8FFDFF8B464306800280DD00A2001F072
:1030C0009AFBB068002805D0B2683168DFF89C042C
:1030D00001F0E7FF0C36EEE7002070BD202525004B
:1030E0003EB504000D0006F0FDFF029006F0FFFF64
:1030F0000190DFF87C04C1880091838842880188B0
:10310000DFF8700401F0CDFF9DF80B0000909DF8F2
:103110000A309DF809209DF80810DFF85C0401F0E2
:10312000C0FF9DF8070000909DF806309DF805202F
:103130009DF80410DFF8440401F0B3FF00203EBD09
:1031400000000000C0C5030804DD030838B5040012
:103150000D0002F034F9002032BDF8B504000D0076
:103160000026DFF81C0401F09CFF0127A74208DAC3
:1031700055F827203900DFF80C0401F092FF7F1C7E
:10318000F4E70020F2BD38B504000D00A8A001F05E
:1031900088FF0A2001F02FFB01F058FB002032BD10
:1031A00038B504000D006868002806D0686801F092
:1031B00020FDC0B206F0A4FF07E006F0A4FF010066
:1031C000C9B2DFF8C40301F06CFF002032BD00007B
:1031D0003F00000054D5030818ED030824ED030850
:1031E000E4C5030870B504000D00DFF8A01368689B
:1031F000FCF7DCFF002817D0A86800280FD0A868CB
:1032000004F06FF951EC100B04F070F900EE100AA5
:1032100006F0F4FFDFF8780301F043FF41E0A9680E
:10322000BF4801F03EFF3CE0B3496868FCF7BEFFD1
:10323000002808D09FED7F0A06F0E0FFDFF8540376
:1032400001F02FFF2DE0DFF850136868FCF7AEFFA8
:10325000002809D007F000F80600310089B2DFF835
:103260003C0301F01EFF1CE0686800280BD0B44945
:103270006868FCF79BFF002805D16FA16868FCF720
:1032800095FF002809D0C64801F00BFFC54801F0A2
:1032900008FFC54801F005FF03E06968A04801F098
:1032A00000FF002070BD000008C6030840B90308F5
:1032B000509B030830ED03083CED030870B52DED7D
:1032C000028B04000D00B9496868FCF76FFF002805
:1032D0001FD0A868002818D0E868002815D0E86832
:1032E00004F0FFF8B0EE408AF0EE608AA86801F0C2
:1032F00080FC060051EC180B04F0F8F800EE100A00
:103300003000C0B206F0EAFF3DE0A94801F0C9FE76
:1033100039E0A8496868FCF749FF002806D0A8688A
:1033200001F067FCC0B207F002F82CE0A24968681F
:10333000FCF73CFF002806D0A86801F05AFCC0B298
:1033400007F011F81FE0686800280BD07C49686816
:10335000FCF72CFF002805D137A16868FCF726FF91
:1033600000280CD0954801F09CFE954801F099FE8C
:10337000944801F096FE944801F093FE03E06968DA
:10338000674801F08EFE0020BDEC028B70BD00008E
:10339000B0E3030854F103085CF1030838B50400F6
:1033A0000D0047A16868FCF701FF00280DD0A86850
:1033B000002806D0A86801F01CFCC0B207F018F87D
:1033C00034E0824801F06DFE30E03EA16868FCF711
:1033D000EDFE00280DD0A868002806D0A86801F0EE
:1033E00008FCC0B207F027F820E0784801F059FE49
:1033F0001CE0686800280BD051496868FCF7D6FECD
:10340000002805D10CA16868FCF7D0FE002809D07F
:103410006F4801F046FE6F4801F043FE6E4801F030
:1034200040FE03E069683E4801F03BFE002032BDEB
:103430000A0A0A00000000003F00000048ED0308EF
:103440002CC6030864F1030838B504000D00634975
:103450006868FCF7ABFE002809D06149A868FCF752
:10346000A5FE00282AD05F4801F01BFE26E05E4939
:103470006868FCF79BFE002803D05C4801F011FE51
:103480001CE0686800280BD02D496868FCF78EFEA8
:10349000002805D10DA16868FCF788FE002809D036
:1034A0003F4801F0FEFD524801F0FBFD514801F09C
:1034B000F8FD03E069681A4801F0F3FD002032BD11
:1034C0006F6E00006F6666006CF103083F0000003D
:1034D00050C603089CBD0308C4BD0308ECBD030827
:1034E00014BE030874F103080000F03F70D5030810
:1034F000ECCD03080CCE030814F003088CD50308A8
:1035000034F103081CDD03082CCE0308D4A50308FE
:103510004CCE030888B0030834DD0308000059408E
:10352000FCE2030850E803087CF10308C4E3030845
:1035300084F103083CBE03088CF10308A8D50308F6
:103540008CEF030874C6030888A9030864BE030847
:103550008CBE0308B4BE0308DCBE030820E80308E1
:103560004CDD0308D8E303084C85030894F10308F5
:10357000C4F1030864DD03087CDD030894DD03085F
:1035800060E80308ECE303089CF103080CF003086F
:10359000ACDD030800E40308C4F00308C4DD03083D
:1035A000C4D5030814A6030804BF03082CF00308BD
:1035B000DCDD030834F00308A4F10308F4DD03089C
:1035C000D89F0308B4B30308C4A903080CDE03089A
:1035D00024DE0308BCB0030854AC0308ACF10308B4
:1035E000B4F1030814E40308BCF1030870E803080D
:1035F000E4B3030814B4030881EA00039B0717D15E
:10360000820707D010F8012B11F8013BBAB19A429A
:10361000F6D014E002680B689A42A2F1013301BFB0
:10362000934313F0803F50F8042F51F8043FF3D038
:1036300010F8012B11F8013B0AB19A42F8D0D01AC8
:10364000704730B4002513E050F8042BD30744BF73
:10365000A9F101039A18091F042942F8045BFAD260
:1036600013468C0744BF15809B1CC90748BF1D70BB
:1036700050F8041B0029E7D130BC70472DE9FB4FFF
:1036800082B006001700DDF838800F9CDDF840900E
:10369000DDF844A03000002807D1502080F31188C5
:1036A000BFF34F8FBFF36F8FFEE7B8F10A0F07D359
:1036B000502080F31188BFF34F8FBFF36F8FFEE769
:1036C0004946380080B200F03FFD0500002D61D072
:1036D000286B390089B200EB8100001FC008C000D0
:1036E0000190019810F0070F07D0502080F3118847
:1036F000BFF34F8FBFF36F8FFEE7380080B20090AB
:10370000534642460399280000F06EFC049A3100AB
:10371000019806F0BFFE2860002C00D0256006F05E
:103720003AFFDFF86C160868401C0860DFF8642672
:103730001068002806D11560086801280CD100F037
:103740008BFC09E0DFF8BC060068002804D1106893
:10375000C06A804500D31560DFF8AC060168491CDB
:10376000016000686864DFF8A4160A680123E86A4B
:1037700083401A430A60291DDFF89426EB6A14205F
:10378000434302EB030006F0B3FF5FF0010B06F0CA
:103790001CFF01E05FF0FF3BBBF1010F13D1DFF82D
:1037A0006406006800280ED0DFF8E8050068C06AEB
:1037B000404508D25FF08050DFF83C170860BFF347
:1037C0004F8FBFF36F8F584605B0BDE8F08FF8B547
:1037D00004000025002C2AD0DFF894060068002899
:1037E00007D0502080F31188BFF34F8FBFF36F8F46
:1037F000FEE700F028F9DFF804070068201806004B
:10380000DFF890753868001D06F099FF002808D190
:103810003868DFF8F8150A680123C06A83409A43C4
:103820000A60300000F06CFC00F013F90500002D78
:1038300008D15FF08050DFF8C0160860BFF34F8FEB
:10384000BFF36F8FF1BD70B5040006F0A4FE002C2D
:1038500003D1DFF84005056800E02500281D06F0CB
:103860006EFF00280FD1DFF8A815EA6A1420424342
:103870008858002807D1DFF894150A680123E86A00
:1038800083409A430A60A86A002803D015F1180003
:1038900006F055FFDFF82867291D300006F028FFE5
:1038A00006F093FEDFF8EC140868854227D1DFF8B4
:1038B00054050068002816D0DFF8B4050068002819
:1038C00007D0502080F31188BFF34F8FBFF36F8F65
:1038D000FEE75FF08050DFF820160860BFF34F8FDF
:1038E000BFF36F8F16E03068DFF8A42412689042AF
:1038F00002D1002008600DE000F0FDF90AE0DFF8D9
:1039000004050068002805D006F045FE00F0C1FC63
:1039100006F05BFE70BD10B4020000201300002A08
:1039200007D1502181F31188BFF34F8FBFF36F8F01
:10393000FEE75969DFF88846A14209D1996ADFF8A4
:10394000384AA14204D0996A002901D10121080016
:1039500010BC704770B504002500002C07D1502022
:1039600080F31188BFF34F8FBFF36F8FFEE7002DF9
:1039700030D0DFF82064306885422BD006F00BFE93
:103980002800FFF7C8FF012822D1281D06F0D7FE26
:10399000DFF878140A680123E86A83401A430A6052
:1039A000291DDFF86C24EB6A1420434302EB03006B
:1039B00006F09EFEE86A3168C96A884208D35FF063
:1039C0008050DFF880170860BFF34F8FBFF36F8F11
:1039D00006F0FBFD70BD1FB5002003900020029093
:1039E000002001900020009000238022DFF88C1935
:1039F0000FF2D150FFF742FE0400012C02D106F075
:103A0000B3FE0400012C13D1502080F31188BFF3C2
:103A10004F8FBFF36F8F0120DFF8E813086000209D
:103A2000DFF8D814086000F053FF06F05AFD09E0F3
:103A3000002C07D1502080F31188BFF34F8FBFF3C4
:103A40006F8FFEE71FBDDFF828040168491C016085
:103A5000704770B50025DFF818643068002807D17A
:103A6000502080F31188BFF34F8FBFF36F8FFEE7B5
:103A700006F091FD3068401E30603068002853D158
:103A8000C348006800284FD0DFF8EC180868002809
:103A900026D0C868C068040014F1180006F04FFE74
:103AA000201D06F04CFEDFF864130A680123E06A6B
:103AB00083401A430A60211DDFF85423E36A14206F
:103AC000434302EB030006F013FEE06AB1490968C4
:103AD000C96A8842D8D30120DFF874190860D3E797
:103AE000DFF86869306800280ED0306800280BD0F5
:103AF00000F07BF8002803D00120DFF8541908609B
:103B00003068401E3060F0E7DFF8440900680128A3
:103B10000AD1012005005FF08050DFF8DC13086057
:103B2000BFF34F8FBFF36F8F06F04FFD280070BDBE
:103B3000DFF8C803006870479548006870472DE9B2
:103B4000F84F06000F0015005FF000080A24FFF789
:103B50007AFF8F480068874242D3641E0122AC4836
:103B6000142101FB04F101445FEA4810304400F0E5
:103B700019FB10EB08008046002CEED10222DFF882
:103B80002C0401685FEA4810304400F00BFB8146CA
:103B900019EB08090222DFF8240401685FEA4910E2
:103BA000304400F0FFFA82461AEB090A04229949D0
:103BB0005FEA4A10304400F0F5FA83461BEB0A0B2B
:103BC0000322DFF8FC135FEA4B10304400F0EAFAFE
:103BD00010EB0B008046002D02D000F0B5FE2860EF
:103BE000FFF737FF4046BDE8F28F2DE9F04100278F
:103BF0009F48006800286FD1DFF800030168491C66
:103C000001600468002C1CD1DFF8A013086800686C
:103C1000002807D0502080F31188BFF34F8FBFF3E7
:103C20006F8FFEE7D1F80080DFF8900302680A602A
:103C3000C0F80080DFF81C080168491C016000F032
:103C400028FBDFF81488D8F80000844238D3DFF866
:103C50005C1308680068002804D15FF0FF30C8F8E2
:103C600000002DE00868C068C068050068680600AC
:103C7000B44202D2C8F8006022E0281D06F05FFDC1
:103C8000A86A002803D015F1180006F058FD5F4916
:103C90000A680123E86A83401A430A60291D5C4AC6
:103CA000EB6A1420434302EB030006F021FDE86AAF
:103CB00038490968C96A8842C9D301200700C6E7A4
:103CC000534934480068C26A142042438858022885
:103CD00007D30120070004E0DFF870070168491CE2
:103CE0000160DFF86C070068002801D001200700A0
:103CF0003800BDE8F08110B55D480068002804D0A8
:103D00000120DFF84C17086040E00020DFF8401782
:103D10000860DFF8484700F017FE2060DFF8401722
:103D200008682268904207D21A480268536D2068DA
:103D3000C31808681B1A5365206808603348006878
:103D4000B0FA80F1D1F11F011422314B02FB01F0D6
:103D50001858002807D1502080F31188BFF34F8FE7
:103D6000BFF36F8FFEE702FB01F203EB0200426834
:103D700052684260426810F108039A4202D14268D8
:103D8000526842604068C068024A106010BD00007E
:103D900084D5002074D50020F8B504000D00002C57
:103DA00007D1502080F31188BFF34F8FBFF36F8F7F
:103DB000FEE7DFF8B476386810F11801200006F04D
:103DC000A3FC3868001D06F0BAFC002807D138684B
:103DD0000E490A680123C06A83409A430A6015F1BC
:103DE000010F05D13868011D754806F081FC07E018
:103DF000DFF87C06006828180600300000F080F923
:103E0000F1BD000090D50020A0D500208CD5002069
:103E1000F0CC0020ECD3002070B504000D00002C85
:103E200007D1502080F31188BFF34F8FBFF36F8FFE
:103E3000FEE7DFF83466306810F11801200006F064
:103E400057FC3068001D06F07AFC002808D1306865
:103E5000DFF818160A680123C06A83409A430A6093
:103E6000DFF80C060668AE19300000F049F970BDA5
:103E7000A4D5002038B50500E868C468002C07D137
:103E8000502080F31188BFF34F8FBFF36F8FFEE791
:103E900014F1180006F053FCDFF8D805006800287C
:103EA00015D1201D06F04BFCDFF8C0150A68012370
:103EB000E06A83401A430A60211DDFF8BC25E36AEB
:103EC0001420434302EB030006F012FC05E014F15A
:103ED0001801DFF8A40406F00BFCDFF88C0500687D
:103EE000C06AE16A884205D201200121DFF8742509
:103EF000116000E0002032BD04ED00E088D5002014
:103F0000002807D1502181F31188BFF34F8FBFF3F1
:103F10006F8FFEE7DFF83C1509680160DFF8501588
:103F2000096841607047F8B504000D00002C07D106
:103F3000502080F31188BFF34F8FBFF36F8FFEE7E0
:103F4000002D07D1502080F31188BFF34F8FBFF3AE
:103F50006F8FFEE706F01FFBDFF814050668286880
:103F600010F1010F01D100271AE0DFF8E804006822
:103F70002168884204D06068864201D301270FE09F
:103F80006068301A2968884209D22968891B6068EC
:103F9000411829602000FFF7B3FF002700E0012748
:103FA00006F013FB3800F2BD0000000078D50020B9
:103FB0000120DFF8B0140860704700007CD50020B5
:103FC00000D4002010B5040000F070F8DFF8A80459
:103FD00000680228F8D35FF080505A490860BFF3A8
:103FE0004F8FBFF36F8FEFE72DE9F04104000D0015
:103FF00016001F005FF00008B8F1100F0CD215F882
:10400000080004EB080181F8340015F808000028C6
:1040100002D018F10108EFE7002084F843000A2ECF
:1040200001D309200600E662E66400202065201D19
:1040300006F05BFB14F1180006F057FB2461D6F183
:104040000A00A0616462002060650020A065002075
:1040500084F85C00BDE8F08170B500240A2C09D218
:10406000DFF81404142101FB04F1084406F02EFBD0
:10407000641CF3E7DFF80454280006F027FBDFF8A0
:104080000064300006F022FBBB4806F01FFBDFF89F
:10409000F40306F01BFBDFF8F00306F017FBDFF874
:1040A000EC030560DFF8E803066070BD70B5DFF86B
:1040B000E4532868002822D0FFF7C5FCDFF8C4636A
:1040C0003068002801D1012400E00024FFF7C1FC82
:1040D000002CECD106F05FFAF068C668301D06F0DF
:1040E0002EFBDFF8B4030168491E01602868401EFA
:1040F000286006F06AFA300000F0C2F8D7E770BD19
:1041000010B50400DFF8600301684C60DFF860134D
:1041100009688C4207D20068011DDFF8740300684B
:1041200006F0F2FA0CE00068011DDFF86003006899
:1041300006F0EAFADFF8200301688C4200D204603E
:1041400010BD000004ED00E02DE9F84307000D006C
:10415000002D06D1380080B2800006F011FD060067
:1041600000E02E00002E0BD0602006F009FD0400B8
:10417000002C01D0266304E0300006F065FD00E06D
:104180000024002C0BD0380080B286005FF0A50818
:10419000D4F8309042463100484606F091FD2000A8
:1041A000BDE8F2832DE9F84304000D0016005FF02E
:1041B00000092868002855D02800416849684160F6
:1041C000416810F10802914202D14168496841609A
:1041D0004068C0688046280041684968416041687D
:1041E00010F10802914202D141684968416040687B
:1041F000C06807005FEA4910275017F134005FEAF2
:10420000491121444860786C5FEA49112144886073
:104210005FEA491020440673F86A5FEA49112144B5
:1042200008613000C0B2032807D1B86A002804D062
:1042300002205FEA491121440873F86C5FEA4911D2
:1042400021444861786D5FEA491121448861386BE7
:1042500000F00BF85FEA49112144888319F1010944
:104260004745B8D14846BDE8F283010000200A78EE
:10427000A52A02D1491C401CF9E7800880B270478A
:1042800010B50400206B06F0DFFC200006F0DCFC1B
:1042900010BDDFF8F82110680068002805D15FF034
:1042A000FF30DFF8B421106007E01068C068C06814
:1042B00001004868DFF8A02110607047DFF8E001D6
:1042C0000068002801D1012007E0DFF8A80100689C
:1042D000002801D1022000E0002070472DE9F041C4
:1042E00004002500002C44D0DFF8B081E86AD8F83B
:1042F0000010C96A88423CD2A869002805D4D8F8C1
:104300000000C06AD0F10A00A861DFF86C611427D0
:104310006869E96A79433144884226D1281D06F04C
:104320000EFA00280CD1E86A78433058002807D1EB
:10433000DFF870110A680123E86A83409A430A6033
:10434000D8F80000C06AE862DFF858110A68012353
:10435000E86A83401A430A60291DE86A07FB00F7F0
:1043600006EB070006F0C4F903E0D8F80000C06AC5
:10437000E862BDE8F0810000D8D3002064F20308B1
:1043800070B5040025000026002C50D0DFF80C0189
:104390000068854207D0502080F31188BFF34F8F0B
:1043A000BFF36F8FFEE7286D002807D1502080F300
:1043B0001188BFF34F8FBFF36F8FFEE7286D401E4C
:1043C0002865E86AE96C884231D0286D00282ED132
:1043D000281D06F0B4F900280FD1DFF89C10EA6A16
:1043E000142042438858002807D1DFF880100A685B
:1043F0000123E86A83409A430A60E86CE862E86A4D
:10440000D0F10A00A861DFF864100A680123E86AA5
:1044100083401A430A60291DDFF85C20EB6A1420F0
:10442000434302EB030006F063F90120060030006D
:1044300070BDDFF868100868002803D00868026DB6
:10444000521C0265086870470000000094D50020E7
:1044500098D500209CD500201C000020ACD5002061
:10446000A8D5002098D5002074D500208CD5002038
:1044700088D50020A4D50020F0CC0020B0D30020A7
:10448000C4D30020ECD3002000D4002078D5002035
:104490007CD5002080D5002084D5002074D5002054
:1044A00090D500208CD50020DFF8741281F823000D
:1044B000704710B50400DFF86C020078042805DBB3
:1044C0002100C9B2DFF8600200F0EBFD06F063F8EE
:1044D000DFF84C0244700121017006F076F80120EB
:1044E000FFF7E2FF10BD80B500F080F800F056F84D
:1044F000DFF82C020021816401BD80B5DFF82002C5
:104500004078FFF7D6FF01BDF8B52DED028B040012
:10451000B0EE408A25000126DFF80472B878002842
:104520002CD10120B8700020F870FFF701FB00EEDD
:10453000100AB8EE400A87ED0F0A87ED0E8A2800B0
:1045400097F82310C0B2884203D02800C0B2FFF70A
:10455000ABFFDFF8D001007804280BDB18EE100A5F
:1045600003F0E8FE02000B002100C9B2DFF8BC0135
:1045700000F097FD786BFFF7EDF90AE0DFF8A40192
:104580000078022803DBDFF8A80100F08AFD002094
:1045900006003000C0B2BDEC028BF2BD10B50124A4
:1045A000DFF87C01817801290DD100218170012182
:1045B000C170DFF87001007804280FDBDFF87401A8
:1045C00000F06FFD0AE0DFF85C010078022803DBF1
:1045D000DFF8640100F065FD002004002000C0B297
:1045E00010BD0120DFF83811087170470020DFF896
:1045F00030110871704700002DE9F0412DED010ADE
:1046000081B004002000C0B2002819D0042601AFF8
:10461000DFF80C5115F1480832003900404603F02C
:1046200079F9DFF800010078052808DBA86C03F0B1
:1046300081FE02000B00DFF8040100F032FD2C7156
:10464000BDE8F38110B52DED028B82B0B0EE408A4B
:10465000344C2078042803DBDFF8E40000F021FD6F
:104660000321B0EE480A042000F0F4F82078042872
:1046700002DB27A000F015FDB5EE408AF1EE10FA3E
:104680001EDD274C0020009000239FED140A28EE29
:10469000000AF7EE000A80EE200ABCEEC00A10EE17
:1046A000102A0421206C06F087F8FFF741FA002158
:1046B0000091002302000121206C06F07DF808E043
:1046C000002000900023002203211548006C06F012
:1046D00073F802B0BDEC028B10BD000000007A44FC
:1046E00010B52DED028B82B00D4890ED128A04F0CA
:1046F00072FB0400009418EE100A03F01BFE020087
:104700000B00104800F0CDFC02B0BDEC028B10BDD8
:1047100020730000024A82F8440082F84510704776
:10472000A8D10020420000202CCF0308D4A6030803
:1047300054E50308D8D7030868E50308E4ED030847
:10474000F4D703084CCF030810B4020052B2002A79
:1047500009D50A01CF4B040064B214F00F042344BE
:1047600003F8042C04E00A01CB4B040064B21A5590
:1047700010BC7047BFF34F8FC8490A6812F4E0625B
:10478000C74802430A60BFF34F8F00BFFDE710B573
:104790000400601EB0F1807F01D301200EE0601E96
:1047A000C04908600F215FF0FF30FFF7CDFF002008
:1047B000BD4908600720BD490860002010BDF8B55C
:1047C0005FF400315FF0006006F0E7FA4FF44070EC
:1047D00006F0AAFA684606F0F5FA01984FF47A71E5
:1047E000B0FBF1F0FFF7D3FF0F215FF0FF30FFF7D1
:1047F000ABFF05B000BD10B504000120B4FBF0F024
:10480000FEF7E5FF10BD10B4002181420AD200225C
:1048100013009BB247F23054A34201DA521CF7E76F
:10482000491CF2E710BC704700220100481E002915
:1048300006D020210A0011004A1E0029FBD1F4E70E
:1048400070470100481E0029FBD1704780B5FFF773
:1048500091FF01BD70B52DED048B0400B0EE408AD0
:104860000D00934800782100C9B288422DD3B5EEDF
:10487000408AF1EE10FA06D582A000F012FCBFEEDD
:10488000000A28EE008AFCEEC88A18EE901A7EA074
:1048900000F007FCB8EE680A38EE409A00262800BF
:1048A000C0B2864211DAB2EE040A29EE009ABCEEDA
:1048B000C90A10EE101A0A20B1FBF0F200FB121127
:1048C00072A000F0EEFB761CE9E7BDEC048B70BD36
:1048D0007FB50C24002501AE2A002100300006F02F
:1048E000EFF90121202006F035FB4CF24F30029009
:1048F0000020ADF806000020ADF80C004AF6C770A5
:10490000ADF804006B4E01A9300006F06FFB0121E9
:10491000300006F0CFFB01220121300006F0BEFB83
:1049200037208DF8000001208DF8030005208DF858
:10493000010000208DF80200684606F0FAF9012116
:10494000300006F08EFB7FBD80B55A4806F087FB2D
:104950000100594800884CF2503202FB001002BDA1
:1049600010B5544C0121200006F0A9FB002807D007
:104970000121200006F0BAFB4F480188491C018044
:1049800010BD30B5A9B007A84C49D1E90023C0E952
:104990000023FFF7D1F805900598112804D3059955
:1049A000474800F07EFB6AE0464D06AA05992800BC
:1049B000FFF7C5F80590444800F073FB06980028FF
:1049C0005AD00020049004980599884254D2049843
:1049D0004001284480696421A1FB0001069A00235C
:1049E00006F08AFB0400002C1ED00499049A049B54
:1049F0000498039449012944898B02915101294467
:104A000009690191590129448968009107A9400168
:104A10002844007B0B5C04984001284442682B49E1
:104A200009A806F081FC1CE00499049A049B0498F0
:104A300049012944898B0291510129440969019155
:104A4000590129448968009107A940012844007B45
:104A50000B5C04984001284442681D4909A806F0EF
:104A600063FC09A90AA000F01CFB0A20FEF7AFFEB8
:104A70000498401C0490A6E7164800F012FB29B0E9
:104A800030BD00002D00000025642E0025640000CC
:104A900025730A0018ED00E000E400E00CED00E0F2
:104AA0000400FA0514E000E018E000E010E000E087
:104AB0004200002000140040FED500205CF20308F4
:104AC000B4C80308E0C6002068AB030878DA03081E
:104AD00094DA0308A4AB03082DE9FC4F83B00BB1B3
:104AE00000241C600446254600E06D1C2878A0F1D7
:104AF0000903052BF9D32028F7D02D2816BF2B2822
:104B000015F8018B4FF02B08002A019103D4012ADC
:104B100001D0252A03DB002947D00C6045E0002A9C
:104B20000ADD102A04BF2878302802BF687840F0D8
:104B3000200078280ED10AE02878302818BF0A22F1
:104B400008D1687840F02000782802D11022AD1CEE
:104B500000E00822029500E06D1C28783028FBD088
:104B60004FF0000926A02E46CA468DF80000934655
:104B700007E09DF80070C71BCA46FFB20BFB09791E
:104B80006D1C2978A1F141001A2838BF203100BFDF
:104B90001BA05A4606F0E8FB0028EAD10299A94278
:104BA000484604D1019800B1046000201EE000BF17
:104BB0001DA2AE1B12F80B10761A002E0FD405DCC6
:104BC000C71B03D3B7FBFBF1514508D0AFF30080FF
:104BD000049808B1012101604FF0FF3003E0B8F103
:104BE0002D0F08BF4042019901B10D6005B0BDE82D
:104BF000F08F00E0000000230A2200216CE7000093
:104C00003031323334353637383961626364656642
:104C10006768696A6B6C6D6E6F70717273747576AC
:104C20007778797A0000000000002115110E0D0C34
:104C30000B0B0A0A090909090908080808080808E5
:104C40000707070707070707070707070700000009
:104C500010B506F0B7FB06F0A5FC00F0B0FB002095
:104C6000DFF8A01708700020DFF89C1708700020FC
:104C7000DFF898170860DFF89817002008700878A8
:104C80000A280ADA0022DFF88C370C7880204443A7
:104C90001A550878401C0870F1E700200870087861
:104CA000DFF87417087006F021FD10BD2DE9F143FF
:104CB00000249DF8000003281FD004281DD00828D8
:104CC0000ED00A2824D00D2822D01B2847D04128F6
:104CD00045D0422843D05B2841D07F2840F0C38094
:104CE000DFF828070168012906DB0168491E016019
:104CF000032195A006F097FCC6E00020DFF80C1712
:104D000008600220DFF8FC16087001200400BBE0F8
:104D1000DFF8080700780D2803D19DF800000A2865
:104D20001CD0DFF8E8562E68DFF8F476DFF8F4865A
:104D3000C14632003900484602F0ECFD00202968E7
:104D400008F80100002028600120DFF8B81608707C
:104D5000012004000121A6A006F065FC94E0DFF824
:104D6000A8562878002803D0022824D019D379E047
:104D70009DF800001B2802D10120287010E0DFF808
:104D80008C0601687F290BDA01684A1C02609DF8D5
:104D90000000DFF88C2650540121684606F043FCE1
:104DA00060E09DF800005B2802D10220287001E03D
:104DB0000020287056E09DF8000041280AD1DFF855
:104DC0005806017809310A2291FBF2F302FB131114
:104DD00001700DE09DF80000422809D1DFF8380687
:104DE0000178491C0A2291FBF2F302FB13110170B6
:104DF0009DF80000412803D09DF8000042282FD1E3
:104E0000DFF808763868411E3960002804D0032195
:104E10004DA006F008FCF3E7DFF8F865DFF8F88549
:104E200098F800108020414306EB010006F0A6FC34
:104E30003860396898F800208020424306EB020071
:104E400006F0F1FB3F6898F80010C9B2802041439A
:104E50000E44DFF8CC853A003100404602F05AFD9E
:104E60000020287010E0DFF8A40501687F290BDA24
:104E700001684A1C02609DF80000DFF8A425505428
:104E80000121684606F0CFFB9DF80000DFF88C1585
:104E900008702000C0B2BDE8F28338B5DFF86415B1
:104EA000087800284DD00878012843D100200870E8
:104EB000DFF87055280000F049F8280000F09AF853
:104EC000040014F1030F05D1DFF85C0500F0E9F8E8
:104ED000002037E014F1010F0DD100200400285DFF
:104EE000002801D1641CFAE705EB0401DFF83C055A
:104EF00000F0D7F816E014F1020F04D1DFF8300506
:104F000000F0CFF80EE0102C01D100201AE0142C94
:104F100001D1142016E0002C04D02100DFF8140584
:104F200000F0BFF832A000F0BCF8DFF8FC0400F09D
:104F3000B8F806E00878022803D100200870142091
:104F400000E0002032BD00000820080030B401005D
:104F50000022885C002807D0885C202802D0885C6A
:104F6000092801D1521CF4E71144087800283CD0EC
:104F700000200200802A0FD2885C00280CD0DFF8C5
:104F80009434DFF88C0404788020444303EB04005D
:104F90008B5C8354521CEDE7802A0BD2DFF874340B
:104FA000DFF86C0404788020444303EB0400002302
:104FB00083540CE0DFF85C34DFF85404047880207C
:104FC000444303EB04001044002300F8013CDFF8E5
:104FD000400403785B1C0A2493FBF4F504FB1533AF
:104FE00003700078DFF83034187030BC7047000070
:104FF0000A0000002DE9F8430600012400200C28D7
:1050000006DA0021DFF8302442F82010401CF6E7D1
:1050100000253700387800281BD03878202802D0A7
:105020003878092804D100203870012004000EE0EF
:10503000002C0CD00B2D07DADFF8FC0340F82570AC
:105040006D1C0020040002E07FF0010021E07F1CC5
:10505000E0E7002D1BD0DFF8E483D8F8000000283B
:1050600012D0DFF8D493D8F80010D9F80000FEF77A
:10507000C3FA002805D149462800D8F804209047F3
:1050800007E018F10C08E8E75FF0FF3001E07FF07F
:105090000200BDE8F28380B5DFF88C0300F001F870
:1050A00001BD0EB42DE9F04F2DED048B88B0804684
:1050B00015AE98F80000002800F07A810020050065
:1050C00018F80500252805D018F80500002801D09B
:1050D0006D1CF5E72900404606F0A5FAA84498F8AB
:1050E00000002528E5D118F1010800200400202047
:1050F0008DF80000404610F101080078253800F0D6
:105100004C810B38092815D9283800F0EF800B386E
:1051100020D0401E26D0801E37D00A3800F0E6800E
:10512000C01E00F0BD80801E00F0D680C01E00F0C2
:10513000DD8038E118F8010C302804D1002C02D1B0
:1051400030208DF800000A20444318F8010C303854
:105150000419CFE73068361D0190012101A806F03F
:1051600062FAA6E73068361D01900020070001981A
:10517000002805D50198404201900120834601E0B6
:10518000002083460A208246B9E0F61D36F0070665
:1051900096ED000B0836B0EE408AF0EE608A51ECD6
:1051A000180B0022002302F021FC08D201208346C4
:1051B00051EC180B91F0004141EC180B01E000207C
:1051C000834651EC180B06F0F5FA0190019806F0B1
:1051D0000FFB02000B0051EC180B06F017FB41EC23
:1051E000190B0A2082460120050001208146019802
:1051F0000AFB05F188420AD30AFB05F0B0FBFAF07E
:10520000A84204D10AFB05F519F10109EFE70020D6
:105210000700BBF1010F03D12D2003A9C8557F1C46
:10522000002D0FD00198B0FBF5F0B0FBFAF10AFBAE
:10523000110083490968085C03A9C8557F1CB5FBA8
:10524000FAF5EDE751EC190B0022002302F0B6FB52
:1052500003D82E2003A9C8557F1CB9F1070F1AD215
:10526000504606F0C5FA53EC192B04F069FE41ECE8
:10527000190B51EC190B06F09DFA0A2190FBF1F283
:1052800001FB12006E490968085C03A9C8557F1C20
:1052900019F10109E1E7390003A806F0C4F908E7AC
:1052A0003068361D0290002005000298405D0028FD
:1052B00001D06D1CF9E72900029806F0B4F9A54267
:1052C00009D2641B2000441E002804D001214BA0F9
:1052D00006F0A9F9F6E7ECE63068361D01900020EB
:1052E00007000A2082460020834608E03068361D09
:1052F00001900020070010208246002083460120F4
:10530000050001980AFB05F1884209D30AFB05F064
:10531000B0FBFAF0A84203D10AFB05F5641EF0E7E2
:10532000BBF1000F00D0641EBBF1000F09D09DF847
:105330000000302805D12D2003A9C8557F1C00206E
:105340008346022C0BD3102C09D2641E002C06D0ED
:105350009DF8000003A9C8557F1C641EF6E7BBF149
:10536000000F03D02D2003A9C8557F1C002D0FD09E
:105370000198B0FBF5F0B0FBFAF10AFB11003049DF
:105380000968085C03A9C8557F1CB5FBFAF5EDE771
:10539000390003A806F047F98BE60121B8F10100B6
:1053A00006F041F985E60521264806F03CF980E63D
:1053B00008B0BDEC048BBDE8F00F5DF810FB80B5C4
:1053C0002148FFF76EFE21492148FFF76AFE214878
:1053D000C18800918388428801881F48FFF761FED9
:1053E0001E48FFF75EFE1E491E48FFF75AFE04A046
:1053F000FFF757FEFFF74FFE01BD00002000000041
:105400000A0A00000CD600200ED60020D8D40020B6
:105410000FD6002044B4002010D600200DD6002066
:105420008CCF00200CD00020D4F103083CDE030810
:105430006CB90308BCC60308ECD200204C850308F5
:1054400000F30308DCF1030850E4030854DE03080A
:10545000E0D50308C4F103086CDE03086CCE030832
:10546000FCD50308E4F1030880B50121042005F010
:1054700061FD01214FF4807005F07AFD01215FF498
:10548000800005F057FD01214FF4807005F08CFD80
:1054900000214FF4807005F087FD01BDE0B50320C9
:1054A0008DF8040000208DF8070010200090694658
:1054B0006B4803F0AFFC07BD18B58FB0694C2000F6
:1054C00006F016FA200006F0EDFA0028FAD10020C6
:1054D00000906548019065480290002003900A20E2
:1054E0000490002005904FF4806006904FF4006017
:1054F00007904FF4005008904FF4807009905FF4CB
:1055000080300A9000200B9001200C9000200D901C
:1055100000200E906946200006F08CFA0121200040
:1055200006F0B2FA200006F0BDFA0128FAD110B058
:1055300010BD10B58AB0002006904FF4706009903D
:10554000002008905FF44030079006A806F04CFB5E
:105550000020009001208DF8040001208DF8050046
:1055600000200290002003900020049001208DF87C
:1055700014003F4C6946200006F010FB072301226F
:105580000E21200006F04FFB0121200006F0ECFB6D
:105590000121200006F0DAFB0121200006F035FB96
:1055A000200006F0CEFB0AB010BD80B5FFF75CFF0F
:1055B000FFF782FFFFF772FFFFF7BBFF01BDF0B4FB
:1055C00001000022002300200026022401250A2DCC
:1055D0001CD209263200AA4216D331F8126001EB20
:1055E000420737F8027CBE420CD201EB420636F885
:1055F000026C330031F8126001EB420727F8026CAD
:1056000021F81230521EE6E76D1CE0E72600D4F1C7
:105610000A05AE4204D231F816504019761CF6E75E
:105620006400D4F10A04B0FBF4F080B2F0BC70471F
:1056300018B585B0040000200A280BD20B4901EBF5
:1056400040012200D2B231F812106A4622F810103E
:10565000401CF1E76846FFF7B2FF06B010BD00003E
:1056600000080240706402404C2001409CD300209E
:105670000020014080B5FFF798FF01BD10B5002460
:105680000120FFF7D5FF0100080080B2B0F54D7F83
:1056900000D3641C2000C0B210BD0268531C03601C
:1056A0001170704780B586B00121102005F042FCD2
:1056B00002208DF8150001208DF8140000208DF8CF
:1056C000160001208DF817004FF48060049004A9A3
:1056D0004F4803F09FFB00200390002002904D48AC
:1056E000019004200090002380224B490FF2090012
:1056F000FDF7C4FF07B000BDF8B50400474D3220E8
:105700002880474E322030800A20FEF760F8454F4F
:105710003888401C388044480178012910D1434919
:105720000A68521C0A600A68414B1B689A4207D1FA
:1057300000220A600021017032202880322030804F
:1057400038882988884205D14FF48061304803F0B9
:10575000E2FBD9E738882988328812FA81F1884239
:10576000D2DB4FF480612A4803F0D7FB0020388059
:10577000CAE770B504000D001600002C46D02D4875
:105780000078042807DB33009BB22A0092B2210084
:105790002948FFF786FC14F1010F03D100202249AC
:1057A000087007E02248046001201F4908700020AB
:1057B0001E490860280080B2002809D14FF480619A
:1057C000134803F0A8FB13480068FEF73CF81DE0FF
:1057D000300080B2002809D14FF480610C4803F0FA
:1057E0009CFB0C480068FEF72EF80FE000200D49E6
:1057F00008804FF48061064803F08FFB074805805E
:105800000748068003480068FEF7A4F870BD000052
:1058100000100240ECD4002080E80308ECD5002002
:10582000EED50020F0D5002011D60020E8D40020CD
:10583000E4D400204200002098B90308F8B5002005
:10584000039000200290DFF84003019004200090B4
:1058500000238022DFF834130FF21500FDF70EFF4E
:1058600005B000BD0120DFF8281308707047000064
:105870007CB504000020FDF7E6FFDFF81853287818
:10588000002802D0012804D0F7E70020FDF7DBFF55
:10589000F3E74FF4FA60FEF7AEFF0220BE4908704E
:1058A00000F0D5FA012803D100208DF8000002E0B5
:1058B00001208DF800000020B84908600020B84998
:1058C000088000202870B24D287801280BD14CF2B6
:1058D000010601226946300006F0B8FA0122694645
:1058E000300006F0C0FA00202870AE480078042886
:1058F00004DB9DF80010AC48FFF7D3FBBDE738B5DB
:105900000124A44D287800280FD106F0B9FA01200F
:105910002870A4480078042802DBA448FFF7C1FBE4
:1059200099480068FEF716F808E09E4800780228BB
:1059300002DB9F48FFF7B5FB002004002000C0B247
:1059400032BD2DE9FE4F05000E001400944F2000DB
:10595000398880B2884240F08E80300080B2C12801
:105960007DDADFF83882D8F8000000282CD130002A
:1059700080B204281BDB5FF004090195DFF834A234
:10598000D3464A460199584601F0C4FF2D1D361FE3
:10599000D8F80000001DC8F80000824800780528EB
:1059A00012DBDAF800108448FFF77BFB0CE07D483F
:1059B0000078022802DB8148FFF773FB44F20800FD
:1059C000ADF80000009865E02A00310089B2D8F8EF
:1059D000000000F04FF9012835D1DFF8E4914A4684
:1059E000310089B2D8F8000000F028F9320092B2F4
:1059F0002900484606F054FA002818D1D8F80000CB
:105A000010FA86F0C8F8000066480078052807DB21
:105A10003B88320092B2D8F800106A48FFF741FB89
:105A20003888401C38800020ADF800002EE05D482A
:105A30000078022802DB6448FFF733FB44F20500DC
:105A4000ADF8000022E044F20400ADF80000554833
:105A5000007802281ADB5D48FFF723FB16E0514867
:105A60000078022802DB5A48FFF71BFB44F20800CB
:105A7000ADF800000AE04B480078022802DB5548E8
:105A8000FFF70FFB44F20900ADF800003888ADF8CD
:105A900002000098BDE8FE8F2DE9F84304000125BF
:105AA0000026200080B2002834D03C4F38680028FF
:105AB00030D05FF0040804223E49300080B206F086
:105AC00023FA81463868C12813D33868C038804526
:105AD0000FD23B4E3200C021404600F0AFF8C0224A
