type=LULC-S
mode=application
version =1.0.0.3 STD-2024.7.17
hash=7B53D70A600EBB66946E8F46C70B27D3
:020000040802F0
:1000000040D70020E5990308199D03081B9D0308AC
:100010001D9D03081F9D0308219D0308000000008B
:1000200000000000000000000000000061CE020897
:10003000239D03080000000009CE02086783020820
:1000400069A003086DA0030871A0030875A0030848
:1000500079A003087DA0030881A0030885A00308F8
:1000600089A003088DA00308714A030891A0030822
:1000700095A0030899A003089DA00308A1A0030868
:10008000A5A00308A9A00308ADA00308B1A0030818
:10009000B5A00308B9A00308BDA00308C1A00308C8
:1000A000E94B0308810E0308E70E0308C5A0030807
:1000B0005DA60208C9A0030885A60208CDA0030812
:1000C000D1A00308D5A00308D9A00308DDA0030828
:1000D000E1A0030851E40208E5A00308E9A0030831
:1000E00041760208EDA00308F1A00308ADA60208BE
:1000F000D5A60208614B0308F5A00308F9A0030880
:10010000FDA0030801A103089F4E030805A10308F1
:1001100009A103080DA10308F57402081B3D02089C
:1001200011A103088B49030815A1030819A10308AD
:100130001DA1030821A1030825A1030829A1030883
:100140002DA1030831A1030835A1030839A1030833
:100150003DA1030841A1030845A103086D940208CD
:1001600049A103084DA1030851A1030855A10308A3
:1001700059A103085DA1030861A1030865A1030853
:1001800069A103086DA1030871A10308E98A0208A7
:1001900075A1030879A103087DA1030881A10308C3
:1001A000000000000000000085A1030838B504002D
:1001B0000D002900200002F035FC002801D10120AB
:1001C00000E00020C0B232BDF8B50020039000204E
:1001D0000290DFF8280901900420009000234FF4DA
:1001E0008072DFF8341C0FF20D0002F05DFC05B0E8
:1001F00000BD000010B50400002002F03AFDDFF859
:10020000000900880121B0FBF1F002F0F6FCDFF8F4
:10021000F4080078002804D0012803D0032804D073
:10022000EDE7ECE703F052FCE9E703F087FDE6E7D2
:1002300038B504000D00DFF8D0186868FFF7B6FF86
:1002400000281DD0A868002814D0A86803F0ADFECF
:100250000A280FDBA86803F0A8FEDFF8A4180880BE
:100260000320DFF8A0180870DFF89008006802F09B
:1002700087FD2EE0A968DFF8940804F0EEF828E086
:10028000DFF88C186868FFF791FF002805D0DFF8C9
:100290006C08006802F0EDFC1BE0686800280CD0D8
:1002A000DFF870186868FFF781FF002805D140A1CA
:1002B0006868FFF77BFF00280BD0DFF85C0804F0CC
:1002C000CCF8DFF8580804F0C8F8DFF8500B04F059
:1002D000C4F8002032BD70B504000D000026DFF820
:1002E00040186868FFF762FF002809D004F0A2FBFD
:1002F00006003100C9B2DFF8240A04F0AEF817E0B6
:10030000686800280CD0DFF80C186868FFF74EFF0B
:10031000002805D126A16868FFF748FF002807D00C
:10032000DFF8200A04F099F8DFF8F80A04F095F8ED
:10033000F6B2300070BDF8B504000D006868002802
:100340001CD0A868002814D0E868002811D0E868FC
:1003500003F02BFE0600A86803F027FE070068687C
:1003600003F023FE320092B2390089B204F0DDFBC3
:100370001CE0DFF8D40904F070F817E06868002882
:100380000CD0DFF890176868FFF710FF002805D140
:1003900007A16868FFF70AFF002807D0DFF8AC095B
:1003A00004F05BF8DFF8800A04F057F80020F2BD93
:1003B0003F00000070B588B004000D00DFF8901910
:1003C0006868FFF7F3FE002802D004F074FCCFE069
:1003D000DFF880196868FFF7E9FE00281CD0A868DC
:1003E000002814D0E868002811D0286900280ED011
:1003F000286903F0DAFD0600E86803F0D6FD320054
:1004000092B2010089B2A86804F077FCB0E0DFF88E
:10041000380904F022F8ABE0DFF8181A6868FFF733
:10042000C5FE00280ED0A868002806D0A86803F0F2
:10043000BCFD80B204F00CFD9AE0DFF80C0904F07A
:100440000CF895E0DFF8F0196868FFF7AFFE0028B8
:100450002FD0A868002827D0E868002824D0684654
:100460001E2104F099FDE86803F09FFD0600A868CE
:1004700003F09BFD6A46310004F0BCFD3EA003F092
:10048000ECFF0026E86803F090FD864207DA684634
:10049000815DDFF8A80903F0E0FF761CF2E769460A
:1004A00036A003F0DAFF63E0DFF89C0803F0D5FF25
:1004B0005EE0DFF88C196868FFF778FE002807D047
:1004C00004F039FD80B201002DA003F0C6FF4FE01B
:1004D000DFF870196868FFF769FE002808D004F09B
:1004E00026FD0600310049B225A003F0B6FF3FE02B
:1004F000DFF854196868FFF759FE002802D004F0AD
:1005000012FD35E0686800280CD0DFF8081668682E
:10051000FFF74CFE002805D18FA16868FFF746FE63
:10052000002820D0DFF8240903F097FFDFF8200926
:1005300003F093FFDFF81C0903F08FFFDFF81809C1
:1005400003F08BFFDFF8140903F087FFDFF81009D1
:1005500003F083FFDFF80C0903F07FFFDFF80809E1
:1005600003F07BFF04E06968DFF8C80B03F075FF58
:10057000002008B070BD00000A0000000A257300CA
:1005800025640A0070B588B004000D00DFF8DC189F
:100590006868FFF70BFE002821D0A868002819D052
:1005A000E868002816D02869002813D0E86803F00E
:1005B000FCFC0600A86803F0F8FC2A69310004F08E
:1005C000FEFEA86803F0F1FC0100DFF8A40803F0C8
:1005D00044FFBDE0DFF8700703F03FFFB8E0DFF84D
:1005E00074176868FFF7E2FD002821D0A86800288A
:1005F00019D0E868002816D02869002813D0E868C8
:1006000003F0D3FC0600A86803F0CFFC2A69310090
:1006100004F050FFA86803F0C8FC0100DFF85008A0
:1006200003F01BFF94E0DFF8200703F016FF8FE0D4
:10063000DFF804186868FFF7B9FD002834D0A8680F
:1006400000282CD0E868002829D068461E2104F034
:10065000A3FCE86803F0A9FC0600A86803F0A5FC69
:100660006A46310004F094FEA86803F09EFC010085
:10067000DFF8C40A03F0F1FE0026E86803F095FCF9
:10068000864207DA6846815DDFF8B00703F0E5FED1
:10069000761CF2E7694680A003F0DFFE58E0DFF841
:1006A000A80603F0DAFE53E0DFF8A4166868FFF747
:1006B0007DFD002815D0A86800280DD0A86803F09B
:1006C00074FC04F054FEA86803F06FFC0100DFF82E
:1006D000700A03F0C2FE3BE0DFF86C0603F0BDFEDB
:1006E00036E08DA16868FFF761FD002806D0DFF8CD
:1006F000541ADFF8540A03F0B0FE29E068680028B5
:100700000CD0DFF810146868FFF750FD002805D101
:1007100011A16868FFF74AFD002814D0DFF82C0A01
:1007200003F09BFEDFF8280A03F097FEDFF8240AA7
:1007300003F093FEDFF8200A03F08FFEDFF81C0AB7
:1007400003F08BFE04E06968DFF8E80903F085FE3A
:10075000002008B070BD00003F00000038B5040064
:100760000D0004F052FF002005F046FB05F0C8FB29
:1007700005F0B8FF03F0B3F8002032BD70B50400F7
:100780000D0075A16868FFF711FD00280DD0A8685D
:10079000002805D0A86803F008FC05F02DFB79E0DF
:1007A000DFF8BC0903F059FE74E0DFF8B819686897
:1007B000FFF7FCFC002816D0A86800280ED0A86817
:1007C00003F0F3FB012809DBA86803F0EEFB01004E
:1007D0000120491E884005F00FFB5BE0DFF880092F
:1007E00003F03BFE56E0DFF880196868FFF7DEFC97
:1007F000002803D0002005F0FFFA4BE057A16868FD
:10080000FFF7D4FC002808D005F02FFB06003100CC
:10081000DFF8580903F021FE3CE0DFF8541968685E
:10082000FFF7C4FC002808D005F0E4FA80B201000C
:10083000DFF8400903F011FE2CE0686800280BD0B7
:10084000B4496868FFF7B2FC002805D144A1686884
:10085000FFF7ACFC00281DD0DFF81C0903F0FDFDFC
:10086000DFF81819DFF8180903F0F7FD05F0C2FAF0
:1008700080B20100DFF80C0903F0EFFDDFF8080992
:1008800003F0EBFDDFF8040903F0E7FDDFF85C0C93
:1008900003F0E3FD002070BD0A25730070B504006D
:1008A0000D006868002818D0686803F07EFB060019
:1008B00004F06AFF864206DA686803F076FBDFF828
:1008C000D018087025E004F05FFF80B2401E0100E0
:1008D000DFF8C00803F0C1FD1BE0686800280BD0FA
:1008E0008C496868FFF762FC002805D11CA1686884
:1008F000FFF75CFC00280CD0DFF89C0803F0ADFD8E
:1009000004F042FF010089B2491EDFF8E40B03F056
:10091000A4FD002070BD0000656E6400F8B5040001
:100920000D00DFF86C68307805F0B6F90700380084
:10093000C0B2002802D0012806D00AE03178DFF8E2
:100940005C0803F08AFD04E03178DFF8A80B03F0BF
:1009500084FD0020F2BD00006D61700067657400C9
:100960003F0000002DE9F0472DED028B82B004001E
:100970000D005FA16868FFF719FC002839D0A8684E
:10098000002832D0DFF808683078022820D1A86823
:1009900005F089FF51EC100B05F08AFF00EE100AFC
:1009A000022005F023F8A86805F07DFF51EC100B3C
:1009B00005F07EFF00EE100A05F0AEFFA86805F016
:1009C00072FF53EC102BDFF8300B03F046FD89E08B
:1009D000A86805F068FF51EC100B05F069FF00EE08
:1009E000100A307805F002F87CE0D74803F035FDB6
:1009F00078E040A16868FFF7D9FB002816D0DFF83F
:100A00009067307804F09EFEB0EE408A3178DFF8CF
:100A1000EC0A03F022FD0821B0EE480A012003F0A1
:100A2000F6F8DFF8DC0A03F018FD5BE068680028E0
:100A30000BD038496868FFF7B9FB002805D12EA113
:100A40006868FFF7B3FB00280CD0DFF8B80A03F0A2
:100A500004FDDFF8B40A03F000FDDFF8B40A03F088
:100A6000FCFC3FE0DFF8AC1A6868FFF79FFB00284A
:100A700033D068460021016000200190DFF8986AB9
:100A8000A86803F092FA07003800C0B202280ADB17
:100A90006A4604213B00DBB2DFF8800A10EB8300DA
:100AA00004F076FC07E06A4604213800C0B216EB79
:100AB000800004F06DFC5FF00408E9460DF1040AC3
:100AC00042464946504606F007F9019A3900C9B234
:100AD000DFF84C0A03F0C1FC04E06968DFF8540653
:100AE00003F0BBFC002002B0BDEC028BBDE8F08738
:100AF00073657400676574003F00000004D2002035
:100B000008D3002029D30020B09D03084891030892
:100B1000B89D0308589D0308E47703083885030847
:100B2000C09D030870B52DED048B05000E0083A158
:100B30007068FFF73BFB002832D0B06800282BD04C
:100B4000F068002828D0F06805F0ADFEB0EE408ACD
:100B5000F0EE608AB06805F0A6FEB0EE409AF0EEC6
:100B6000609A00210C0051EC180B05F0A1FE00EE7C
:100B7000900A2100B0EE608A0C0051EC190B05F0D0
:100B800097FE00EE100A2100F0EE480ADFF800069A
:100B9000007804F0FBFDBCE06B4803F05EFCB8E0BD
:100BA00067A17068FFF702FB002822D0DFF8E0455C
:100BB000207804F062FDB0EE408AF0EE608A217881
:100BC000DFF8600903F049FC0421B0EE480A012077
:100BD00003F01DF8DFF8500903F03FFC0421B0EEEC
:100BE000680A012003F013F8DFF8400903F035FC30
:100BF0008FE0DFF83C197068FFF7D8FA002832D090
:100C0000B06800282BD0F068002828D0F06805F0E4
:100C10004AFEB0EE408AF0EE608AB06805F043FE0E
:100C2000B0EE409AF0EE609A01210C0051EC180BE6
:100C300005F03EFE00EE900A2100B0EE608A0C0046
:100C400051EC190B05F034FE00EE100A2100F0EE15
:100C5000480ADFF83C05007804F098FD59E03A486E
:100C600003F0FBFB55E0DFF8CC187068FFF79EFA45
:100C7000002808D005F07DFE04002100DFF8B80848
:100C800003F0EBFB45E0DFF8B4187068FFF78EFA6D
:100C9000002810D0B06800283BD0B06803F085F978
:100CA00005F07BFEB06803F080F90100DFF89008E2
:100CB00003F0D3FB2DE0706800280CD0DFF8841817
:100CC0007068FFF773FA002805D155A17068FFF727
:100CD0006DFA002818D0DFF8700803F0BEFBDFF8CB
:100CE0006C0803F0BAFBDFF8680803F0B6FBDFF826
:100CF000640803F0B2FBDFF8600803F0AEFBDFF836
:100D00005C0803F0AAFB04E07168DFF8280403F034
:100D1000A4FB0020BDEC048B70BD00005C910308B7
:100D200038B504000D0004F02FFD80B20100DFF89B
:100D3000740C03F092FB002032BD00007365740058
:100D4000676574000878030874950308747F0308C6
:100D5000C89D0308D09D030870B52DED028B0400DB
:100D60000D00DFF8FC176868FFF720FA002816D09E
:100D7000A86800280ED0A86805F095FD51EC100B6E
:100D800005F096FD00EE100ADFF80404007804F088
:100D900023FF3CE0DFF8CC0703F05FFB37E023A143
:100DA0006868FFF703FA002815D0DFF8E4633078AD
:100DB00004F044FCB0EE408A3178DFF8AC0703F071
:100DC0004CFB0421B0EE480A012002F020FF18A0DD
:100DD00003F043FB1BE0686800280CD0DFF86417C1
:100DE0006868FFF7E3F9002805D10DA16868FFF7EF
:100DF000DDF900280BD0DFF8B00B03F02EFBDFF895
:100E0000AC0B03F02AFBDFF8A80B03F026FB002055
:100E1000BDEC028B70BD0000849A03085485030862
:100E20003F0000002C7803085072030867657400C7
:100E3000206D6C00D89D0308E09D0308E89D030821
:100E4000F09D0308F89D0308009E030870850308C1
:100E50008495030850780308747803089878030889
:100E6000BC780308E078030804790308909A030823
:100E7000849103082DE9F8432DED068B06000F0041
:100E80005FF00008DFF82C1B7868FFF78FF9002867
:100E900006D1A5A421007868FFF788F9002804D0BE
:100EA00001208046002005009FE0DFF80C1B7868D9
:100EB000FFF77CF9002807D10FF2702949467868BE
:100EC000FFF774F9002804D00120804601200500B6
:100ED0008BE097A17868FFF769F9002800F085801A
:100EE0002100B868FFF762F900283CD0386905F0A6
:100EF000DAFCB0EE408AF0EE608A786905F0D3FC47
:100F0000B0EE409AF0EE609AF86805F0CCFCB0EED6
:100F100040AAF0EE60AA0020040051EC180B05F086
:100F2000C7FC01EE100A2000B0EE418A040051EC2B
:100F3000190B05F0BDFC00EE900A2000B0EE481A37
:100F4000B0EE608AF0EE418A040051EC1A0B05F015
:100F5000AFFC00EE100A2000B0EE681AF0EE480A6E
:100F600005F08CFD41E04946B868FFF71FF90028FD
:100F70003BD0386905F097FCB0EE408AF0EE608A0D
:100F8000786905F090FCB0EE409AF0EE609AF8684F
:100F900005F089FCB0EE40AAF0EE60AA0120040042
:100FA00051EC180B05F084FC01EE100A2000B0EEA5
:100FB000418A040051EC190B05F07AFC00EE900A0E
:100FC0002000B0EE481AB0EE608AF0EE418A0400CC
:100FD00051EC1A0B05F06CFC00EE100A2000B0EE8C
:100FE000681AF0EE480A05F049FD4046C0B20128F3
:100FF0005CD1B868002854D0F86800283ED0386921
:1010000000283BD0386905F04EFCB0EE408AF0EE87
:10101000608AF86805F047FCB0EE409AF0EE609AFE
:10102000DFF86C9101210C0051EC180B05F040FC2D
:1010300000EE900A2100B0EE608A0C0051EC190B12
:1010400005F036FC00EE100A2100F0EE480A99F88F
:10105000000004F09BFBB86805F025FC0322140097
:1010600051EC100B05F024FC00EE100A22002900C0
:10107000C9B299F8000004F017FD50E0B86805F017
:1010800012FC0222140051EC100B05F011FC00EED2
:10109000100A22002900C9B23D48007804F004FD7E
:1010A0003DE0DFF8C00403F0D8F938E0DFF81019AC
:1010B0007868FFF77BF8002804D03548007804F002
:1010C00051FD2CE0786800280CD0DFF8781478689F
:1010D000FFF76CF8002805D118A17868FFF766F8CB
:1010E000002818D0DFF8DC0803F0B7F9DFF8D808DB
:1010F00003F0B3F9DFF8D40803F0AFF9DFF8D00854
:1011000003F0ABF9DFF8CC0803F0A7F9DFF8C80863
:1011100003F0A3F903E07968064803F09EF9002084
:10112000BDEC068BBDE8F2836500000064000000A2
:101130007300000070910308949503083F000000BD
:10114000A4950308740101089C9A0308947F03087E
:10115000606C03088C6C0308B86C0308E46C03082B
:10116000B4950308089E0308A89A030898910308F9
:10117000109E0308B49A0308B47F0308FFFF010020
:101180005C580308B863030878720308F063030827
:1011900028D30020FC8B0308D47F0308C4950308E0
:1011A00070B52DED028B04000D00DFF83018686873
:1011B000FEF7FCFF002824D0A86805F074FB51EC72
:1011C000100B0022002305F0DBFD14D8A86805F001
:1011D0006AFB51EC100B0122DFF84C3B05F0E8FDF7
:1011E00009D2E86802F0E1FE002800F17881E868A1
:1011F00002F0DBFE73E1A968DFF8B80B03F02DF90C
:101200006DE1DFF8281B6868FEF7D0FF002812D0D8
:10121000A86802F0CAFE01230200D2B20021002019
:1012200005F0D0FE002840F05A81E968DFF8840B11
:1012300003F013F953E1ACA16868FEF7B7FF00288B
:1012400016D0E86802F0B1FE0600A86802F0ADFE14
:10125000320092B20100C9B2002005F058FF002808
:1012600040F03D81E968DFF84C0B03F0F6F836E119
:10127000DFF8441B6868FEF799FF002816D0E8687D
:1012800002F093FE0600A86802F08FFE320092B2D0
:101290000100C9B2002005F0B5FF002840F01F8111
:1012A000E968DFF8100B03F0D8F818E1DFF8101741
:1012B0006868FEF77BFF00281BD0A86802F075FE67
:1012C000002810D4A86802F070FE02280BDAA86883
:1012D00002F06BFEC0B206F00FF8A968DFF8E00A72
:1012E00003F0BBF8FBE0A968DFF8C80A03F0B5F823
:1012F000F5E0DFF8D01A6868FEF758FF00281CD028
:10130000A86802F052FE002811D4A86802F04DFE31
:1013100001280CDAA86802F048FEC0B205F014FEFD
:10132000C0B20100DFF8A00A03F097F8D7E0A9687F
:10133000DFF8800A03F091F8D1E0DFF8901A6868CE
:10134000FEF734FF002820D0A86802F02EFE002807
:1013500015D4A86802F029FE022810DAA86802F065
:1013600024FEC0B206F080F810EE100A06F0C4F9B0
:1013700002000B00DFF8580A03F06FF8AFE0A9682D
:10138000DFF8300A03F069F8A9E0DFF8481A686866
:10139000FEF70CFF002820D0A86802F006FE002807
:1013A00015D4A86802F001FE022810DAA86802F03D
:1013B000FCFDC0B206F034F810EE100A06F09CF9FD
:1013C00002000B00DFF8080A03F047F887E0A9687D
:1013D000DFF8E00903F041F881E0DFF8FC19686804
:1013E000FEF7E4FE002845D0A86805F05CFA51EC51
:1013F000100B0022DFF8E43905F0C2FC34D8A868ED
:1014000005F051FA51EC100B0122DFF8D43905F048
:10141000CFFC29D2E86802F0C8FD00281ED4E86895
:1014200002F0C3FD022819DAA86805F03CFAB0EE14
:10143000408AF0EE608AE86802F0B7FD060051ECE1
:10144000180B05F035FA00EE100A3000C0B205F0B6
:1014500087FFDFF8900903F000F840E0E968DFF863
:10146000540902F0FAFF3AE0A968DFF8480902F0EF
:10147000F4FF34E0686800280BD032496868FEF752
:1014800095FE002805D121A16868FEF78FFE00288F
:1014900020D0DFF8300502F0E0FFDFF86C0B02F03F
:1014A000DCFFDFF8680B02F0D8FFDFF8640B02F016
:1014B000D4FFDFF8600B02F0D0FFDFF85C0B02F026
:1014C000CCFFDFF8580B02F0C8FFDFF8540B02F036
:1014D000C4FF04E06968DFF8DC0802F0BEFF00200A
:1014E000BDEC028B70BD00006469720028640308C3
:1014F000E8530308D4950308148C0308E495030803
:10150000C09A030828790308EC5403083F00000040
:1015100094550308189E030864000108E0000108C0
:10152000F495030804960308AC910308209E030871
:10153000CC9A0308289E03088C850308309E030874
:10154000A8850308589D0308106D0308004F030881
:10155000D452030824500308E45503083456030802
:10156000389E0308749503082496030870B52DED82
:10157000068B04000D00DFF8B01A6868FEF716FE4F
:10158000002853D0A86800284BD0E868002848D02D
:101590002869002845D06869002842D0A86802F070
:1015A00004FDC0B204F0C6FD686905F07CF9B0EE38
:1015B000408AF0EE608A286905F075F9B0EE409A2D
:1015C000F0EE609AE86805F06EF9B0EE40AAF0EE31
:1015D00060AAA86802F0E9FC060051EC180B05F0BF
:1015E00067F901EE100AB0EE418A51EC190B05F0D3
:1015F0005FF900EE900AB0EE481AB0EE608AF0EEA5
:10160000418A51EC1A0B05F053F900EE100AB0EEC6
:10161000681AF0EE480A00213000C0B204F017FD4D
:10162000BCE1DFF8080A02F018FFB7E1DFF8001AA2
:101630006868FEF7BBFD002853D0A86800284BD08F
:10164000E868002848D02869002845D06869002843
:1016500042D0A86802F0A9FCC0B204F06BFD686932
:1016600005F021F9B0EE408AF0EE608A286905F0B5
:101670001AF9B0EE409AF0EE609AE86805F013F9B6
:10168000B0EE40AAF0EE60AAA86802F08EFC060058
:1016900051EC180B05F00CF901EE100AB0EE418A7E
:1016A00051EC190B05F004F900EE900AB0EE481A5F
:1016B000B0EE608AF0EE418A51EC1A0B05F0F8F8B2
:1016C00000EE100AB0EE681AF0EE480A0121300070
:1016D000C0B204F0BCFC61E1DFF8500902F0BDFECD
:1016E0005CE1DFF850196868FEF760FD002853D010
:1016F000A86800284BD0E868002848D0286900284E
:1017000045D06869002842D0A86802F04EFCC0B2FB
:1017100004F010FD686905F0C6F8B0EE408AF0EEFE
:10172000608A286905F0BFF8B0EE409AF0EE609A42
:10173000E86805F0B8F8B0EE40AAF0EE60AAA86834
:1017400002F033FC060051EC180B05F0B1F801EE85
:10175000100AB0EE418A51EC190B05F0A9F800EE21
:10176000900AB0EE481AB0EE608AF0EE418A51EC71
:101770001A0B05F09DF800EE100AB0EE681AF0EEB4
:10178000480A02213000C0B204F061FC06E1DFF833
:101790009C0802F062FE01E1DFF89C186868FEF721
:1017A00005FD002853D0A86800284BD0E868002821
:1017B00048D02869002845D06869002842D0A86828
:1017C00002F0F3FBC0B204F0B5FC686905F06BF8F9
:1017D000B0EE408AF0EE608A286905F064F8B0EE59
:1017E000409AF0EE609AE86805F05DF8B0EE40AA25
:1017F000F0EE60AAA86802F0D8FB060051EC180BC6
:1018000005F056F801EE100AB0EE418A51EC190BC2
:1018100005F04EF800EE900AB0EE481AB0EE608A7D
:10182000F0EE418A51EC1A0B05F042F800EE100A76
:10183000B0EE681AF0EE480A03213000C0B204F09E
:1018400006FCABE0DFF8E40702F007FEA6E05C4927
:101850006868FEF7ABFC002814D0A86800280CD0FC
:10186000A86802F0A2FBC0B204F064FCA86802F011
:101870009CFBC0B204F0B0FC90E0DFF8B00702F0CF
:10188000ECFD8BE0DFF8981A6868FEF78FFC002803
:101890002AD0A868002822D0A86802F086FBC0B22F
:1018A00004F0B4FB06003000C0B200280BD1A868D9
:1018B00002F07BFBC0B204F0FBFA0100DFF8640A1F
:1018C00002F0CBFD6AE0A86802F06FFBC0B204F042
:1018D000EFFA0100DFF8500A02F0BFFD5EE0DFF82A
:1018E0004C0702F0BAFD59E0DFF8401A6868FEF7CD
:1018F0005DFC002805D00321DFF8340A02F0ADFDBD
:101900004CE0686800280CD0DFF8281A6868FEF7F9
:101910004DFC002805D129A16868FEF747FC002886
:1019200037D0DFF8140A02F098FDDFF8100A02F051
:1019300094FDDFF80C0A02F090FDDFF8080A02F0CF
:101940008CFD022002F045F9DFF8FC0902F085FD6C
:10195000DFF8F80902F081FDDFF8F40902F07DFDFF
:10196000DFF8F00902F079FD0A2002F032F90026D2
:101970003000C0B2032811DA3000C0B204F098FA87
:1019800002003100C9B2DFF8D00902F066FD761C12
:10199000EEE76968DFF81C0402F05FFD0020BDEC93
:1019A000068B70BD149603084C790308A4580308ED
:1019B000246A0308409E0308489E03083F00000075
:1019C000B89D0308F47F030888500308B451030846
:1019D0003C6D0308EC580308285E0308B09D03081B
:1019E0002DE9F0412DED088B05000E009FEDCABAE0
:1019F000CAA421007068FEF7D9FB002823D0B06884
:101A000000281AD0B06802F0D0FAC0B205F0FAFE91
:101A1000B0EE408AB06802F0C8FAC0B205F090FE9D
:101A2000040018EE100A05F067FE02000B0021000A
:101A3000DFF8280902F011FD68E1B168DFF87403EE
:101A400002F00BFD62E1B6A17068FEF7AFFB002863
:101A50000CD005F007FF10EE100A05F04DFE020055
:101A60000B00DFF8FC0802F0F8FC4FE1ADA1706854
:101A7000FEF79CFB00283AD005F0F4FE10EE100AA9
:101A800005F03AFE02000B00DFF8D40802F0E5FC96
:101A900000273800C0B2032819DAB7EE008A3800F0
:101AA000C0B204F0ABFDF0EE408A3800C0B204F0E2
:101AB000FFF9040018EE900A05F01EFE02000B006C
:101AC0002100DFF8340B02F0C8FC7F1CE1E70320A3
:101AD00005F098FEB0EE40BA1BEE100A05F00CFEC1
:101AE00002000B00DFF8140B02F0B7FC0EE1DFF888
:101AF000101B7068FEF75AFB002806D0B06802F091
:101B000054FAC0B206F0B8F900E1DFF8F81A7068CC
:101B1000FEF74CFB00281CD00A2002F05AF80024E3
:101B20002000C0B2092880F2F18000272000C0B256
:101B300006F011FA8046424692B22100C9B2491C11
:101B4000DFF8080B02F089FC0A2002F042F8641C5E
:101B5000E6E7DFF8FC1A7068FEF728FB002800F0C3
:101B60008F802100B068FEF721FB00283ED0F0688E
:101B7000002836D0F06802F018FAC0B205F0E7FD90
:101B8000F0EE409AB0EE60AAF0EE41AADFF8240B26
:101B9000007804280ADBF06802F007FAC0B205F00A
:101BA000CFFD0100DFF8100B02F057FC0821B0EE6A
:101BB000690A012002F02BF8DFF8000B02F04DFC5F
:101BC0000821B0EE4A0A012002F021F8DFF8280BC4
:101BD00002F043FC0821B0EE6A0A012002F017F877
:101BE00094E0DFF8340B02F038FC8FE070A1B068AD
:101BF000FEF7DCFA002800F08980F06800283AD06F
:101C00003069002837D07069002834D0B0690028C6
:101C100031D0306904F047FE51EC100B04F048FE5F
:101C200000EE100AB0EE408A706904F03CFE51EC00
:101C3000100B04F03DFE00EE100AF0EE408AB06991
:101C400004F031FE51EC100B04F032FE00EE100AED
:101C5000B0EE409AF06802F0A8F9B0EE480AF0EE53
:101C6000680AB0EE491AC0B205F09BFDDFF8DC0A45
:101C700002F0F3FB4AE0DFF8A00A02F0EEFB45E0D9
:101C8000706800280CD0DFF8AC167068FEF78EFA8A
:101C9000002805D149A17068FEF788FA002831D0E4
:101CA000DFF8AC0A02F0D9FBDFF8A80A02F0D5FB96
:101CB000DFF8A40A02F0D1FBDFF8A00A02F0CDFBA6
:101CC000DFF89C0A02F0C9FBDFF8980A02F0C5FBB6
:101CD000DFF8240B02F0C1FBDFF8200B02F0BDFBA4
:101CE00000242000C0B2052810DA2000C0B205F0A0
:101CF00027FD02002100C9B2DFF85C0602F0ADFB4F
:101D0000641CEEE771682B4802F0A7FB0020BDECD5
:101D1000088BBDE8F08100000000000067657400DA
:101D2000656E7600616C6C000088B340509E0308BD
:101D300038B504000D006868002819D0686804F000
:101D4000B2FD51EC100B0022002305F019F80FD85A
:101D5000686804F0A8FD51EC100B04F0A9FD00EE3A
:101D6000100A04F0D9FADFF8E40902F076FB1CE06F
:101D7000686800280CD0DFF8BC156868FEF716FA12
:101D8000002805D10DA16868FEF710FA002808D0D8
:101D9000DFF8F00A02F061FBDFF8EC0A02F05DFB0D
:101DA00003E06968034802F058FB002032BD0000E0
:101DB0007365740070910308589E03083F0000008B
:101DC000609E0308D89A030834960308E49A03082F
:101DD00044960308F09A0308FC9A030800407FC069
:101DE00000407F40C091030870B52DED048B0400C6
:101DF0000D0083A16868FEF7D9F900286ED0A868A5
:101E0000002866D0A86802F0D0F8C0B204F062FBE7
:101E1000B0EE408AF0EE608AB0EE419AA86802F017
:101E2000C4F800282AD1DFF88C08007804280ADBDF
:101E3000A86802F0BAF8C0B204F03AF80100DFF87E
:101E40004C0A02F00AFB0821B0EE480A012001F01A
:101E5000DEFEDFF8C00A02F000FB0821B0EE680ADF
:101E6000012001F0D4FEDFF8B00A02F0F6FA0821F2
:101E7000B0EE490A012001F0CAFEBCE0DFF83408E8
:101E8000007804280ADBA86802F08FF8C0B204F0DA
:101E90000FF80100DFF8840A02F0DFFA0821B0EE43
:101EA000480A012001F0B3FEDFF8100802F0D5FA6D
:101EB0000821B0EE680A012001F0A9FEDFF8380819
:101EC00002F0CBFA0821B0EE490A012001F09FFE92
:101ED00091E0DFF8440802F0C0FA8CE049A168689C
:101EE000FEF764F9002842D0A86800283AD0E868D4
:101EF000002837D02869002834D06869002831D0FC
:101F0000E86804F0D0FC51EC100B04F0D1FC00EEBA
:101F1000100AB0EE408A286904F0C5FC51EC100BA1
:101F200004F0C6FC00EE100AF0EE408A686904F086
:101F3000BAFC51EC100B04F0BBFC00EE100AB0EE42
:101F4000409AA86802F031F8B0EE480AF0EE680A4C
:101F5000B0EE491AC0B204F0FBFADFF8F00702F065
:101F60007CFA48E0DFF8B00702F077FA43E06868EF
:101F700000280CD0DFF8BC136868FEF717F90028BA
:101F800005D128A16868FEF711F900282ED0DFF8E6
:101F9000900902F062FADFF88C0902F05EFADFF8CD
:101FA000880902F05AFA0A2001F013FE00263000D8
:101FB000C0B203280CDA3000C0B203F079FF02008F
:101FC0003100C9B2DFF8900302F047FA761CEEE761
:101FD000E14EDFF858290321300002F03EFADFF825
:101FE00050290421300002F038FA04E06968DFF873
:101FF000440902F032FA0020BDEC048B70BD0000F1
:10200000676574007365740070790308C4850308FC
:10201000148003088866030834590308686D0308B0
:10202000947903083F000000689E03087495030834
:10203000709E0308089B0308789E030870B52DED79
:10204000048B82B004000D00B2A16868FEF7AEF800
:1020500000283AD0A868002831D0A86801F0A5FF70
:10206000C0B203F064FFB0EE408AF0EE608AB0EEDA
:10207000419AA86801F099FFC0B203F019FF01006E
:10208000DFF8B40802F0E9F90321B0EE480A0120B4
:1020900001F0BDFDDFF8A40802F0DFF90321B0EE86
:1020A000680A012001F0B3FDDFF8940802F0D5F9C9
:1020B0000321B0EE490A012001F0A9FD24E1A9683D
:1020C000DFF8700802F0C9F91EE193A16868FEF715
:1020D0006DF8002849D0A86800283CD0E86800289E
:1020E00039D02869002836D06869002833D0E868DC
:1020F00004F0D9FB51EC100B04F0DAFB00EE100AEF
:10210000B0EE408A286904F0CEFB51EC100B04F0CD
:10211000CFFB00EE100AF0EE408A686904F0C3FBC2
:1021200051EC100B04F0C4FB00EE100AB0EE409A24
:10213000A86801F03AFFB0EE480AF0EE680AB0EE87
:10214000491AC0B203F021FFC0B20100DFF8F40762
:1021500002F083F9D8E0686900902B69EA68A96801
:10216000DFF8E40702F079F9CEE0DFF8E0176868FD
:10217000FEF71CF800283AD0A868002831D0A868DB
:1021800001F013FFC0B204F057F8B0EE408AF0EE51
:10219000608AB0EE419AA86801F007FFC0B203F070
:1021A00087FE0100DFF8900702F057F90321B0EE37
:1021B000480A012001F02BFDDFF8800702F04DF9FD
:1021C0000321B0EE680A012001F021FDDFF870075D
:1021D00002F043F90321B0EE490A012001F017FD96
:1021E00092E0A968DFF84C0702F037F98CE0DFF8DD
:1021F00060176868FDF7DAFF002849D0A868002852
:102200003CD0E868002839D02869002836D06869B1
:10221000002833D0E86804F046FB51EC100B04F0C2
:1022200047FB00EE100AB0EE408A286904F03BFB41
:1022300051EC100B04F03CFB00EE100AF0EE408A6B
:10224000686904F030FB51EC100B04F031FB00EE38
:10225000100AB0EE409AA86801F0A7FEB0EE480A56
:10226000F0EE680AB0EE491AC0B204F013F8C0B23A
:102270000100DFF8D00602F0F0F845E06869009050
:102280002B69EA68A968DFF8C00602F0E6F83BE0CF
:10229000686800280BD027496868FDF787FF002889
:1022A00005D11EA16868FDF781FF002827D0DFF85F
:1022B000A40602F0D2F8DFF8A00602F0CEF8DFF8AC
:1022C0009C0602F0CAF8DFF8980602F0C6F8DFF8BC
:1022D000940602F0C2F80A2001F07BFC00263000D0
:1022E000C0B2032810DA3000C0B203F0E1FD0200F2
:1022F0003100C9B2184802F0B0F8761CEFE76968FF
:10230000DFF8300602F0A9F8002002B0BDEC048B23
:1023100070BD000067657400736574003F000000C5
:10232000809E03082C8C0308448C0308889E0308B5
:102330005C8C0308589D030834800308BC660308BE
:10234000F066030824670308586703088C670308CE
:10235000C0670308F46703085496030864960308EB
:10236000748C030870B52DED028B05000E00DFF8AC
:10237000F8157068FDF71AFF002843D0B0680028F0
:102380003AD0F068002837D0B06801F00EFEC0B235
:1023900004F0BDF90100DFF8D40502F05EF8F06842
:1023A00004F081FA03210C0053EC102B0020DFF81D
:1023B000C01505F0EDFD04F07BFA00EE100A2100D7
:1023C000012001F024FCA0A002F047F8F06804F01E
:1023D0006AFAB0EE408AF0EE608AB06801F0E5FD7E
:1023E000040051EC180B04F063FA00EE100A200010
:1023F000C0B204F0C7F9FBE0B168DFF8380502F0BD
:102400002CF8F5E0DFF86C157068FDF7CFFE0028BA
:102410001CD0B068002813D0B06801F0C6FDC0B26F
:1024200004F075F90100DFF8500502F016F8B06805
:1024300001F0BBFD9FED9E0AC0B204F0A3F9D7E006
:10244000B168DFF8F00402F008F8D1E0DFF82C15ED
:102450007068FDF7ABFE00281AD0B068002811D0D4
:10246000B06801F0A2FDC0B204F051F90100DFF83C
:10247000100501F0F2FFB06801F097FDC0B204F062
:102480004DF9B5E0B168DFF8AC0401F0E6FFAFE06C
:10249000DFF8F0147068FDF789FE002843D0B068BB
:1024A00000283AD0F068002837D0B06801F07DFDF0
:1024B000C0B204F02CF90100DFF8CC0401F0CDFF2C
:1024C000F06804F0F0F903210C0053EC102B00200D
:1024D000DFF89C1405F05CFD04F0EAF900EE100A48
:1024E0002100012001F093FB57A001F0B6FFF06836
:1024F00004F0D9F9B0EE408AF0EE608AB06801F0DD
:1025000054FD040051EC180B04F0D2F900EE100A4F
:102510002000C0B204F08AF96AE0B168DFF8140460
:1025200001F09BFF64E0DFF864147068FDF73EFE85
:1025300000281AD0B068002811D0B06801F035FD2D
:10254000C0B204F0E4F80100DFF8440401F085FFB4
:10255000B06801F02AFDC0B204F044F948E0B16867
:10256000DFF8D00301F079FF42E0706800280CD05A
:10257000DFF820147068FDF719FE002805D172A15C
:102580007068FDF713FE00282DD0DFF80C0401F071
:1025900064FF0221DFF8040401F05FFFDFF80004AC
:1025A00001F05BFFDFF8FC0301F057FFDFF8F803F1
:1025B00001F053FFDFF8F40301F04FFF0024200087
:1025C000C0B2022814DA2000C0B204F0A0F8020061
:1025D0002100C9B2DFF8D80301F03FFF012001F06C
:1025E000F8FA641CEBE77168DFF8480301F035FF87
:1025F0000020BDEC028B70BDE0850308FC8503085C
:10260000909E0308989E030870B504000D00DFF843
:10261000A40301F022FFDFF8A00301F01EFFDFF8A2
:102620009C63306800280DD00A2001F0D2FAB0680F
:10263000002805D0B2683168DFF8840301F00DFF8F
:102640000C36EEE7002070BD202525001886030813
:10265000A09E03083EB504000D0005F06BFD02903E
:1026600005F06DFD0190DFF85C03C188009183885F
:1026700042880188DFF8500301F0EFFE9DF80B005F
:1026800000909DF80A309DF809209DF80810CF4869
:1026900001F0E3FE9DF8070000909DF806309DF8DC
:1026A00005209DF80410CA4801F0D7FE00203EBD69
:1026B000000000003E00002054800308149B030823
:1026C00038B504000D0002F056F8002032BDF8B510
:1026D00004000D000026BF4801F0BFFE0127A742FD
:1026E00007DA55F827203900BB4801F0B6FE7F1CF9
:1026F000F5E70020F2BD0000209B030838B5040078
:102700000D0081A001F0A9FE0A2001F062FA01F09B
:102710007AFA002032BD00007496030838B5040030
:102720000D006868002806D0686801F03EFCC0B261
:1027300005F00EFD06E005F00EFD0100C9B2A74848
:1027400001F08BFE002032BD3F0000002C9B0308EF
:1027500074800308946D0308C06D0308EC6D0308D2
:10276000186E0308446E030870B504000D0067A1DD
:102770006868FDF71BFD00281FD000263000C0B29E
:10278000032837DA3000C0B205F012FD002809D066
:102790009348007804280EDB3100C9B2914801F05B
:1027A0005CFE08E08E480078042804DB3100C9B2E2
:1027B0008D4801F052FE761CE0E7686800280BD0D7
:1027C00074496868FDF7F2FC002805D150A16868DB
:1027D000FDF7ECFC002809D0844801F03EFE844857
:1027E00001F03BFE834801F038FE03E06968514880
:1027F00001F033FE002070BD145203088456030814
:102800002DE9F04104000D0040A16868FDF7CEFC01
:1028100000281AD00A2001F0DCF900263000C0B2EE
:1028200005282CDA00273000C0B205F094FB804662
:10283000424692B23100C9B2491C6F4801F00DFE08
:102840000A2001F0C6F9761CE8E7686800280BD07A
:1028500050496868FDF7AAFC002805D12CA16868DA
:10286000FDF7A4FC002806D0644801F0F6FD64489A
:1028700001F0F3FD03E069682E4801F0EEFD002051
:10288000BDE8F081B87903088C8C0308348603080E
:1028900038B504000D005B496868FDF787FC002827
:1028A00009D05949A868FDF781FC00282AD057486B
:1028B00001F0D3FD26E056496868FDF777FC002853
:1028C00003D0544801F0C9FD1CE0686800280BD013
:1028D00030496868FDF76AFC002805D10CA16868DA
:1028E000FDF764FC002809D04B4801F0B6FD4B48C9
:1028F00001F0B3FD4A4801F0B0FD03E069680D48FE
:1029000001F0ABFD002032BD0A0A0A0067657400C1
:102910003F000000389B0308449B0308DC79030850
:10292000007A0308706E030840550308509B0308A3
:102930005C9B030870910308D4910308A89E0308C8
:10294000B09E0308689B0308247A0308B89E030816
:10295000C09E0308487A0308A0720308C8720308DF
:10296000F072030818730308C89E0308A48C0308B8
:1029700000005940B89D030884960308D09E0308C0
:10298000E8910308D89E030840730308E09E0308FB
:1029900050860308589D03086C7A030828610308D1
:1029A0006873030890730308B8730308E07303089F
:1029B00054960308BC8C0308FC910308F8430308F1
:1029C000E89E0308109F0308D48C0308EC8C0308CE
:1029D000048D03089496030810920308F09E0308E0
:1029E0003E00002024920308389203081C8D03083F
:1029F0000874030830740308188603084C9203080F
:102A0000A4960308F89E0308009F03086092030839
:102A1000089F0308B49603086C860308546A0308E9
:102A2000846A030881EA00039B0717D1820707D055
:102A300010F8012B11F8013BBAB19A42F6D014E01C
:102A400002680B689A42A2F1013301BF934313F06D
:102A5000803F50F8042F51F8043FF3D010F8012BB9
:102A600011F8013B0AB19A42F8D0D01A704730B43D
:102A7000002513E050F8042BD30744BFA9F101034C
:102A80009A18091F042942F8045BFAD213468C07EE
:102A900044BF15809B1CC90748BF1D7050F8041B1C
:102AA0000029E7D130BC70472DE9FB4F82B006000A
:102AB0001700DDF838800F9CDDF84090DDF844A069
:102AC0003000002807D1502080F31188BFF34F8FCA
:102AD000BFF36F8FFEE7B8F10A0F07D3502080F3E2
:102AE0001188BFF34F8FBFF36F8FFEE74946380061
:102AF00080B200F03FFD0500002D61D0286B390049
:102B000089B200EB8100001FC008C000019001984D
:102B100010F0070F07D0502080F31188BFF34F8FBC
:102B2000BFF36F8FFEE7380080B2009053464246F5
:102B30000399280000F06EFC049A3100019805F01A
:102B400061FB2860002C00D0256005F0DCFBDFF87D
:102B50006C160868401C0860DFF8642610680028BE
:102B600006D11560086801280CD100F08BFC09E043
:102B7000DFF8BC060068002804D11068C06A8045F0
:102B800000D31560DFF8AC060168491C01600068DD
:102B90006864DFF8A4160A680123E86A83401A43D0
:102BA0000A60291DDFF89426EB6A1420434302EBE8
:102BB000030005F055FC5FF0010B05F0BEFB01E0E2
:102BC0005FF0FF3BBBF1010F13D1DFF86406006833
:102BD00000280ED0DFF8E8050068C06A404508D23A
:102BE0005FF08050DFF83C170860BFF34F8FBFF3F2
:102BF0006F8F584605B0BDE8F08FF8B5040000258A
:102C0000002C2AD0DFF894060068002807D0502056
:102C100080F31188BFF34F8FBFF36F8FFEE700F093
:102C200028F9DFF80407006820180600DFF890751F
:102C30003868001D05F03BFC002808D13868DFF833
:102C4000F8150A680123C06A83409A430A6030007D
:102C500000F06CFC00F013F90500002D08D15FF0C6
:102C60008050DFF8C0160860BFF34F8FBFF36F8F3F
:102C7000F1BD70B5040005F046FB002C03D1DFF870
:102C80004005056800E02500281D05F010FC00281F
:102C90000FD1DFF8A815EA6A1420424388580028AB
:102CA00007D1DFF894150A680123E86A83409A4344
:102CB0000A60A86A002803D015F1180005F0F7FB98
:102CC000DFF82867291D300005F0CAFB05F035FB49
:102CD000DFF8EC140868854227D1DFF85405006856
:102CE000002816D0DFF8B4050068002807D050206F
:102CF00080F31188BFF34F8FBFF36F8FFEE75FF054
:102D00008050DFF820160860BFF34F8FBFF36F8F3E
:102D100016E03068DFF8A4241268904202D1002047
:102D200008600DE000F0FDF90AE0DFF80405006836
:102D3000002805D005F0E7FA00F0C1FC05F0FDFA27
:102D400070BD10B4020000201300002A07D15021EA
:102D500081F31188BFF34F8FBFF36F8FFEE759697F
:102D6000DFF88846A14209D1996ADFF8384AA142C2
:102D700004D0996A002901D10121080010BC7047D4
:102D800070B504002500002C07D1502080F3118875
:102D9000BFF34F8FBFF36F8FFEE7002D30D0DFF80A
:102DA0002064306885422BD005F0ADFA2800FFF78B
:102DB000C8FF012822D1281D05F079FBDFF878141F
:102DC0000A680123E86A83401A430A60291DDFF874
:102DD0006C24EB6A1420434302EB030005F040FB34
:102DE000E86A3168C96A884208D35FF08050DFF82A
:102DF00080170860BFF34F8FBFF36F8F05F09DFA08
:102E000070BD1FB5002003900020029000200190AB
:102E10000020009000238022DFF88C190FF2D1509F
:102E2000FFF742FE0400012C02D105F055FB04001F
:102E3000012C13D1502080F31188BFF34F8FBFF3C3
:102E40006F8F0120DFF8E81308600020DFF8D81446
:102E5000086000F01AFF05F0FCF909E0002C07D12A
:102E6000502080F31188BFF34F8FBFF36F8FFEE7C1
:102E70001FBDDFF828040168491C0160704770B568
:102E80000025DFF818643068002807D1502080F34F
:102E90001188BFF34F8FBFF36F8FFEE705F033FA52
:102EA0003068401E30603068002853D1C348006845
:102EB00000284FD0DFF8EC180868002826D0C86832
:102EC000C068040014F1180005F0F1FA201D05F0A7
:102ED000EEFADFF864130A680123E06A83401A43BC
:102EE0000A60211DDFF85423E36A1420434302EBF8
:102EF000030005F0B5FAE06AB1490968C96A884279
:102F0000D8D30120DFF874190860D3E7DFF86869C7
:102F1000306800280ED0306800280BD000F07BF815
:102F2000002803D00120DFF8541908603068401EE3
:102F30003060F0E7DFF84409006801280AD1012079
:102F400005005FF08050DFF8DC130860BFF34F8F9F
:102F5000BFF36F8F05F0F1F9280070BDDFF8C803EB
:102F6000006870479548006870472DE9F84F0600E3
:102F70000F0015005FF000080A24FFF77AFF8F4862
:102F80000068874242D3641E0122AC48142101FB31
:102F900004F101445FEA4810304400F019FB10EBE3
:102FA00008008046002CEED10222DFF82C040168D4
:102FB0005FEA4810304400F00BFB814619EB08092A
:102FC0000222DFF8240401685FEA4910304400F06F
:102FD000FFFA82461AEB090A042299495FEA4A106D
:102FE000304400F0F5FA83461BEB0A0B0322DFF8AE
:102FF000FC135FEA4B10304400F0EAFA10EB0B00D0
:103000008046002D02D000F07CFE2860FFF737FFDD
:103010004046BDE8F28F2DE9F04100279F48006847
:1030200000286FD1DFF800030168491C01600468C3
:10303000002C1CD1DFF8A01308680068002807D016
:10304000502080F31188BFF34F8FBFF36F8FFEE7DF
:10305000D1F80080DFF8900302680A60C0F80080B1
:10306000DFF81C080168491C016000F028FBDFF84C
:103070001488D8F80000844238D3DFF85C1308685D
:103080000068002804D15FF0FF30C8F800002DE090
:103090000868C068C068050068680600B44202D2CB
:1030A000C8F8006022E0281D05F001FAA86A00288F
:1030B00003D015F1180005F0FAF95F490A680123F9
:1030C000E86A83401A430A60291D5C4AEB6A1420AF
:1030D000434302EB030005F0C3F9E86A3849096885
:1030E000C96A8842C9D301200700C6E7534934485A
:1030F0000068C26A142042438858022807D301207E
:10310000070004E0DFF870070168491C0160DFF880
:103110006C070068002801D0012007003800BDE8D6
:10312000F08110B55D480068002804D00120DFF868
:103130004C17086040E00020DFF840170860DFF817
:10314000484700F0DEFD2060DFF84017086822687D
:10315000904207D21A480268536D2068C318086865
:103160001B1A53652068086033480068B0FA80F184
:10317000D1F11F011422314B02FB01F01858002835
:1031800007D1502080F31188BFF34F8FBFF36F8FAB
:10319000FEE702FB01F203EB020042685268426064
:1031A000426810F108039A4202D1426852684260B4
:1031B0004068C068024A106010BD0000B0D2002014
:1031C000A0D20020F8B504000D00002C07D150203B
:1031D00080F31188BFF34F8FBFF36F8FFEE7DFF8E7
:1031E000B476386810F11801200005F045F9386808
:1031F000001D05F05CF9002807D138680E490A68FF
:103200000123C06A83409A430A6015F1010F05D17A
:103210003868011D754805F023F907E0DFF87C06E2
:10322000006828180600300000F080F9F1BD0000A9
:10323000BCD20020CCD20020B8D2002044CA00204A
:1032400028D1002070B504000D00002C07D15020BB
:1032500080F31188BFF34F8FBFF36F8FFEE7DFF866
:103260003466306810F11801200005F0F9F8306874
:10327000001D05F01CF9002808D13068DFF8181689
:103280000A680123C06A83409A430A60DFF80C068B
:103290000668AE19300000F049F970BDD0D20020A8
:1032A00038B50500E868C468002C07D1502080F3C9
:1032B0001188BFF34F8FBFF36F8FFEE714F1180033
:1032C00005F0F5F8DFF8D8050068002815D1201DB5
:1032D00005F0EDF8DFF8C0150A680123E06A8340C5
:1032E0001A430A60211DDFF8BC25E36A142043431A
:1032F00002EB030005F0B4F805E014F11801DFF863
:10330000A40405F0ADF8DFF88C050068C06AE16A36
:10331000884205D201200121DFF87425116000E008
:10332000002032BD04ED00E0B4D20020002807D117
:10333000502181F31188BFF34F8FBFF36F8FFEE7EA
:10334000DFF83C1509680160DFF850150968416035
:103350007047F8B504000D00002C07D1502080F311
:103360001188BFF34F8FBFF36F8FFEE7002D07D19A
:10337000502080F31188BFF34F8FBFF36F8FFEE7AC
:1033800004F0C1FFDFF814050668286810F1010F8A
:1033900001D100271AE0DFF8E804006821688842BC
:1033A00004D06068864201D301270FE06068301ABC
:1033B0002968884209D22968891B606841182960F8
:1033C0002000FFF7B3FF002700E0012704F0B5FF5E
:1033D0003800F2BD00000000A4D200200120DFF878
:1033E000B014086070470000A8D200203CD1002033
:1033F00010B5040000F070F8DFF8A8040068022897
:10340000F8D35FF080505A490860BFF34F8FBFF385
:103410006F8FEFE72DE9F04104000D0016001F004B
:103420005FF00008B8F1100F0CD215F8080004EB9B
:10343000080181F8340015F80800002802D018F1BE
:103440000108EFE7002084F843000A2E01D3092089
:103450000600E662E66400202065201D04F0FDFF02
:1034600014F1180004F0F9FF2461D6F10A00A061FC
:103470006462002060650020A065002084F85C0084
:10348000BDE8F08170B500240A2C09D2DFF81404DD
:10349000142101FB04F1084404F0D0FF641CF3E79D
:1034A000DFF80454280004F0C9FFDFF8006430009E
:1034B00004F0C4FFBB4804F0C1FFDFF8F40304F0DC
:1034C000BDFFDFF8F00304F0B9FFDFF8EC0305609F
:1034D000DFF8E803066070BD70B5DFF8E4532868D4
:1034E000002822D0FFF7C5FCDFF8C463306800284D
:1034F00001D1012400E00024FFF7C1FC002CECD135
:1035000004F001FFF068C668301D04F0D0FFDFF85A
:10351000B4030168491E01602868401E286004F059
:103520000CFF300000F0C2F8D7E770BD10B5040002
:10353000DFF8600301684C60DFF8601309688C42B3
:1035400007D20068011DDFF87403006804F094FFDF
:103550000CE00068011DDFF86003006804F08CFFD8
:10356000DFF8200301688C4200D2046010BD000027
:1035700004ED00E02DE9F84307000D00002D06D111
:10358000380080B2800005F0B3F9060000E02E009C
:10359000002E0BD0602005F0ABF90400002C01D008
:1035A000266304E0300005F007FA00E00024002C58
:1035B0000BD0380080B286005FF0A508D4F83090B8
:1035C00042463100484605F033FA2000BDE8F28358
:1035D0002DE9F84304000D0016005FF0000928688B
:1035E000002855D02800416849684160416810F1C1
:1035F0000802914202D14168496841604068C06850
:1036000080462800416849684160416810F108021D
:10361000914202D14168496841604068C068070032
:103620005FEA4910275017F134005FEA491121443D
:103630004860786C5FEA4911214488605FEA49106C
:1036400020440673F86A5FEA49112144086130009A
:10365000C0B2032807D1B86A002804D002205FEA6C
:10366000491121440873F86C5FEA4911214448610B
:10367000786D5FEA491121448861386B00F00BF8DE
:103680005FEA49112144888319F101094745B8D1FE
:103690004846BDE8F283010000200A78A52A02D13D
:1036A000491C401CF9E7800880B2704710B504003F
:1036B000206B05F081F9200005F07EF910BDDFF8E0
:1036C000F82110680068002805D15FF0FF30DFF8AE
:1036D000B421106007E01068C068C0680100486845
:1036E000DFF8A02110607047DFF8E00100680028D3
:1036F00001D1012007E0DFF8A8010068002801D10E
:10370000022000E0002070472DE9F0410400250070
:10371000002C44D0DFF8B081E86AD8F80010C96AFC
:1037200088423CD2A869002805D4D8F80000C06AB5
:10373000D0F10A00A861DFF86C6114276869E96AB2
:1037400079433144884226D1281D04F0B0FE002878
:103750000CD1E86A78433058002807D1DFF870119F
:103760000A680123E86A83409A430A60D8F8000097
:10377000C06AE862DFF858110A680123E86A8340EA
:103780001A430A60291DE86A07FB00F706EB0700E9
:1037900004F066FE03E0D8F80000C06AE862BDE805
:1037A000F081000014D10020B09F030870B5040020
:1037B00025000026002C50D0DFF80C01006885425F
:1037C00007D0502080F31188BFF34F8FBFF36F8F66
:1037D000FEE7286D002807D1502080F31188BFF341
:1037E0004F8FBFF36F8FFEE7286D401E2865E86A94
:1037F000E96C884231D0286D00282ED1281D04F0B4
:1038000056FE00280FD1DFF89C10EA6A14204243CC
:103810008858002807D1DFF880100A680123E86A79
:1038200083409A430A60E86CE862E86AD0F10A00D3
:10383000A861DFF864100A680123E86A83401A432C
:103840000A60291DDFF85C20EB6A1420434302EB79
:10385000030004F005FE01200600300070BDDFF813
:1038600068100868002803D00868026D521C0265C1
:103870000868704700000000C0D20020C4D20020B9
:10388000C8D2002018000020D8D20020D4D20020B6
:10389000C4D20020A0D20020B8D20020B4D2002090
:1038A000D0D2002044CA0020ECD0002000D100205B
:1038B00028D100203CD10020A4D20020A8D2002092
:1038C000ACD20020B0D20020A0D20020BCD2002078
:1038D000B8D20020DFF8281281F82300704780B5A5
:1038E00000F079F800F04FF8DFF81402002181644D
:1038F00001BDF8B52DED028B0400B0EE408A250025
:103900000126DFF8FC71B87800282CD10120B870AE
:103910000020F870FFF722FB00EE100AB8EE400A14
:1039200087ED0F0A87ED0E8A280097F82310C0B2A2
:10393000884203D02800C0B2FFF7CCFFDFF8C401F3
:10394000007804280BDB18EE100A03F0D5FE020005
:103950000B002100C9B2DFF8B00100F07EFD786BEA
:10396000FFF70EFA0AE0DFF89C010078022803DB7B
:10397000DFF8980100F071FD002006003000C0B2B1
:10398000BDEC028BF2BD10B50124DFF87401817823
:1039900001290DD1002181700121C170DFF864017E
:1039A000007804280FDBDFF8680100F056FD0AE01C
:1039B000DFF850010078022803DBDFF8580100F03F
:1039C0004CFD002004002000C0B210BD0120DFF833
:1039D0003011087170470020DFF82411087170471A
:1039E00000002DE9F0412DED010A81B00400200016
:1039F000C0B2002819D0042601AFDFF8045115F138
:103A0000480832003900404603F066F9DFF8F40058
:103A10000078052808DBA86C03F06EFE02000B009E
:103A2000DFF8F40000F019FD2C71BDE8F38100000F
:103A300010B52DED028B82B0B0EE408A314C20786B
:103A4000042803DBDFF8D40000F007FD0321B0EE0B
:103A5000480A042000F0DBF82078042802DB27A0C5
:103A600000F0FBFCB5EE408AF1EE10FA1EDD244CAE
:103A70000020009000239FED140A28EE000AF7EEC4
:103A8000000A80EE200ABCEEC00A10EE102A0421C3
:103A9000206C04F049FDFFF761FA0021009100233A
:103AA00002000121206C04F03FFD08E0002000909E
:103AB0000023002203211248006C04F035FD02B0FF
:103AC000BDEC028B10BD000000007A4410B52DED56
:103AD000028B82B00A4890ED128A05F0EAF80400E1
:103AE000009418EE100A03F007FE02000B000C48C9
:103AF00000F0B3FC02B0BDEC028B10BD20730000DF
:103B000050CF00203E000020E85E03088C9303089D
:103B1000D8870308A0930308049C0308F4870308CC
:103B2000F480030810B4020052B2002A09D50A0139
:103B3000C64B040064B214F00F04234403F8042CB1
:103B400004E00A01C24B040064B21A5510BC70476D
:103B5000BFF34F8FBF490A6812F4E062BE480243C8
:103B60000A60BFF34F8F00BFFDE710B50400601E71
:103B7000B0F1807F01D301200EE0601EB7490860DC
:103B80000F215FF0FF30FFF7CDFF0020B449086040
:103B90000720B4490860002010BDF8B55FF400317B
:103BA0005FF0006005F0DDF84FF4407005F0A0F81C
:103BB000684605F0EBF801984FF47A71B0FBF1F02C
:103BC000FFF7D3FF0F215FF0FF30FFF7ABFF05B02A
:103BD00000BD10B504000120B4FBF0F0FFF70DF8B4
:103BE00010BD00220100481E002906D020210A0035
:103BF00011004A1E0029FBD1F4E770470100481E5E
:103C00000029FBD1704780B5FFF7A2FF01BD70B559
:103C10002DED048B0400B0EE408A0D009248007830
:103C20002100C9B288422DD3B5EE408AF1EE10FAD8
:103C300006D582A000F011FCBFEE000A28EE008A33
:103C4000FCEEC88A18EE901A7DA000F006FCB8EED3
:103C5000680A38EE409A00262800C0B2864211DA7F
:103C6000B2EE040A29EE009ABCEEC90A10EE101A50
:103C70000A20B1FBF0F200FB121172A000F0EDFB84
:103C8000761CE9E7BDEC048B70BD7FB50C240025E4
:103C900001AE2A002100300004F0CAFE01212020DC
:103CA00005F03CF94CF24F3002900020ADF80600D0
:103CB0000020ADF80C004AF6C770ADF804006B4E5A
:103CC00001A9300005F066F90121300005F0C6F9C0
:103CD00001220121300005F0B5F937208DF80000F0
:103CE00001208DF8030005208DF8010000208DF8DB
:103CF0000200684605F001F80121300005F085F961
:103D00007FBD80B5594805F07EF90100584800880C
:103D10004CF2503202FB001002BD10B5534C012191
:103D2000200005F0A0F9002807D00121200005F0AF
:103D3000B1F94F480188491C018010BD30B5A9B0C8
:103D400007A84C49D1E90023C0E90023FFF70AF98D
:103D500005900598112804D30599474800F07DFB8C
:103D60006AE0464D06AA05992800FFF7FEF805907F
:103D7000434800F072FB069800285AD000200490B7
:103D800004980599884254D20498400128448069D7
:103D90006421A1FB0001069A002305F081F90400CB
:103DA000002C1ED00499049A049B049803944901A2
:103DB0002944898B029151012944096901915901D2
:103DC00029448968009107A940012844007B0B5CC5
:103DD00004984001284442682A4909A805F078FA65
:103DE0001CE00499049A049B049849012944898B96
:103DF00002915101294409690191590129448968B5
:103E0000009107A940012844007B0B5C0498400105
:103E1000284442681C4909A805F05AFA09A90AA0D1
:103E200000F01BFB0A20FEF7E8FE0498401C0490FB
:103E3000A6E7164800F011FB29B030BD2D000000A8
:103E400025642E002564000025730A0018ED00E0AB
:103E500000E400E00CED00E00400FA0514E000E0EE
:103E600018E000E010E000E03E00002000140040F8
:103E700020D30020A89F03081C7C03080CC400204A
:103E8000CC620308788A0308948A0308086303084D
:103E90002DE9FC4F83B00BB100241C60044625467D
:103EA00000E06D1C2878A0F10903052BF9D3202828
:103EB000F7D02D2816BF2B2815F8018B4FF02B08B3
:103EC000002A019103D4012A01D0252A03DB00290D
:103ED00047D00C6045E0002A0ADD102A04BF28788C
:103EE000302802BF687840F0200078280ED10AE020
:103EF0002878302818BF0A2208D1687840F02000BE
:103F0000782802D11022AD1C00E00822029500E0C2
:103F10006D1C28783028FBD04FF0000926A02E46D3
:103F2000CA468DF80000934607E09DF80070C71B55
:103F3000CA46FFB20BFB09796D1C2978A1F141003B
:103F40001A2838BF203100BF1BA05A4605F0E0F9FF
:103F50000028EAD10299A942484604D1019800B14B
:103F6000046000201EE000BF1DA2AE1B12F80B1063
:103F7000761A002E0FD405DCC71B03D3B7FBFBF169
:103F8000514508D0AFF30080049808B101210160C9
:103F90004FF0FF3003E0B8F12D0F08BF4042019908
:103FA00001B10D6005B0BDE8F08F00E00000002316
:103FB0000A2200216CE700003031323334353637C5
:103FC00038396162636465666768696A6B6C6D6ED7
:103FD0006F707172737475767778797A000000006B
:103FE00000002115110E0D0C0B0B0A0A0909090915
:103FF0000908080808080808070707070707070748
:10400000070707070700000010B505F0AFF905F036
:104010009DFA00F0B0FB0020DFF8A0170870002028
:10402000DFF89C1708700020DFF898170860DFF8A9
:1040300098170020087008780A280ADA0022DFF8AA
:104040008C370C78802044431A550878401C08703F
:10405000F1E7002008700878DFF87417087005F0A1
:1040600019FB10BD2DE9F14300249DF80000032841
:104070001FD004281DD008280ED00A2824D00D28CF
:1040800022D01B2847D0412845D0422843D05B2866
:1040900041D07F2840F0C380DFF82807016801295C
:1040A00006DB0168491E0160032195A005F08FFA27
:1040B000C6E00020DFF80C1708600220DFF8FC16CD
:1040C000087001200400BBE0DFF8080700780D2825
:1040D00003D19DF800000A281CD0DFF8E8562E68AE
:1040E000DFF8F476DFF8F486C1463200390048463E
:1040F00002F0F2FD0020296808F801000020286085
:104100000120DFF8B8160870012004000121A6A0E4
:1041100005F05DFA94E0DFF8A8562878002803D06F
:10412000022824D019D379E09DF800001B2802D181
:104130000120287010E0DFF88C0601687F290BDA77
:1041400001684A1C02609DF80000DFF88C2650547C
:104150000121684605F03BFA60E09DF800005B280D
:1041600002D10220287001E00020287056E09DF85E
:10417000000041280AD1DFF85806017809310A22E7
:1041800091FBF2F302FB131101700DE09DF80000AA
:10419000422809D1DFF838060178491C0A2291FB30
:1041A000F2F302FB131101709DF80000412803D0C7
:1041B0009DF8000042282FD1DFF808763868411EAC
:1041C0003960002804D003214DA005F000FAF3E780
:1041D000DFF8F865DFF8F88598F800108020414393
:1041E00006EB010005F09EFA3860396898F8002067
:1041F0008020424306EB020005F0E9F93F6898F899
:104200000010C9B2802041430E44DFF8CC853A004B
:104210003100404602F060FD0020287010E0DFF819
:10422000A40501687F290BDA01684A1C02609DF829
:104230000000DFF8A42550540121684605F0C7F9B5
:104240009DF80000DFF88C1508702000C0B2BDE8B2
:10425000F28338B5DFF86415087800284DD0087867
:10426000012843D100200870DFF87055280000F0C5
:1042700049F8280000F09AF8040014F1030F05D162
:10428000DFF85C0500F0E9F8002037E014F1010FD9
:104290000DD100200400285D002801D1641CFAE73C
:1042A00005EB0401DFF83C0500F0D7F816E014F147
:1042B000020F04D1DFF8300500F0CFF80EE0102C2B
:1042C00001D100201AE0142C01D1142016E0002C9A
:1042D00004D02100DFF8140500F0BFF832A000F090
:1042E000BCF8DFF8FC0400F0B8F806E00878022813
:1042F00003D100200870142000E0002032BD00002F
:104300000820080030B401000022885C002807D093
:10431000885C202802D0885C092801D1521CF4E76F
:104320001144087800283CD000200200802A0FD2D7
:10433000885C00280CD0DFF89434DFF88C04047813
:104340008020444303EB04008B5C8354521CEDE754
:10435000802A0BD2DFF87434DFF86C0404788020F4
:10436000444303EB0400002383540CE0DFF85C3487
:10437000DFF8540404788020444303EB0400104425
:10438000002300F8013CDFF8400403785B1C0A249A
:1043900093FBF4F504FB153303700078DFF8303439
:1043A000187030BC704700000A0000002DE9F84387
:1043B0000600012400200C2806DA0021DFF8302452
:1043C00042F82010401CF6E7002537003878002816
:1043D0001BD03878202802D03878092804D1002052
:1043E0003870012004000EE0002C0CD00B2D07DAF1
:1043F000DFF8FC0340F825706D1C0020040002E08B
:104400007FF0010021E07F1CE0E7002D1BD0DFF8EA
:10441000E483D8F80000002812D0DFF8D493D8F84D
:104420000010D9F80000FEF7FDFA002805D1494632
:104430002800D8F80420904707E018F10C08E8E7B6
:104440005FF0FF3001E07FF00200BDE8F28380B54D
:10445000DFF88C0300F001F801BD0EB42DE9F04F38
:104460002DED048B88B0804615AE98F8000000282A
:1044700000F07A810020050018F80500252805D0F5
:1044800018F80500002801D06D1CF5E7290040460A
:1044900005F09DF8A84498F800002528E5D118F10A
:1044A00001080020040020208DF80000404610F193
:1044B00001080078253800F04C810B38092815D9FF
:1044C000283800F0EF800B3820D0401E26D0801E08
:1044D00037D00A3800F0E680C01E00F0BD80801E94
:1044E00000F0D680C01E00F0DD8038E118F8010C25
:1044F000302804D1002C02D130208DF800000A2091
:10450000444318F8010C30380419CFE73068361DE1
:104510000190012101A805F05AF8A6E73068361D80
:104520000190002007000198002805D5019840421D
:1045300001900120834601E0002083460A20824644
:10454000B9E0F61D36F0070696ED000B0836B0EE22
:10455000408AF0EE608A51EC180B0022002302F032
:1045600027FC08D20120834651EC180B91F0004142
:1045700041EC180B01E00020834651EC180B05F0CC
:10458000EDF80190019805F007F902000B0051ECDD
:10459000180B05F00FF941EC190B0A208246012097
:1045A00005000120814601980AFB05F188420AD3E3
:1045B0000AFB05F0B0FBFAF0A84204D10AFB05F5AE
:1045C00019F10109EFE700200700BBF1010F03D14A
:1045D0002D2003A9C8557F1C002D0FD00198B0FBDA
:1045E000F5F0B0FBFAF10AFB110083490968085C99
:1045F00003A9C8557F1CB5FBFAF5EDE751EC190B83
:104600000022002302F0BCFB03D82E2003A9C855CA
:104610007F1CB9F1070F1AD2504605F0BDF853ECD4
:10462000192B03F0B5FC41EC190B51EC190B05F0FB
:1046300095F80A2190FBF1F201FB12006E4909681E
:10464000085C03A9C8557F1C19F10109E1E739008D
:1046500003A804F0BCFF08E73068361D0290002074
:1046600005000298405D002801D06D1CF9E7290083
:10467000029804F0ACFFA54209D2641B2000441E3E
:10468000002804D001214BA004F0A1FFF6E7ECE6DE
:104690003068361D0190002007000A208246002065
:1046A000834608E03068361D019000200700102086
:1046B0008246002083460120050001980AFB05F18F
:1046C000884209D30AFB05F0B0FBFAF0A84203D1F7
:1046D0000AFB05F5641EF0E7BBF1000F00D0641E75
:1046E000BBF1000F09D09DF80000302805D12D2026
:1046F00003A9C8557F1C00208346022C0BD3102C25
:1047000009D2641E002C06D09DF8000003A9C855EC
:104710007F1C641EF6E7BBF1000F03D02D2003A918
:10472000C8557F1C002D0FD00198B0FBF5F0B0FBF1
:10473000FAF10AFB110030490968085C03A9C85561
:104740007F1CB5FBFAF5EDE7390003A804F03FFF45
:104750008BE60121B8F1010004F039FF85E605215F
:10476000264804F034FF80E608B0BDEC048BBDE8B9
:10477000F00F5DF810FB80B52148FFF76EFE214970
:104780002148FFF76AFE2148C1880091838842884A
:1047900001881F48FFF761FE1E48FFF75EFE1E49B5
:1047A0001E48FFF75AFE04A0FFF757FEFFF74FFE23
:1047B00001BD0000200000000A0A00002ED30020E6
:1047C00030D300200CD2002031D3002040B4002090
:1047D00032D300202FD3002050CC0020D0CC00209A
:1047E000209F0308348D03089C6E0308B47A0308E5
:1047F00058D00020F843030850A00308289F03085E
:104800009C9203084C8D030888860308109F0308B8
:10481000648D030894800308A4860308309F03086E
:1048200080B50121042004F069FB01214FF4807060
:1048300004F082FB01215FF4800004F05FFB0121A2
:104840004FF4807004F086FB00214FF4807004F078
:1048500081FB01BDE0B503208DF8040000208DF838
:1048600007001020009069466B4805F015F807BD59
:1048700018B58FB0694C200005F0C4F8200005F091
:104880009BF90028FAD10020009065480190654806
:104890000290002003900A200490002005904FF41D
:1048A000806006904FF4006007904FF4005008902D
:1048B0004FF4807009905FF480300A9000200B90D4
:1048C00001200C9000200D9000200E9069462000E1
:1048D00005F03AF90121200005F060F9200005F00B
:1048E0006BF90128FAD110B010BD10B58AB00020C4
:1048F00006904FF470600990002008905FF44030FB
:10490000079006A805F0FAF90020009001208DF824
:10491000040001208DF80500002002900020039083
:104920000020049001208DF814003F4C69462000BF
:1049300005F0BEF9072301220E21200005F0FDF944
:104940000121200005F09AFA0121200005F088FAE3
:104950000121200005F0E3F9200005F07CFA0AB0FF
:1049600010BD80B5FFF75CFFFFF782FFFFF772FF16
:10497000FFF7BBFF01BDF0B40100002200230020BF
:104980000026022401250A2D1CD209263200AA4243
:1049900016D331F8126001EB420737F8027CBE42B1
:1049A0000CD201EB420636F8026C330031F812608B
:1049B00001EB420727F8026C21F81230521EE6E79D
:1049C0006D1CE0E72600D4F10A05AE4204D231F8AE
:1049D00016504019761CF6E76400D4F10A04B0FBC7
:1049E000F4F080B2F0BC704718B585B00400002028
:1049F0000A280BD20B4901EB40012200D2B231F858
:104A000012106A4622F81010401CF1E76846FFF7C2
:104A1000B2FF06B010BD0000000802407064024002
:104A20004C200140D8D000200020014080B5FFF785
:104A300098FF01BD10B500240120FFF7D5FF01004C
:104A4000080080B2B0F54D7F00D3641C2000C0B2D6
:104A500010BD0268531C03601170704780B586B0AA
:104A60000121022004F04AFA02208DF815000120ED
:104A70008DF8140000208DF8160001208DF8170025
:104A80004FF40050049004A94F4804F005FF0020A3
:104A90000390002002904D480190042000900023D4
:104AA00080224B490FF20900FDF7FEFF07B000BD61
:104AB000F8B50400474D32202880474E3220308020
:104AC0000A20FEF79AF8454F3888401C3880444841
:104AD0000178012910D143490A68521C0A600A680A
:104AE000414B1B689A4207D100220A6000210170E5
:104AF000322028803220308038882988884205D1A9
:104B00004FF40051304804F048FFD9E7388829882D
:104B1000328812FA81F18842D2DB4FF400512A48E0
:104B200004F03DFF00203880CAE770B504000D0096
:104B30001600002C46D02D480078042807DB3300EF
:104B40009BB22A0092B221002948FFF786FC14F19B
:104B5000010F03D100202249087007E022480460B9
:104B600001201F49087000201E490860280080B2FB
:104B7000002809D14FF40051134804F00EFF1348E8
:104B80000068FEF776F81DE0300080B2002809D1F9
:104B90004FF400510C4804F002FF0C480068FEF787
:104BA00068F80FE000200D4908804FF400510648D6
:104BB00004F0F5FE074805800748068003480068B2
:104BC000FEF7DEF870BD00000004024020D2002095
:104BD000C49603080ED3002010D3002012D3002067
:104BE00033D300201CD2002018D200203E00002029
:104BF000C86E0308F8B50020039000200290DFF88B
:104C0000400301900420009000238022DFF8341339
:104C10000FF21500FDF748FF05B000BD0120DFF8D9
:104C200028130870704700007CB504000020FEF7D0
:104C300020F8DFF818532878002802D0012804D083
:104C4000F7E70020FEF715F8F3E74FF4FA60FEF7F8
:104C5000C0FF0220BE49087000F0D5FA012803D138
:104C600000208DF8000002E001208DF800000020F7
:104C7000B84908600020B849088000202870B24D6B
:104C8000287801280BD14CF2010601226946300038
:104C900005F066F901226946300005F06EF9002042
:104CA0002870AE480078042804DB9DF80010AC485A
:104CB000FFF7D3FBBDE738B50124A44D28780028C1
:104CC0000FD105F067F901202870A4480078042866
:104CD00002DBA448FFF7C1FB99480068FEF750F8D3
:104CE00008E09E480078022802DB9F48FFF7B5FBEA
:104CF000002004002000C0B232BD2DE9FE4F0500A7
:104D00000E001400944F2000398880B2884240F091
:104D10008E80300080B2C1287DDADFF83882D8F882
:104D2000000000282CD1300080B204281BDB5FF08B
:104D300004090195DFF834A2D3464A460199584642
:104D400001F0CAFF2D1D361FD8F80000001DC8F85D
:104D5000000082480078052812DBDAF80010844849
:104D6000FFF77BFB0CE07D480078022802DB8148DE
:104D7000FFF773FB44F20800ADF80000009865E00F
:104D80002A00310089B2D8F8000000F04FF901285C
:104D900035D1DFF8E4914A46310089B2D8F80000F5
:104DA00000F028F9320092B22900484605F002F9D5
:104DB000002818D1D8F8000010FA86F0C8F80000D2
:104DC00066480078052807DB3B88320092B2D8F8A5
:104DD00000106A48FFF741FB3888401C38800020EB
:104DE000ADF800002EE05D480078022802DB644840
:104DF000FFF733FB44F20500ADF8000022E044F277
:104E00000400ADF800005548007802281ADB5D4820
:104E1000FFF723FB16E051480078022802DB5A48CE
:104E2000FFF71BFB44F20800ADF800000AE04B4816
:104E30000078022802DB5548FFF70FFB44F2090017
:104E4000ADF800003888ADF802000098BDE8FE8F8C
:104E50002DE9F843040001250026200080B2002837
:104E600034D03C4F3868002830D05FF0040804226A
:104E70003E49300080B205F0D1F881463868C1283B
:104E800013D33868C03880450FD23B4E3200C02162
:104E9000404600F0AFF8C0223100484680B205F02D
:104EA000BDF8814618F1C008EBE7334E320039688F
:104EB000B1EB0801404600F09DF83A68B2EB0802F9
:104EC0003100484680B205F0A9F80600200080B203
:104ED000002805D03000210080B289B2884205D177
:104EE000224A0421002000F0A1F812E01B4F38787C
:104EF000022806DB320092B2210089B22448FFF773
:104F0000ACFA3878022802DB2248FFF7A6FA002024
:104F1000050000200F49086000200F490880280084
:104F2000C0B2BDE8F28380B500F0A4F901BD084825
:104F300090F900007047002006490860C0207047C3
:104F400000D300200C9D03083ED300203FD3002057
:104F50003DD30020F8D2002022D300203E000020C4
:104F600030950308DC900308A4990308FCD20020C4
:104F700038A00308548403080CCB0020046C0308F9
:104F80004C5C0308B4990308F4900308C49903081F
:104F9000C88B0308C87E0308002203F04DBD3F0004
:104FA000BFF34F8FDFF81C130A6812F4E062DFF8DA
:104FB000180302430A60BFF34F8F00BFFDE70100F3
:104FC00000200200D2B2182A09DAC04A0300DBB27C
:104FD00002EB83025268914201D3401CF1E70200C8
:104FE000D2B2182A01DB17221000C0B280B270477B
:104FF000008870472DE9F04104000D00160014F1FF
:105000000068B3480078062803DB4146B148FFF743
:1050100024FA0027AF4207D24046FFF7E9FFF053DA
:1050200018F10208BF1CF5E7BDE8F0812DE9F14F4A
:1050300082B00C00150009260127002000905FF0C7
:105040000008DDF8089019F10069B9F1006F05D387
:10505000A148814502D25FEAC97012D5DFF870A27B
:105060009AF80000022803DB49469C48FFF7F5F94F
:105070009AF80000022802DB9948FFF7EEF90020B9
:105080005FE0DFF84CA29AF80000062803DB4946EF
:105090009248FFF7E2F904F0EBFF002004F0D6FF9E
:1050A000CB4614EB090000908E48834527D2009828
:1050B000834524D25846FFF79BFF4FF6FF71884285
:1050C0001AD05846FFF77BFF8046012186484246AA
:1050D00092B230F8120004F0E0FF06003000C0B2D7
:1050E0000928E4D0002007009AF80000022802DB1B
:1050F0007E48FFF7B2F902E01BF1020BD7E7300060
:10510000C0B2092816D10098814513D22988484693
:1051100005F00BF8092809D0002007009AF80000D4
:10512000022802DB7248FFF798F903E019F102093F
:10513000AD1CE8E7012004F089FF04F0A7FF380068
:10514000C0B2BDE8FE8F10B5040004F091FF00204E
:1051500004F07CFF0121200080B204F09EFF0120BA
:1051600004F074FF04F092FF10BD2DE9F04104003B
:105170000D002000FFF723FF06002800FFF71FFFA8
:105180000700B04638004146C0B2C9B2884209D3D0
:1051900055484146C9B230F81100FFF7D4FF18F165
:1051A0000108EFE74A48007806280BDB4E48390033
:1051B000C9B230F811203100C9B230F811104D4891
:1051C000FFF74BF9BDE8F08138B504000D00A542AA
:1051D00017D32000FFF70CFF4FF6FF7188420ED067
:1051E0003B480078022808DB2000FFF701FF02009F
:1051F00092B221004048FFF730F9002002E0A41CE1
:10520000E5E7012032BD10B53C4C21005FF00060A5
:10521000FFF7ABFF21005FF00060FFF7D5FF01282B
:1052200008D02B480078022802DB3548FFF715F933
:10523000002000E0012010BD80B5FFF7B1FE01BDE8
:1052400038B55FF0006400252800C0B204280FDAEA
:105250002800C0B2205CFF2808D11D480078022831
:1052600002DB2848FFF7F9F8002002E06D1CEBE7AD
:10527000012032BDFEB5244C68462449D1E9002303
:10528000C0E90023FFF7DCFF012819D15FF00060BF
:1052900001681F480140B1F1005F0AD108256E4640
:1052A00027002A003100380001F016FDFFF7C4FF87
:1052B000FEE707480078022802DB1648FFF7CDF822
:1052C000F7BD00000CED00E00400FA0550510308A2
:1052D0003E0000200895030800C000081C95030844
:1052E0005C7E03080000FF1FD46B0308AC8B03082F
:1052F00014840308807E030834840308FFBF000879
:10530000045C0308C4900308F0FF022030A00308E7
:105310000000FE2FA47E0308010000200200D2B28C
:10532000182A09DA954A0300DBB202EB83025268BD
:10533000914201D3401CF1E70200D2B2182A01DBEE
:1053400017221000C0B280B2704710B5040004F0FC
:105350008FFE002004F07AFE01212000C0B204F08C
:105360009CFE012004F072FE04F090FE10BD38B5E2
:1053700004002000FFF7D0FF05008148290089B212
:1053800030F81100C0B2FFF7E0FF31BD0088704770
:10539000F8B504000D0016007A480078062803DBF3
:1053A00021007948FFF759F80027AF4206D22000C4
:1053B000FFF7ECFFF053A41CBF1CF6E7F1BD2DE98D
:1053C000F84F04000D0016000927002000905FF040
:1053D000000BB4F1006F01D3E00712D5DFF8A48110
:1053E00098F80000022803DB21006848FFF735F831
:1053F00098F80000022802DB6548FFF72EF800202D
:1054000056E0DFF8808198F80000062803DB2100D1
:105410005E48FFF722F804F02BFE002004F016FE91
:10542000A14615EB040A5B48814524D2D14522D21E
:105430004846FFF7ABFF4FF6FF71884218D0484649
:10544000FFF76AFF834601214D485A4692B230F871
:10545000120004F022FE07003800C0B20928E5D08F
:1054600098F80000052802DB42A0FEF7F6FF02E0F4
:1054700019F10209DAE73800C0B2092812D15445FF
:1054800010D23188200004F050FE092807D098F887
:105490000000052802DB38A0FEF7DFFF02E0A41CB5
:1054A000B61CECE7012004F0D1FD04F0EFFD012073
:1054B000BDE8F28F2DE9F84F04000D001600200022
:1054C000FFF72AFF2D4980B251F820705FF0000BE2
:1054D0005FF00008B4EB0709DFF8BCA052464FF4B8
:1054E00016713800FFF754FF19EB050040F25921FF
:1054F000884214D3DFF88CA09AF80000022806DB5B
:105500004FF416732A0049462448FEF7A6FF9AF87E
:105510000000022802DB2248FEF79FFF27E05FF031
:10552000000BAB4508D21BEB09001AF80000FF285E
:1055300002D11BF1010BF4E7AB4513D200208346E7
:10554000AB4508D216F80B0019EB0B010AF8010065
:105550001BF1010BF4E752464FF416713800FFF7C8
:105560002EFF04E0320029002000FFF728FFBDE8ED
:10557000F18F00003100000032000000EC50030801
:10558000146B03083E0000203C930308509303086B
:10559000447B03080000FF1FACBF0020E46A03083F
:1055A000A85E0308F8B54FF4B4760027DFF8BC47CF
:1055B00025003A003100280003F03AFA200004F0F8
:1055C00017FE04F025FF00252800C0B2022819DAD2
:1055D000B4262900C9B22800C0B27043204405F0A7
:1055E00095F92800C0B27043204405F0C1F810219D
:1055F0002800C0B206FB00F604EB060005F089F9AE
:105600006D1CE1E706F012FAF1BD10B50024200090
:10561000C0B202280FDADFF854172200D2B2B42049
:10562000424301EB020005F0B6FD2000C0B200F0DD
:1056300099FA641CEBE710BD0000000010B50400EF
:105640002000C0B202280ADADFF820172200D2B206
:10565000B420424301EB020005F066F90CE0DFF8EC
:1056600010070078022805DB2100C9B2DFF8040723
:10567000FEF7F3FE9FED430A10BDF8B52DED048B48
:1056800004002000C0B202284ADAB425DFF8DC6644
:105690002000C0B26843304405F06BF9B0EE408A98
:1056A000F0EE608ADFF8C8763878042803DBDFF88C
:1056B000C806FEF7D2FE0421B0EE480A0420FEF729
:1056C000A6FA3878042803DBDFF8B006FEF7C5FE3B
:1056D0000421B0EE680A0420FEF799FA387804280D
:1056E00003DBDFF89C06FEF7B8FE2000C0B268437B
:1056F000304490ED110A28EE000AB0EE408A2000F6
:10570000C0B205FB00F506EB050090ED110A28EE8E
:10571000800AF0EE408AB0EE480AF0EE680A0EE029
:10572000DFF84C060078022805DB2100C9B2DFF85B
:105730004406FEF792FEB0EE490AF0EE690ABDECAF
:10574000048BF1BD10B504002000C0B202280ADAB3
:10575000DFF818162200D2B2B420424301EB020057
:1057600005F0B6F90CE0DFF808060078022805DB42
:105770002100C9B2DFF8FC05FEF76FFE9FED010ABC
:1057800010BD000000000000022070472DE9F0412C
:105790002DED048B0400F0EE408AB0EE608A0D001F
:1057A000DFF8CC653078042817DBDFF8C01522005D
:1057B000D2B2B420424301EB020090ED110ADFEDBA
:1057C000B90A20EE200A10EE100A01F095FF02003F
:1057D0000B00DFF8B005FEF740FE2000C0B2022843
:1057E0007CDAF5EE408AF1EE10FA77D0B427DFF8D4
:1057F0007C852000C0B27843404490ED110AF3EE5E
:10580000040A20EE200AB4EE408AF1EE10FA65DBBD
:105810002000C0B27843404490ED110ADFEDA10AA8
:1058200020EE200AB4EE480AF1EE10FA56DB200012
:10583000C0B27843404490ED110AB5EE400AF1EE53
:1058400010FA4BD03078062805DB2100C9B2DFF80A
:105850003805FEF702FE0421B0EE480A0720FEF7E5
:10586000D6F93078072803DBDFF82005FEF7F5FDD1
:105870000421B0EE680A0720FEF7C9F9307807283E
:1058800003DBDFF80C05FEF7E8FD2000C0B278432B
:10589000404490ED110A88EE800AB0EE409A200054
:1058A000C0B27843404490ED110A88EE000AF0EE51
:1058B000409A2900C9B2B0EE490AF0EE690A200008
:1058C000C0B207FB00F708EB070005F080F80128DD
:1058D00001D1002086E04FF6FF7083E02000C0B2C7
:1058E000022874D1F5EE408AF1EE10FA6FD0B42799
:1058F000DFF878842000C0B27843404490ED110A6C
:10590000F3EE040A20EE200AB4EE408AF1EE10FA1B
:105910005DDB9FEDB00AB4EE408AF1EE10FA56D589
:105920002000C0B27843404490ED110AB5EE400A21
:10593000F1EE10FA4BD03078062805DB2100C9B211
:10594000DFF84404FEF789FD0421B0EE480A072081
:10595000FEF75DF93078072803DBDFF83004FEF747
:105960007CFD0421B0EE680A0720FEF750F930787C
:10597000072803DBDFF81804FEF76FFD2000C0B234
:105980007843404490ED110A88EE800AB0EE409AC8
:105990002000C0B27843404490ED110A88EE000A1E
:1059A000F0EE409A2900C9B2B0EE490AF0EE690A59
:1059B0002000C0B207FB00F708EB070005F007F86E
:1059C000012801D100200DE04FF6FF700AE0307889
:1059D000022805DB2100C9B2DFF8B803FEF73DFD60
:1059E0004FF6FE70BDEC048BBDE8F081F8B52DEDEF
:1059F000028B0400B0EE408A2000C0B2022841DAD7
:105A0000B5EE408AF1EE10FA3CD0B425DFF85C63C5
:105A10002000C0B26843304490F84C00002823D1E5
:105A2000DFF84C733878062805DB2100C9B2DFF8AF
:105A30006803FEF712FD0821B0EE480A0620FEF7C3
:105A4000E6F83878062803DBDFF85003FEF705FD9B
:105A5000B0EE480A2000C0B205FB00F506EB0500D9
:105A600005F064F800201AE0DFF80403007802284B
:105A700005DB2100C9B2DFF82803FEF7EEFC4FF684
:105A8000FF700CE0DFF8E8020078022805DB210057
:105A9000C9B2DFF81003FEF7E0FC4FF6FE70BDEC74
:105AA000028BF2BD00007A44F8B52DED028B0600A2
:105AB0000C00B0EE408A1500B423DFF8B07230005D
:105AC000C0B25843384490F84C0000283AD1300016
:105AD000C0B2022828DAB5EE408AF1EE10FA23DDD2
