type=LUDC-S
mode=application
version =1.0.0.2 STD-2024.7.16
hash=CE912E96CA4D208CD3C3A7025CD271DB
:020000040802F0
:10000000B0D9002049BB0308F9BD0308FBBD0308B4
:10001000FDBD0308FFBD030801BE0308000000008A
:1000200000000000000000000000000041EC020899
:1000300003BE030800000000E9EB0208BBA00208B1
:10004000EDC00308F1C00308F5C00308F9C00308B8
:10005000FDC0030801C1030805C1030809C1030865
:100060000DC1030811C10308616E030815C103081F
:1000700019C103081DC1030821C1030825C10308D4
:1000800029C103082DC1030831C1030835C1030884
:1000900039C103083DC1030841C1030845C1030834
:1000A000D96F0308012E0308672E030849C103080E
:1000B00051C302084DC1030879C3020851C10308A6
:1000C00055C1030859C103085DC1030861C1030894
:1000D00065C1030851E8020869C103086DC103083E
:1000E000398C020871C1030875C10308A1C3020855
:1000F000C9C30208516F030879C103087DC1030811
:1001000081C1030885C103085F73030889C103081F
:100110008DC1030891C10308ED8A0208CB5802087B
:1001200095C103086D99020899C103089DC1030890
:10013000A1C10308A5C10308A9C10308ADC10308F3
:10014000B1C10308B5C10308B9C10308BDC10308A3
:10015000C1C10308C5C10308C9C10308BDAF020876
:10016000CDC10308D1C10308D5C10308D9C1030813
:10017000DDC10308E1C10308E5C10308E9C10308C3
:10018000EDC10308F1C10308F5C103085994020841
:10019000F9C10308FDC1030801C2030805C2030831
:1001A000000000000000000009C2030808C4484421
:1001B000A0AA484437914844BE774844565E484414
:1001C000EE444844852B48441D124844A4F8474453
:1001D0003BDF47441DC24944A8A649444C8F4944CB
:1001E000E37549447B5C494412434944AA29494484
:1001F00042104944D9F6484471DD484431C04A446C
:10020000C9A64A44608D4A44F8734A448F5A4A4406
:1002100027414A44BE274A44560E4A44EEF4494414
:1002200085DB494414BE4B44ACA44B44548B4B4433
:10023000EC714B4483584B442B3F4B44C3254B44F8
:100240005A0C4B44F2F24A449AD94A44F8BB4C4403
:100250008FA24C4437894C44CF6F4C4466564C4473
:100260000E3D4C44A6234C443D0A4C44D5F04B442F
:100270007DD74B44BAB94D4462A04D44FA864D44F3
:10028000A26D4D4439544D44E13A4D4479214D44D9
:1002900021084D44B8EE4C4460D54C445CB74E4404
:1002A000049E4E449C844E44446B4E44EC514E4458
:1002B00093384E442B1F4E44D3054E447BEC4D44A3
:1002C00012D34D44FEB44F44A69B4F443D824F444D
:1002D000E5684F448D4F4F4435364F44CD1C4F4455
:1002E00075034F441DEA4E44B4D04E447FB250448F
:1002F00027995044CF7F5044776650441F4D504457
:10030000C73350445E1A504406015044AEE74F4490
:1003100056CE4F44DFAF5144879651442F7D514410
:10032000D76351447F4A514437315144DF17514418
:1003300087FE50442FE55044D7CB50443FAD524444
:10034000E79352448F7A524437615244DF47524414
:10035000982E52443F155244E7FB51448FE25144DA
:1003600037C951447FAA534427915344DF775344FC
:10037000875E53442F455344E72B53448F12534415
:1003800037F95244DFDF524498C652449EA7544482
:10039000568E5444FE745444B65B54445E425444F6
:1003A00017295444BE0F544477F653441FDD534479
:1003B000D7C35344ACA45544758B55441D72554462
:1003C000D55855447D3F554435265544DD0C55449C
:1003D00096F354443DDA5444F6C05444AAA156441A
:1003E000628856440A6F5644C35556447B3C564473
:1003F00033235644DB09564493F055444CD75544B7
:10040000F4BD5544989E57443F855744086C574463
:10041000B05257446839574421205744D9065744AD
:1004200091ED564439D45644F2BA5644649B58442C
:100430001D825844D56858448D4F58444636584418
:10044000FE1C5844B60358446FEA574427D157441A
:10045000DFB7574421985944D97E5944916559448E
:100460004A4C594402335944CB19594483005944E6
:100470003BE75844F4CD5844ACB45844CD945A4466
:10048000857B5A443D625A4406495A44BE2F5A4419
:1004900077165A442FFD5944E7E35944A0CA5944FA
:1004A00068B1594468915B4421785B44E95E5B44E0
:1004B000A2455B445A2C5B4423135B44DBF95A444A
:1004C00093E05A444CC75A4414AE5A44E38D5C44FA
:1004D000AC745C44645B5C442D425C44E5285C4441
:1004E000AE0F5C4466F65B442FDD5B44E7C35B44C0
:1004F000B0AA5B444E8A5D4406715D44CF575D44AB
:10050000983E5D4450255D44190C5D44E1F25C4425
:100510009AD95C4462C05C441BA75C4498865E44E4
:10052000606D5E4429545E44E13A5E44AA215E4413
:1005300073085E443BEF5D4404D65D44BCBC5D443F
:1005400085A35D44D1825F449A695F4462505F44F1
:100550002B375F44F41D5F44BC045F4475EB5E447D
:100560003DD25E4406B95E44CF9F5E440A7F60443C
:10057000D36560449C4C6044643360442D1A6044ED
:10058000F6006044AEE75F4477CE5F443FB55F441A
:10059000089C5F44127B6144DB616144A448614470
:1005A0007D2F6144461661440EFD6044D7E36044EC
:1005B000A0CA604479B16044429860441B776244A9
:1005C000E35D6244AC446244852B62444E12624453
:1005D00017F96144DFDF6144A8C6614481AD61441D
:1005E0004A94614412736344DB596344B4406344E6
:1005F0007D276344460E63441FF56244E7DB624493
:10060000B0C2624479A9624452906244E96E644483
:10061000C35564448B3C6444642364442D0A64449D
:1006200006F16344CFD76344A8BE634471A5634415
:100630004A8C6344A06A65447951654442386544F4
:100640001B1F6544F4056544CDEC644496D36444B3
:100650006FBA644448A16444108864445666664492
:100660002F4D6644F8336644D11A6644AA016644A5
:1006700083E865444CCF654425B66544FE9C6544DB
:10068000C7836544FC616744D5486744AE2F67441F
:100690007716674450FD664429E4664402CB6644FD
:1006A000DBB16644A49866447D7F6644715D68440E
:1006B0004A446844232B6844FC116844D5F86744D5
:1006C000BEDF674498C6674471AD67444A94674487
:1006D000237B6744F6586944CF3F6944A8266944A0
:1006E000810D69445AF4684433DB68440CC26844A1
:1006F000E5A86844BE8F6844987668444A546A44C2
:10070000233B6A440C226A44E5086A44BEEF69440C
:10071000A8D6694481BD69445AA46944338B6944AD
:100720001D7269449E4F6B4477366B44601D6B4469
:1007300039046B4412EB6A44FCD16A44D5B86A446C
:10074000AE9F6A4487866A44716D6A44E14A6C448C
:10075000BA316C44A4186C447DFF6B4466E66B446C
:100760003FCD6B4419B46B44029B6B44DB816B44FB
:10077000C5686B4404466D44EE2C6D44C7136D444C
:10078000B0FA6C4489E16C4473C86C445CAF6C444F
:1007900035966C441F7D6C44F8636C4406416E448E
:1007A000F0276E44D90E6E44B2F56D449CDC6D4466
:1007B00085C36D446FAA6D4458916D4431786D4482
:1007C0001B5F6D44083C6F44F2226F44DB096F44A9
:1007D000B4F06E449ED76E4487BE6E4471A56E44DD
:1007E0005A8C6E4433736E441D5A6E44FA3670440C
:1007F000E31D7044CD047044B6EB6F44A0D26F4447
:1008000089B96F4462A06F444C876F44356E6F4462
:100810001F556F44DB317144C5187144AEFF7044FD
:1008200098E6704481CD70446AB47044549B70441F
:100830003D82704427697044105070449C2C72446F
:10084000851372446FFA714468E1714452C871446F
:100850003BAF7144259671440E7D71440864714428
:10086000F24A71444C277344350E73442FF5724499
:1008700019DC724402C37244FCA97244E5907244CC
:10088000CF777244B85E7244B2457244DB2174443F
:10089000D5087444BEEF7344B8D67344A2BD734404
:1008A0009CA47344858B73447F727344685973446A
:1008B000624073446A1C7544640375445EEA744480
:1008C00048D1744442B874442B9F744425867444C0
:1008D0000E6D744408547444F23A7444E916764434
:1008E000E3FD7544CDE47544C7CB7544C1B275448E
:1008F000AA997544A48075448D677544874E7544E4
:10090000713575444811774442F876443BDF7644AC
:1009100025C676441FAD764419947644127B7644FE
:100920000C627644F6487644F02F7644960B784471
:100930008FF2774489D9774483C077447DA7774481
:10094000778E7744607577445A5C77445443774494
:100950004E2A7744D3057944CDEC7844C7D3784404
:10096000C1BA7844BAA17844B4887844AE6F784468
:10097000A8567844A23D78449C24784400007A44E8
:1009800006197A440C327A44024B7A4408647A4459
:100990000E7D7A4414967A441BAF7A4410C87A4488
:1009A00017E17A441DFA7A4412137B44192C7B44D4
:1009B0001F457B44145E7B441B777B4421907B4422
:1009C00017A97B441DC27B4423DB7B4419F47B4481
:1009D0001F0D7C4414267C441B3F7C4421587C44DE
:1009E00017717C441D8A7C4412A37C4419BC7C444E
:1009F0000ED57C4414EE7C440A077D4410207D44CF
:100A000006397D440C527D44026B7D44F8837D445D
:100A1000FE9C7D44F4B57D44FACE7D44F0E77D44F0
:100A2000E5007E44EC197E44E1327E44D74B7E449F
:100A3000DD647E44D37D7E44C9967E44CFAF7E4440
:100A4000C5C87E44BAE17E44B0FA7E44B6137F4402
:100A5000AC2C7F44A2457F44985E7F448D777F44D1
:100A600093907F4489A97F447FC27F4475DB7F4494
:100A70006AF47F44B00680442B138044A61F804450
:100A8000292C8044A43880441F4580449A518044D6
:100A9000145E80448F6A80440A7780448583804452
:100AA000009080447B9C8044F6A8804471B58044CB
:100AB000ECC1804466CE8044E1DA804454E780444F
:100AC000CFF380444A008144C50C81443F198144DE
:100AD000BA25814435328144A83E8144234B814468
:100AE0009E5781441964814493708144067D8144FA
:100AF00081898144FC95814477A28144E9AE814497
:100B000064BB8144DFC781445AD48144CDE0814431
:100B100048ED8144C3F9814435068244B0128244D1
:100B2000231F82449E2B8244193882448B44824482
:100B300006518244795D8244F46982446F7682442E
:100B4000E18282445C8F8244CF9B82444AA88244E3
:100B5000BCB4824437C18244AACD82441DDA8244A7
:100B600098E682440AF3824485FF8244F80B83446A
:100B700073188344E524834458318344D33D83442C
:100B8000464A8344B85683442B638344A66F834408
:100B9000197C8344938883440695834479A18344D4
:100BA000ECAD834466BA8344D9C683444CD38344B2
:100BB000BEDF834431EC8344ACF883441F05844496
:100BC00091118444041E8444772A8444E936844481
:100BD0005C438444D74F84444A5C8444BC68844466
:100BE0002F758444A2818444148E8444879A84445B
:100BF000FAA684446DB38444DFBF844452CC844459
:100C0000C5D8844437E58444AAF184441DFE844455
:100C10008F0A85440217854475238544DF2F854458
:100C2000523C8544C548854437558544AA6185446E
:100C30001D6E85448F7A8544FA8685446D9385447C
:100C4000DF9F854452AC8544C5B885442FC5854493
:100C5000A2D1854414DE85447FEA8544F2F68544BA
:100C600064038644D70F8644421C8644B4288644D5
:100C70002735864491418644044E86446F5A864403
:100C8000E166864454738644BE7F8644318C864434
:100C90009C9886440EA5864479B18644ECBD864472
:100CA0005ECA8644C9D686443BE38644A6EF8644A2
:100CB00010FC864483088744EE14874460218744EF
:100CC000CB2D87443D3A8744A84687441253874436
:100CD000855F8744F06B874462788744CD8487447E
:100CE00037918744A29D874414AA87447FB68744DE
:100CF000E9C287445CCF8744C7DB874431E8874437
:100D00009CF487440E018844790D8844E319884493
:100D10004E268844B83288442B3F8844964B8844FA
:100D2000005888446A648844D57088443F7D88446C
:100D3000AA898844149688447FA28844F2AE8844E5
:100D40005CBB8844C7C7884431D488449CE088444D
:100D500006ED884471F98844DB05894446128944CC
:100D6000B01E89441B2B89447D378944E74389445D
:100D700052508944BC5C89442769894491758944EF
:100D8000FC818944668E8944D19A894433A7894479
:100D90009EB3894408C0894473CC8944DDD8894412
:100DA0003FE58944AAF1894414FE89447F0A8A44B4
:100DB000E1168A444C238A44B62F8A44213C8A4453
:100DC00083488A44EE548A4458618A44BA6D8A44FE
:100DD000257A8A4487868A44F2928A445C9F8A44B0
:100DE000BEAB8A4429B88A448BC48A44F6D08A446C
:100DF00058DD8A44C3E98A442DF68A448F028B4425
:100E0000FA0E8B445C1B8B44BE278B4429348B44E5
:100E10008B408B44F64C8B4458598B44C3658B44B0
:100E200025728B44877E8B44F28A8B4454978B4483
:100E3000BEA38B4421B08B4483BC8B44EEC88B444F
:100E400050D58B44B2E18B441DEE8B447FFA8B442A
:100E5000E1068C4444138C44AE1F8C44102C8C440B
:100E600073388C44D5448C4437518C44A25D8C44F7
:100E7000046A8C4466768C44C9828C442B8F8C44E3
:100E80008D9B8C44F0A78C445AB48C44BCC08C44D9
:100E90001FCD8C4481D98C44E3E58C4446F28C44CC
:100EA000A8FE8C440A0B8D446D178D44CF238D44CE
:100EB00031308D44933C8D44F6488D4458558D44D3
:100EC000BA618D441D6E8D447F7A8D44E1868D44D8
:100ED00044938D449E9F8D4400AC8D4462B88D44F4
:100EE000C5C48D4427D18D4489DD8D44E3E98D440B
:100EF00046F68D44A8028E440A0F8E446D1B8E4424
:100F0000C7278E4429348E448B408E44EE4C8E4449
:100F100048598E44AA658E440C728E44667E8E4477
:100F2000C98A8E442B978E4485A38E44E7AF8E44A6
:100F30004ABC8E44A4C88E4406D58E4460E18E44DB
:100F4000C3ED8E4425FA8E447F068F44E1128F4410
:100F50003B1F8F449E2B8F44F8378F445A448F4455
:100F6000B4508F44175D8F4471698F44CB758F44A3
:100F70002D828F44878E8F44E99A8F4444A78F44F3
:100F8000A6B38F4400C08F445ACC8F44BCD88F4442
:100F900017E58F4471F18F44D3FD8F442D0A90449F
:100FA00087169044E9229044442F90449E3B9044FD
:100FB000F84790445A549044B46090440E6D904465
:100FC00068799044C3859044259290447F9E9044D4
:100FD000D9AA904433B790448DC39044E7CF90444E
:100FE00042DC9044A4E89044FEF4904458019144BB
:100FF000B20D91440C1A914466269144C132914439
:101000001B3F9144754B9144CF57914429649144BF
:1010100083709144DD7C914437899144919591444A
:10102000ECA1914446AE914498BA9144F2C69144E1
:101030004CD39144A6DF914400EC91445AF891447A
:10104000B404924406119244601D9244BA29924419
:10105000143692446F429244C14E92441B5B9244B8
:1010600075679244CF739244218092447B8C924462
:10107000D598924427A5924481B19244DBBD924415
:101080002DCA924487D69244E1E2924433EF9244CF
:101090008DFB9244E707934439149344932093447F
:1010A000E52C93443F39934491459344EC51934448
:1010B0003D5E9344986A9344E97693444483934411
:1010C000968F9344F09B934442A893449CB49344DA
:1010D000EEC093443FCD93449AD99344ECE59344B6
:1010E00046F2934498FE9344E90A94444417944486
:1010F000962394441B339444423C94449348944430
:10110000E554944437619444916D9444E379944454
:101110003586944487929444E19E944433AB94443E
:1011200085B79444D7C3944429D094447BDC944439
:10113000D5E8944427F5944479019544CB0D954422
:101140001D1A95446F269544C1329544123F95442B
:10115000644B9544B6579544086495445A70954439
:10116000AC7C9544FE88954450959544A2A1954445
:10117000F4AD954446BA954498C69544E9D2954451
:101180003BDF95448DEB9544DFF79544310496445D
:1011900083109644CD1C96441F299644713596447D
:1011A000C3419644144E96445E5A9644B0669644A3
:1011B00002739644547F9644A68B9644F0979644C7
:1011C00042A4964493B09644DDBC96442FC99644FD
:1011D00081D59644CBE196441DEE96446FFA964431
:1011E000B80697440A1397445C1F9744A62B97446C
:1011F000F83797444244974493509744DD5C9744B2
:101200002F69974481759744CB8197441D8E9744ED
:10121000669A9744B8A6974402B397444CBF974444
:101220009ECB9744E7D79744D7E3974483F09744FE
:10123000D5FC97441F09984468159844BA219844EE
:10124000042E98444E3A9844A0469844E952984453
:10125000335F9844856B9844CF77984419849844B9
:101260006A909844B49C9844FEA8984448B5984421
:1012700091C19844E3CD98442DDA984477E6984498
:10128000C1F298440AFF98445C0B9944A61799440C
:10129000F023994439309944833C9944CD4899448A
:1012A0001755994460619944AA6D9944F479994419
:1012B0003D86994487929944D19E99441BAB9944A9
:1012C00064B79944AEC39944F8CF994442DC994439
:1012D0008BE89944D5F499441F019A44680D9A44C7
:1012E000B2199A44FC259A4446329A448F3E9A4455
:1012F000D14A9A441B579A4464639A44AE6F9A4405
:10130000F87B9A4439889A4483949A44CDA09A44AD
:1013100017AD9A4458B99A44A2C59A44ECD19A445C
:1013200035DE9A4477EA9A44C1F69A440A039B440C
:101330004C0F9B44961B9B44DF279B4421349B44CA
:10134000F6409B44AC4C9B44F6589B443F659B4401
:1013500081719B44CB7D9B440C8A9B4456969B4455
:1013600098A29B44E1AE9B4423BB9B446DC79B4426
:10137000AED39B44F8DF9B4439EC9B4483F89B44F9
:10138000C5049C440E119C44501D9C4491299C44CE
:10139000DB359C441D429C44664E9C44A85A9C44A8
:1013A000E9669C4433739C44757F9C44B68B9C4493
:1013B000F8979C4442A49C4483B09C44C5BC9C4484
:1013C0000EC99C4450D59C4491E19C44D3ED9C446F
:1013D00014FA9C445E069D44A0129D44E11E9D4467
:1013E000232B9D4464379D44A6439D44E74F9D4471
:1013F000315C9D4473689D44B4749D44F6809D4463
:10140000378D9D4479999D44BAA59D44FCB19D4476
:101410003DBE9D447FCA9D44C1D69D4402E39D4488
:1014200044EF9D4485FB9D44C7079E4408149E4499
:101430004A209E448B2C9E44CD389E4406459E44B3
:1014400048519E44895D9E44CB699E440C769E44DF
:101450004E829E448F8E9E44C99A9E440AA79E4403
:101460004CB39E448DBF9E44C7CB9E4408D89E4437
:101470004AE49E448BF09E44C5FC9E4406099F446A
:1014800048159F4489219F44C32D9F44043A9F449B
:101490003D469F447F529F44B85E9F44F26A9F44FA
:1014A0002B779F4464839F449E8F9F44D79B9F4488
:1014B00010A89F444AB49F4483C09F44EECC9F44ED
:1014C00027D99F4468E59F44A2F19F44E3FD9F44D0
:1014D0001D0AA0445E16A0449822A044D92EA04420
:1014E000123BA0444C47A0448D53A044C75FA04486
:1014F000086CA0444278A0447B84A044BC90A044E3
:10150000F69CA0442FA9A04471B5A044AAC1A04450
:10151000E3CDA0441DDAA0445EE6A04498F2A044C6
:10152000D1FEA0440A0BA1444C17A1448523A14439
:10153000BE2FA144F83BA1443148A1446A54A144C0
:10154000AC60A144E56CA1441F79A1445885A14435
:101550009191A144CB9DA14404AAA1443DB6A144CC
:1015600077C2A144B0CEA144E9DAA14423E7A14463
:101570005CF3A14496FFA144CF0BA2440818A244F7
:101580004224A2447B30A244B43CA244EE48A2448C
:101590002755A2446061A2449A6DA244D379A24423
:1015A0000486A2443D92A244779EA244B0AAA244DB
:1015B000E9B6A24423C3A24454CFA2448DDBA24483
:1015C000C7E7A24400F4A2443100A3446A0CA34438
:1015D000A418A344DD24A3440E31A344483DA344EE
:1015E0008149A344B255A344EC61A344256EA344AE
:1015F000567AA3448F86A344C192A344FA9EA3447F
:1016000033ABA34464B7A3449EC3A344CFCFA34446
:1016100008DCA344A4E8A34473F4A344A400A444B2
:10162000DD0CA4440E19A4444825A4447931A444F3
:10163000B23DA444E349A4441D56A4444E62A444CC
:101640007F6EA444B87AA444E986A4441B93A444BE
:10165000549FA44485ABA444BEB7A444F0C3A4449F
:1016600021D0A44452DCA4448BE8A444BCF4A44498
:10167000EE00A544270DA5445819A5448925A54485
:10168000BA31A544EC3DA5441D4AA5444E56A54497
:101690008762A544B86EA544E97AA5441B87A54492
:1016A0004C93A544859FA544B6ABA544E7B7A54494
:1016B00019C4A5444AD0A5447BDCA544ACE8A544A4
:1016C000DDF4A5440E01A6443F0DA6447119A644BD
:1016D000A225A644D331A644043EA644354AA644D6
:1016E0006656A6449862A644C96EA644FA7AA644F1
:1016F0002B87A6445493A644859FA644B6ABA64424
:10170000E7B7A64419C4A6444AD0A64473DCA6444D
:10171000A4E8A644D5F4A6440601A744370DA7447F
:101720006019A7449125A744C331A744EC3DA744C1
:101730001D4AA7444E56A7447F62A744A86EA744FB
:10174000D97AA7440A87A7443393A744649FA74440
:101750008DABA744BEB7A744F0C3A74419D0A74494
:101760004ADCA74473E8A744A4F4A744CD00A844E6
:10177000FE0CA8442719A8445825A8443D32A84483
:10178000B23DA844DB49A8440C56A8443562A8449D
:10179000666EA8448F7AA844C186A844E992A844FA
:1017A000129FA84444ABA8446DB7A84496C3A8446C
:1017B000C7CFA844F0DBA84419E8A8444AF4A844D9
:1017C0007300A9449C0CA944C518A944F624A94453
:1017D0001F31A944483DA9447149A944A255A944CF
:1017E000CB61A944F46DA9441D7AA9444686A94455
:1017F0007792A944A09EA944C9AAA944F2B6A944D3
:101800001BC3A94444CFA9446DDBA94496E7A9446E
:10181000BEF3A944E7FFA944100CAA443918AA440E
:101820006224AA448B30AA44B43CAA44DD48AA44AA
:101830000655AA442F61AA44586DAA448179AA4446
:10184000AA85AA44D391AA44FC9DAA4425AAAA44E5
:101850004EB6AA4477C2AA4498CEAA44C1DAAA4492
:10186000E9E6AA4412F3AA443BFFAA445C0BAB444A
:101870008517AB44AE23AB44D72FAB44003CAB44FD
:101880002148AB444A54AB447360AB44936CAB44C3
:10189000BC78AB44E584AB440691AB442F9DAB448C
:1018A00058A9AB4479B5AB44A2C1AB44CBCDAB4452
:1018B000ECD9AB4414E6AB4435F2AB445EFEAB442A
:1018C000870AAC44A816AC44D122AC44F22EAC44F6
:1018D0001B3BAC443B47AC446453AC44855FAC44D5
:1018E000AE6BAC44CF77AC44F083AC441990AC44BD
:1018F000399CAC4462A8AC4483B4AC44A4C0AC44AE
:10190000CDCCAC44EED8AC440EE5AC4437F1AC449D
:1019100058FDAC447909AD44A215AD44C321AD4492
:10192000E32DAD440C3AAD442D46AD444E52AD448A
:101930006F5EAD448F6AAD44B876AD44D982AD4494
:10194000FA8EAD441B9BAD443BA7AD4464B3AD449C
:1019500085BFAD44A6CBAD44C7D7AD44E7E3AD44A6
:1019600008F0AD4429FCAD444A08AE446A14AE44C4
:101970008B20AE44AC2CAE44CD38AE44EE44AE44E5
:101980000E51AE442F5DAE445069AE447175AE4405
:101990009181AE44B28DAE44D399AE44F4A5AE4429
:1019A00014B2AE4435BEAE4456CAAE4477D6AE4449
:1019B0008FE2AE44B0EEAE44D1FAAE44F206AF448C
:1019C0001213AF44331FAF444C2BAF446D37AF44B9
:1019D0008D43AF44AE4FAF44C75BAF44E767AF44FE
:1019E0000874AF442980AF44428CAF446298AF443E
:1019F00083A4AF449CB0AF44BCBCAF44DDC8AF448B
:101A0000F6D4AF4417E1AF442FEDAF4450F9AF44E3
:101A10007105B0448911B044AA1DB044C329B04433
:101A2000E335B044FC41B0441D4EB044355AB04497
:101A30005666B0446F72B0448F7EB044A88AB044FA
:101A4000C996B044E1A2B04402AFB0441BBBB0445D
:101A500033C7B04454D3B0446DDFB04485EBB044D9
:101A6000A6F7B044BE03B144D70FB144F81BB1444C
:101A70001028B1442934B1444A40B144624CB144C5
:101A80007B58B1449364B144B470B144CD7CB1444B
:101A9000E588B144FE94B14417A1B14437ADB144D7
:101AA00050B9B14468C5B14481D1B1449ADDB14463
:101AB000B2E9B144CBF5B144EC01B244040EB244F6
:101AC0001D1AB2443526B2444E32B244663EB24488
:101AD0007F4AB2449856B244B062B244C96EB2442E
:101AE000E17AB244FA86B2441293B2442B9FB244D4
:101AF00044ABB2445CB7B24475C3B24485CFB24480
:101B00009EDBB244B6E7B244CFF3B244E7FFB2443F
:101B1000000CB3441918B3442924B3444230B344ED
:101B20005A3CB3447348B3448B54B3449C60B344AD
:101B3000B46CB344CD78B344E584B344F690B34475
:101B40000E9DB34427A9B34437B5B34450C1B34441
:101B500068CDB34479D9B34491E5B344AAF1B34411
:101B6000BAFDB344D309B444E315B444FC21B444EE
:101B7000142EB444253AB4443D46B4444E52B444C1
:101B8000665EB444776AB4448F76B444A082B444A9
:101B9000B88EB444C99AB444E1A6B444F2B2B44491
:101BA00002BFB4441BCBB4442BD7B44444E3B44485
:101BB00054EFB44464FBB4447D07B5448D13B5447D
:101BC0009E1FB544B62BB544C737B544D743B5447B
:101BD000F04FB544005CB5441068B5442174B54479
:101BE0003980B5444A8CB5445A98B5446AA4B54482
:101BF0007BB0B54493BCB544A4C8B544B4D4B54493
:101C0000C5E0B544D5ECB544E5F8B544FE04B644AA
:101C10000E11B6441F1DB6442F29B6443F35B644B5
:101C20005041B644604DB6447159B6448165B644DE
:101C30009171B644A27DB644B289B644C395B64408
:101C4000D3A1B644E3ADB644F4B9B64404C6B64431
:101C500014D2B64425DEB64435EAB6443DF6B64461
:101C60004E02B7445E0EB7446F1AB7447F26B7449E
:101C70008F32B744983EB744A84AB744B856B744E1
:101C8000C962B744D96EB744E17AB744F286B74423
:101C90000293B744129FB7441BABB7442BB7B7446A
:101CA0003BC3B74444CFB74454DBB74464E7B744BD
:101CB0006DF3B7447DFFB7448D0BB8449617B84415
:101CC000A623B844AE2FB844BE3BB844C747B84477
:101CD000D753B844E75FB844F06BB8440078B844D1
:101CE0000884B8441990B844219CB84429A8B84441
:101CF00039B4B84442C0B84452CCB8445AD8B844B5
:101D00006AE4B84473F0B8447BFCB8448B08B94427
:101D10009314B944A420B944AC2CB944B438B944A0
:101D2000C544B944CD50B944D55CB944DD68B94423
:101D3000EE74B944F680B944FE8CB9440699B944AE
:101D400017A5B9441FB1B94427BDB9442FC9B94437
:101D500037D5B94448E1B94450EDB94458F9B944CC
:101D60006005BA446811BA44711DBA447929BA446D
:101D70008135BA449141BA449A4DBA44A259BA4401
:101D8000AA65BA44B271BA44BA7DBA44C389BA44A6
:101D9000CB95BA44D3A1BA44DBADBA44E3B9BA4453
:101DA000ECC5BA44F4D1BA44F4DDBA44FCE9BA440F
:101DB00004F6BA440C02BB44140EBB441D1ABB44C7
:101DC0002526BB442D32BB442D3EBB44354ABB4483
:101DD0003D56BB444662BB444E6EBB444E7ABB4448
:101DE0005686BB445E92BB44669EBB4466AABB4417
:101DF0006FB6BB4477C2BB447FCEBB447FDABB44E3
:101E000087E6BB448FF2BB448FFEBB44980ABC44B8
:101E10009816BC44A022BC44A82EBC44A83ABC449A
:101E2000B046BC44B052BC44B85EBC44B86ABC4482
:101E3000C176BC44C982BC44C98EBC44D19ABC445E
:101E4000D1A6BC44D9B2BC44D9BEBC44D9CABC4456
:101E5000E1D6BC44E1E2BC44E9EEBC44E9FABC444E
:101E6000E906BD44F212BD44F21EBD44FA2ABD4447
:101E7000FA36BD44FA42BD44024FBD44025BBD4444
:101E80000267BD440A73BD440A7FBD440A8BBD444A
:101E90000A97BD4412A3BD4412AFBD4412BBBD445A
:101EA00012C7BD4412D3BD441BDFBD441BEBBD4470
:101EB0001BF7BD441B03BE441B0FBE441B1BBE448B
:101EC0001B27BE442333BE44233FBE44234BBE44A2
:101ED0002357BE442363BE44236FBE44237BBE44CA
:101EE0002387BE442393BE44239FBE4423ABBE44FA
:101EF00023B7BE4423C3BE4423CFBE4423DBBE442A
:101F000023E7BE4423F3BE4423FFBE441B0BBF4460
:101F10001B17BF441B23BF441B2FBF441B3BBF44A5
:101F20001B47BF441B53BF44125FBF44126BBF44E7
:101F30001277BF441283BF44128FBF440A9BBF4431
:101F40000AA7BF440AB3BF440ABFBF4402CBBF4481
:101F500002D7BF4402E3BF44FAEEBF44FAFABF44DB
:101F6000FA06C044F212C044F21EC044F22AC04431
:101F7000E936C044E942C044E14EC044E15AC0449D
:101F8000D966C044D972C044D97EC044D18AC04405
:101F9000D196C044C9A2C044C9AEC044C1BAC0446D
:101FA000C1C6C044B8D2C044B0DEC044B0EAC044E8
:101FB000A8F6C044A802C144A00EC144A01AC1445E
:101FC0009826C1448F32C1448F3EC144874AC144E0
:101FD0007F56C1447F62C144776EC1446F7AC14469
:101FE0006686C1446692C1445E9EC14456AAC144FD
:101FF00056B6C1444EC2C14446CEC1443DDAC14486
:1020000035E6C14435F2C1442DFEC144250AC2441F
:102010001D16C2441422C2440C2EC244043AC244C7
:10202000FC45C244FC51C244F45DC244EC69C24464
:10203000E375C244DB81C244D38DC244CB99C24410
:10204000C3A5C244BAB1C244B2BDC244AAC9C244C3
:10205000A2D5C2449AE1C24491EDC24489F9C24476
:102060008105C3447111C344681DC3446029C3443E
:102070005835C3445041C344484DC3443F59C344F9
:102080002F65C3442771C3441F7DC3441789C344CC
:102090000E95C344FEA0C344F6ACC344EEB8C3449B
:1020A000E5C4C344D5D0C344CDDCC344C5E8C34470
:1020B000B4F4C344AC00C444A40CC4449318C44452
:1020C0008B24C4448330C444733CC4446A48C4442D
:1020D0005A54C4445260C4444A6CC4443978C44419
:1020E0003184C4442190C444199CC44408A8C44405
:1020F00000B4C444F0BFC444E7CBC444D7D7C444FD
:10210000CFE3C444BEEFC444B6FBC444A607C544F1
:102110009613C5448D1FC5447D2BC5446D37C544FA
:102120006443C544544FC5444C5BC5443B67C544F8
:102130002B73C5441B7FC544128BC5440297C5440D
:10214000F2A2C544E9AEC544D9BAC544C9C6C5441E
:10215000B8D2C544A8DEC544A0EAC5448FF6C5443C
:102160007F02C6446F0EC6445E1AC6444E26C6445D
:102170004632C644353EC644254AC6441456C64473
:102180000462C644F46DC644E379C644D385C644AC
:10219000C391C644B29DC644A2A9C64491B5C644E3
:1021A00081C1C64471CDC64460D9C64450E5C64419
:1021B0003FF1C6442FFDC6441F09C7440E15C7444E
:1021C000FE20C744EE2CC744DD38C744C544C7448D
:1021D000B450C744A45CC7449368C7448374C744DD
:1021E0007380C7445A8CC7444A98C74439A4C7442B
:1021F00029B0C74410BCC74400C8C744F0D3C74483
:10220000DFDFC744C7EBC744B6F7C744A603C844DB
:102210008D0FC8447D1BC8446D27C8445433C8443F
:10222000443FC844334BC8441B57C8440A63C8449E
:10223000F26EC844E17AC844C986C844B892C8441A
:10224000A09EC8448FAAC84477B6C84466C2C84492
:102250004ECEC8443DDAC84425E6C84414F2C8440A
:10226000FCFDC844EC09C944D315C944C321C94481
:10227000AA2DC9449139C9448145C9446851C9440A
:10228000505DC9443F69C9442775C9440E81C9449A
:10229000FE8CC944E598C944CDA4C944B4B0C9442E
:1022A000A4BCC9448BC8C94473D4C9445AE0C944C6
:1022B0004AECC94431F8C9441904CA440010CA445C
:1022C000E71BCA44CF27CA44BE33CA44A63FCA4408
:1022D0008D4BCA447557CA445C63CA44446FCA44B0
:1022E0002B7BCA441287CA44FA92CA44E19ECA446C
:1022F000C9AACA44B0B6CA4498C2CA447FCECA4426
:1023000066DACA444EE6CA4435F2CA441DFECA44DF
:10231000040ACB44EC15CB44D321CB44BA2DCB4497
:10232000A239CB448945CB446851CB44505DCB4462
:102330003769CB441F75CB440681CB44E58CCB4435
:10234000CD98CB44B4A4CB449CB0CB4483BCCB4409
:1023500062C8CB444AD4CB4431E0CB4410ECCB44EC
:10236000F8F7CB44DF03CC44C70FCC44A61BCC44C6
:102370008D27CC447533CC44543FCC443B4BCC44A8
:102380001B57CC440263CC44E96ECC44C97ACC449C
:10239000B086CC448F92CC44779ECC4456AACC4491
:1023A0003DB6CC441DC2CC4404CECC44E3D9CC448D
:1023B000CBE5CC44AAF1CC4491FDCC447109CD4489
:1023C0005015CD443721CD44172DCD44FE38CD4492
:1023D000DD44CD44BC50CD44A45CCD448368CD44A1
:1023E0006274CD444A80CD44298CCD440898CD44B4
:1023F000F0A3CD44CFAFCD44AEBBCD448DC7CD44CB
:1024000075D3CD4454DFCD4433EBCD4412F7CD44E6
:10241000F202CE44D90ECE44B81ACE449826CE4409
:102420007732CE44563ECE44354ACE441456CE443E
:10243000FC61CE44DB6DCE44BA79CE449A85CE445D
:102440007991CE44589DCE4437A9CE4417B5CE4499
:10245000F6C0CE44D5CCCE44B4D8CE4493E4CE44DA
:1024600073F0CE4452FCCE443108CF441014CF4414
:10247000F01FCF44C72BCF44A637CF448543CF446A
:10248000644FCF44445BCF442367CF440273CF44AF
:10249000D97ECF44B88ACF449896CF4477A2CF4410
:1024A00056AECF442DBACF440CC6CF44ECD1CF4466
:1024B000CBDDCF44A2E9CF4481F5CF446001D044C5
:1024C000370DD0441719D044F624D044CD30D04431
:1024D000AC3CD0448B48D0446254D0444260D04499
:1024E000196CD044F877D044D783D044AE8FD04411
:1024F0008D9BD04464A7D04444B3D0441BBFD04488
:10250000FACAD044D1D6D044B0E2D04487EED04409
:1025100066FAD0443D06D1441412D144F41DD1448E
:10252000CB29D144AA35D1448141D144584DD1441D
:102530003759D1440E65D144E570D144C57CD144AE
:102540009C88D1447394D14452A0D14429ACD14445
:1025500000B8D144D7C3D144B6CFD1448DDBD144E8
:1025600064E7D1443BF3D1441BFFD144F20AD24487
:10257000C916D244A022D244772ED2444E3AD24435
:102580002546D2440452D244DB5DD244B269D244DF
:102590008975D2446081D244378DD2440E99D24499
:1025A000E5A4D244BCB0D24493BCD2446AC8D2445D
:1025B00042D4D24419E0D244F0EBD244C7F7D2441B
:1025C0009E03D344750FD3444C1BD3442327D344D9
:1025D000FA32D344C93ED344A04AD3447756D344B5
:1025E0004E62D344256ED344FC79D344CB85D34487
:1025F000A291D344799DD34450A9D34427B5D34461
:10260000F6C0D344CDCCD344A4D8D3447BE4D34444
:102610004AF0D34421FCD344F807D444C713D4442C
:102620009E1FD444752BD4444437D4441B43D44414
:10263000F24ED444C15AD4449866D4446672D44409
:102640003D7ED4440C8AD444E395D444BAA1D44406
:1026500089ADD44460B9D4442FC5D44406D1D44400
:10266000D5DCD444ACE8D4447BF4D4444A00D5440B
:10267000210CD544F017D544C723D544962FD54413
:102680006D3BD5443B47D5440A53D544E15ED54420
:10269000B06AD5447F76D5445682D544258ED5443C
:1026A000F499D544C3A5D5449AB1D54468BDD54461
:1026B00037C9D5440ED5D544DDE0D544ACECD5447E
:1026C0007BF8D5444A04D6442110D644F01BD644A6
:1026D000BE27D6448D33D6445C3FD6442B4BD644DC
:1026E000FA56D644C962D644A06ED6446F7AD64410
:1026F0003D86D6440C92D644DB9DD644AAA9D64446
:1027000079B5D64448C1D64417CDD644E5D8D64489
:10271000B4E4D64483F0D64452FCD6442108D744CE
:10272000F013D744B61FD744852BD7445437D7442A
:102730002343D744F24ED744C15AD7448F66D74477
:102740005E72D744257ED744F489D744C395D744D5
:1027500091A1D74460ADD74427B9D744F6C4D74434
:10276000C5D0D74493DCD7445AE8D74429F4D7449A
:10277000F8FFD744BE0BD8448D17D8445C23D84407
:10278000232FD844F23AD844C146D8448752D8447B
:10279000565ED8441D6AD844EC75D844BA81D844F2
:1027A000818DD8445099D84417A5D844E5B0D84471
:1027B000ACBCD8447BC8D84442D4D84410E0D844F8
:1027C000D7EBD844A6F7D8446D03D944330FD94486
:1027D000021BD944C926D9449832D9445E3ED94413
:1027E000254AD944F455D944BA61D944816DD944B4
:1027F0005079D9441785D944DD90D944AC9CD9444B
:1028000073A8D94439B4D94400C0D944CFCBD944F2
:1028100096D7D9445CE3D94423EFD944F2FAD9449A
:10282000B806DA447F12DA44461EDA440C2ADA4447
:10283000D335DA44A241DA44684DDA442F59DA44F8
:10284000F664DA44BC70DA44837CDA444A88DA44B9
:102850001094DA44D79FDA449EABDA4464B7DA4482
:102860002BC3DA44F2CEDA44B8DADA447FE6DA444B
:1028700046F2DA440CFEDA44D309DB449A15DB4411
:102880006021DB44272DDB44EE38DB44AC44DB44E1
:102890007350DB44395CDB440068DB44C773DB44C2
:1028A0008D7FDB444C8BDB441297DB44D9A2DB44A5
:1028B000A0AEDB4466BADB4425C6DB44ECD1DB4486
:1028C000B2DDDB4471E9DB4437F5DB44FE00DC4478
:1028D000C50CDC448318DC444A24DC440830DC4466
:1028E000CF3BDC4438B504000D002900200001F086
:1028F0006DFE002801D1012000E00020C0B232BDF1
:10290000F8B50020039000200290DFF8280901901C
:102910000420009000234FF48072DFF8341C0FF283
:102920000D0001F095FE05B000BD000010B50400DB
:10293000002001F072FFDFF8000900880121B0FBE0
:10294000F1F001F02EFFDFF8F4080078002804D041
:10295000012803D0032804D0EDE7ECE702F08AFE5B
:10296000E9E702F0C3FFE6E738B504000D00DFF841
:10297000D0186868FFF7B6FF00281DD0A8680028A7
:1029800014D0A86803F0E9F80A280FDBA86803F060
:10299000E4F8DFF8A41808800320DFF8A018087016
:1029A000DFF89008006801F0BFFF2EE0A968DFF8AB
:1029B000940803F02AFB28E0DFF88C186868FFF71A
:1029C00091FF002805D0DFF86C08006801F025FFB2
:1029D0001BE0686800280CD0DFF870186868FFF703
:1029E00081FF002805D140A16868FFF77BFF002820
:1029F0000BD0DFF85C0803F008FBDFF8580803F0A1
:102A000004FBDFF8500B03F000FB002032BD70B573
:102A100004000D000026DFF840186868FFF762FF29
:102A2000002809D003F0DEFD06003100C9B2DFF84E
:102A3000240A03F0EAFA17E0686800280CD0DFF8EF
:102A40000C186868FFF74EFF002805D126A16868BA
:102A5000FFF748FF002807D0DFF8200A03F0D5FA77
:102A6000DFF8F80A03F0D1FAF6B2300070BDF8B51D
:102A700004000D00686800281CD0A868002814D045
:102A8000E868002811D0E86803F067F80600A86835
:102A900003F063F80700686803F05FF8320092B251
:102AA000390089B203F019FE1CE0DFF8D40903F005
:102AB000ACFA17E0686800280CD0DFF89017686857
:102AC000FFF710FF002805D107A16868FFF70AFF8C
:102AD000002807D0DFF8AC0903F097FADFF8800A86
:102AE00003F093FA0020F2BD3F00000070B588B0FB
:102AF00004000D00DFF890196868FFF7F3FE002866
:102B000002D003F0B0FECFE0DFF880196868FFF76D
:102B1000E9FE00281CD0A868002814D0E868002826
:102B200011D0286900280ED0286903F016F8060095
:102B3000E86803F012F8320092B2010089B2A86886
:102B400003F0B3FEB0E0DFF8380903F05EFAABE063
:102B5000DFF8181A6868FFF7C5FE00280ED0A868CD
:102B6000002806D0A86802F0F8FF80B203F048FF02
:102B70009AE0DFF80C0903F048FA95E0DFF8F01965
:102B80006868FFF7AFFE00282FD0A868002827D07C
:102B9000E868002824D068461E2103F0D5FFE868C5
:102BA00002F0DBFF0600A86802F0D7FF6A4631009A
:102BB00003F0F8FF3EA003F028FA0026E86802F0D0
:102BC000CCFF864207DA6846815DDFF8A80903F08A
:102BD0001CFA761CF2E7694636A003F016FA63E0A9
:102BE000DFF89C0803F011FA5EE0DFF88C196868E2
:102BF000FFF778FE002807D003F075FF80B20100D0
:102C00002DA003F002FA4FE0DFF870196868FFF7B3
:102C100069FE002808D003F062FF0600310049B2C7
:102C200025A003F0F2F93FE0DFF854196868FFF7D8
:102C300059FE002802D003F04EFF35E068680028F6
:102C40000CD0DFF808166868FFF74CFE002805D1A5
:102C50008FA16868FFF746FE002820D0DFF824091E
:102C600003F0D3F9DFF8200903F0CFF9DFF81C09EE
:102C700003F0CBF9DFF8180903F0C7F9DFF81409FE
:102C800003F0C3F9DFF8100903F0BFF9DFF80C090E
:102C900003F0BBF9DFF8080903F0B7F904E069684D
:102CA000DFF8CC0B03F0B1F9002008B070BD0000D4
:102CB0000A0000000A25730025640A0070B588B078
:102CC00004000D00DFF8DC186868FFF70BFE002831
:102CD00021D0A868002819D0E868002816D02869F3
:102CE000002813D0E86802F038FF0600A86802F058
:102CF00034FF2A69310004F03AF9A86802F02DFF88
:102D00000100DFF8A40803F080F9BDE0DFF87007E8
:102D100003F07BF9B8E0DFF874176868FFF7E2FDAD
:102D2000002821D0A868002819D0E868002816D00B
:102D30002869002813D0E86802F00FFF0600A86891
:102D400002F00BFF2A69310004F08CF9A86802F048
:102D500004FF0100DFF8500803F057F994E0DFF8B2
:102D6000200703F052F98FE0DFF804186868FFF7D6
:102D7000B9FD002834D0A86800282CD0E8680028C5
:102D800029D068461E2103F0DFFEE86802F0E5FE68
:102D90000600A86802F0E1FE6A46310004F0D0F8AF
:102DA000A86802F0DAFE0100DFF8C80A03F02DF986
:102DB0000026E86802F0D1FE864207DA6846815DA7
:102DC000DFF8B00703F021F9761CF2E7694680A02E
:102DD00003F01BF958E0DFF8A80603F016F953E0FA
:102DE000DFF8A4166868FFF77DFD002815D0A868F5
:102DF00000280DD0A86802F0B0FE04F090F8A86892
:102E000002F0ABFE0100DFF8700A03F0FEF83BE0D1
:102E1000DFF86C0603F0F9F836E08DA16868FFF77B
:102E200061FD002806D0DFF8581ADFF8580A03F0D1
:102E3000ECF829E0686800280CD0DFF81014686806
:102E4000FFF750FD002805D111A16868FFF74AFD82
:102E5000002814D0DFF8300A03F0D7F8DFF82C0A86
:102E600003F0D3F8DFF8280A03F0CFF8DFF8240ADC
:102E700003F0CBF8DFF8200A03F0C7F804E0696834
:102E8000DFF8EC0903F0C1F8002008B070BD0000C5
:102E90003F00000038B504000D0004F0A7F9002041
:102EA00004F08AFD002032BD70B504000D0078A149
:102EB0006868FFF717FD00280DD0A868002805D026
:102EC000A86802F04AFE04F077FD7FE0DFF8CC0945
:102ED00003F09BF87AE0DFF8C8196868FFF702FD95
:102EE000002816D0A86800280ED0A86802F035FE89
:102EF000012809DBA86802F030FE01000120491E0C
:102F0000884004F059FD61E0DFF8900903F07DF896
:102F10005CE0DFF890196868FFF7E4FC002803D054
:102F2000002004F049FD51E05AA16868FFF7DAFC7F
:102F3000002808D004F079FD06003100DFF86809A8
:102F400003F063F842E0DFF864196868FFF7CAFC31
:102F5000002808D004F02EFD80B20100DFF85009EF
:102F600003F053F832E0686800280BD0B74968686E
:102F7000FFF7B8FC002805D147A16868FFF7B2FC4D
:102F800000281ED0DFF82C0903F03FF8DFF82819DD
:102F9000DFF8280903F039F804F00CFD80B20100D5
:102FA000DFF81C0903F031F8DFF8180903F02DF8F9
:102FB000DFF8140903F029F8DFF8100903F025F809
:102FC00004E06968DFF8A80803F01FF8002070BD6E
:102FD0000A25730070B504000D006868002818D039
:102FE000686802F0BAFD060004F0BBF9864206DA12
:102FF000686802F0B2FDDFF8D818087025E004F028
:10300000B0F980B2401E0100DFF8C80802F0FDFFF1
:103010001BE0686800280BD08C496868FFF762FCE9
:10302000002805D11CA16868FFF75CFC00280CD0C3
:10303000DFF8A40802F0E9FF04F093F9010089B277
:10304000491EDFF8E80B02F0E0FF002070BD000031
:10305000656E6400F8B504000D00DFF87468307820
:1030600004F084FB07003800C0B2002802D0012819
:1030700006D00AE03178DFF8640802F0C6FF04E009
:103080003178DFF8AC0B02F0C0FF0020F2BD000089
:103090006D617000676574003F0000002DE9F04726
:1030A0002DED028B82B004000D005FA16868FFF770
:1030B00019FC002839D0A868002832D0DFF8106841
:1030C0003078022820D1A86804F0F7FC51EC100BEE
:1030D00004F0F8FC00EE100A022004F0F1F9A868F0
:1030E00004F0EBFC51EC100B04F0ECFC00EE100AC9
:1030F00004F0F9FDA86804F0E0FC53EC102BDFF8B5
:10310000340B02F082FF89E0A86804F0D6FC51EC91
:10311000100B04F0D7FC00EE100A307804F0D0F960
:103120007CE0D74802F071FF78E040A16868FFF7C3
:10313000D9FB002816D0DFF89867307804F0F2F851
:10314000B0EE408A3178DFF8F00A02F05EFF082125
:10315000B0EE480A012002F032FBDFF8E00A02F08C
:1031600054FF5BE0686800280BD038496868FFF7B7
:10317000B9FB002805D12EA16868FFF7B3FB002832
:103180000CD0DFF8BC0A02F040FFDFF8B80A02F00A
:103190003CFFDFF8B40A02F038FF3FE0DFF8B01A76
:1031A0006868FFF79FFB002833D068460021016064
:1031B00000200190DFF89C6AA86802F0CEFC0700AE
:1031C0003800C0B202280ADB6A4604213B00DBB2A9
:1031D000DFF8840A10EB830003F0B2FE07E06A46D2
:1031E00004213800C0B216EB800003F0A9FE5FF0A6
:1031F0000408E9460DF1040A42464946504605F0E6
:1032000067F8019A3900C9B2DFF8500A02F0FDFEF2
:1032100004E06968DFF8580602F0F7FE002002B00B
:10322000BDEC028BBDE8F0877365740067657400C0
:103230003F00000064D4002074D5002095D5002004
:1032400090BE03089CB1030898BE030838BE03086B
:10325000F499030830A60308A0BE030870B52DED4D
:10326000048B05000E0083A17068FFF73BFB00286C
:1032700032D0B06800282BD0F068002828D0F06841
:1032800004F01BFCB0EE408AF0EE608AB06804F0F7
:1032900014FCB0EE409AF0EE609A00210C0051EC64
:1032A000180B04F00FFC00EE900A2100B0EE608ACB
:1032B0000C0051EC190B04F005FC00EE100A210083
:1032C000F0EE480ADFF80806007804F04DF8BCE09C
:1032D0006B4802F09AFEB8E067A17068FFF702FB46
:1032E000002822D0DFF8E845207803F0B6FFB0EEE2
:1032F000408AF0EE608A2178DFF8640902F085FEEA
:103300000421B0EE480A012002F059FADFF854090E
:1033100002F07BFE0421B0EE680A012002F04FFAB1
:10332000DFF8440902F071FE8FE0DFF840197068A1
:10333000FFF7D8FA002832D0B06800282BD0F06808
:10334000002828D0F06804F0B8FBB0EE408AF0EE18
:10335000608AB06804F0B1FBB0EE409AF0EE609A7B
:1033600001210C0051EC180B04F0ACFB00EE900AAC
:103370002100B0EE608A0C0051EC190B04F0A2FBA6
:1033800000EE100A2100F0EE480ADFF8440500784C
:1033900003F0EAFF59E03A4802F037FE55E0DFF863
:1033A000D0187068FFF79EFA002808D004F0C8FC17
:1033B00004002100DFF8BC0802F027FE45E0DFF83A
:1033C000B8187068FFF78EFA002810D0B06800288F
:1033D0003BD0B06802F0C1FB04F0C6FCB06802F05C
:1033E000BCFB0100DFF8940802F00FFE2DE07068CE
:1033F00000280CD0DFF888187068FFF773FA0028EF
:1034000005D155A17068FFF76DFA002818D0DFF8D4
:10341000740802F0FAFDDFF8700802F0F6FDDFF83C
:103420006C0802F0F2FDDFF8680802F0EEFDDFF84C
:10343000640802F0EAFDDFF8600802F0E6FD04E04F
:103440007168DFF82C0402F0E0FD0020BDEC048B75
:1034500070BD0000B0B1030838B504000D0003F0E2
:1034600080FF80B20100DFF8D00A02F0CEFD00201C
:1034700032BD00007365740067657400189A030814
:10348000B8B6030888A00308A8BE0308B0BE0308A6
:1034900070B52DED028B04000D00DFF80018686890
:1034A000FFF720FA002816D0A86800280ED0A868D8
:1034B00004F003FB51EC100B04F004FB00EE100AC7
:1034C000DFF80C04007804F0F1F83CE0DFF8D007F6
:1034D00002F09BFD37E023A16868FFF703FA00289C
:1034E00015D0DFF8EC63307803F098FEB0EE408A38
:1034F0003178DFF8B00702F088FD0421B0EE480A09
:10350000012002F05CF918A002F07FFD1BE0686862
:1035100000280CD0DFF868176868FFF7E3F9002887
:1035200005D10DA16868FFF7DDF900280BD0DFF8A1
:10353000780702F06AFDDFF8740702F066FDDFF835
:10354000F80A02F062FD0020BDEC028B70BD0000A5
:10355000B8BB03084CA603083F0000003C9A0308D0
:103560007C95030867657400206D6C0078BE0308C5
:10357000B8BE0308C0BE0308C8BE0308D0BE030817
:10358000D8BE030868A60308C8B60308609A0308F3
:10359000849A0308A89A0308CC9A0308F09A0308AF
:1035A000149B0308C4BB0308D8B103082DE9F843F2
:1035B0002DED068B06000F005FF00008DFF8F01617
:1035C0007868FFF78FF9002806D1A6A42100786853
:1035D000FFF788F9002804D001208046002005006C
:1035E000A1E0DFF8D0167868FFF77CF9002807D152
:1035F0000FF2742949467868FFF774F9002804D05F
:1036000001208046012005008DE098A17868FFF731
:1036100069F9002800F087802100B868FFF762F997
:1036200000283DD0386904F048FAB0EE408AF0EE48
:10363000608A786904F041FAB0EE409AF0EE609A40
:10364000F86804F03AFAB0EE40AAF0EE60AA002161
:103650000C0051EC180B04F035FA01EE100A2100B1
:10366000B0EE418A0C0051EC190B04F02BFA00EE7D
:10367000900A2100B0EE481AB0EE608AF0EE418A5E
:103680000C0051EC1A0B04F01DFA00EE100A210098
:10369000B0EE681AF0EE480A002004F0D7FB42E0D2
:1036A0004946B868FFF71EF900283CD0386904F095
:1036B00004FAB0EE408AF0EE608A786904F0FDF911
:1036C000B0EE409AF0EE609AF86804F0F6F9B0EEC9
:1036D00040AAF0EE60AA01210C0051EC180B04F096
:1036E000F1F901EE100A2100B0EE418A0C0051EC14
:1036F000190B04F0E7F900EE900A2100B0EE481A29
:10370000B0EE608AF0EE418A0C0051EC1A0B04F026
:10371000D9F900EE100A2100B0EE681AF0EE480A5E
:10372000002004F093FB4046C0B201285CD1B86889
:10373000002854D0F86800283ED0386900283BD0D3
:10374000386904F0BAF9B0EE408AF0EE608AF868A1
:1037500004F0B3F9B0EE409AF0EE609ADFF87091A1
:1037600001210C0051EC180B04F0ACF900EE900AAA
:103770002100B0EE608A0C0051EC190B04F0A2F9A4
:1037800000EE100A2100F0EE480A99F8000003F05C
:10379000EBFDB86804F091F90322140051EC100B12
:1037A00004F090F900EE100A22002900C9B299F83D
:1037B000000003F0E3FE50E0B86804F07EF9022256
:1037C000140051EC100B04F07DF900EE100A2200F9
:1037D0002900C9B23E48007803F0D0FE3DE0DFF892
:1037E000C00402F012FC38E0DFF88C187868FFF7AC
:1037F00079F8002804D03648007803F01FFF2CE049
:10380000786800280CD0DFF878147868FFF76AF839
:10381000002805D119A17868FFF764F8002818D0AE
:10382000DFF8580802F0F1FBDFF8540802F0EDFB76
:10383000DFF8500802F0E9FBDFF84C0802F0E5FB86
:10384000DFF8480802F0E1FBDFF8440802F0DDFB96
:1038500003E07968064802F0D8FB0020BDEC068B37
:10386000BDE8F28365000000640000007300000002
:10387000C4B10308D8B60308E8B603083F00000047
:1038800074010108D0BB0308A8A00308B88F03087F
:10389000E48F0308109003083C900308F8B603086F
:1038A000E0BE0308DCBB0308ECB10308E8BE030874
:1038B000E8BB0308C8A00308FFFF0100487B03081A
:1038C000A8860308A4950308E08603081887030860
:1038D00094D50020F4AC0308E8A0030808B7030857
:1038E00070B52DED028B04000D00DFF878186868C4
:1038F000FEF7F8FF002824D0A86804F0DEF851ECA9
:10390000100B0022002304F037FD14D8A86804F03F
:10391000D4F851EC100B0122DFF84C3804F044FDD0
:1039200009D2E86802F019F9002800F17881E86806
:1039300002F013F973E1A968DFF8600A02F065FB91
:103940006DE1DFF828186868FEF7CCFF002812D078
:10395000A86802F002F901230200D2B2002100207F
:1039600004F02CFE002840F05A81E968DFF82C0AA8
:1039700002F04BFB53E1ACA16868FEF7B3FF0028EF
:1039800016D0E86802F0E9F80600A86802F0E5F849
:10399000320092B20100C9B2002004F0B4FE002847
:1039A00040F03D81E968DFF8F40902F02EFB36E1D2
:1039B000DFF8BC176868FEF795FF002816D0E868A6
:1039C00002F0CBF80600A86802F0C7F8320092B205
:1039D0000100C9B2002004F011FF002840F01F814F
:1039E000E968DFF8B80902F010FB18E1DFF8881683
:1039F0006868FEF777FF00281BD0A86802F0ADF8D2
:103A0000002810D4A86802F0A8F802280BDAA868E9
:103A100002F0A3F8C0B204F06BFFA968DFF8540706
:103A200002F0F3FAFBE0A968DFF8700902F0EDFAA2
:103A3000F5E0DFF844176868FEF754FF00281CD053
:103A4000A86802F08AF8002811D4A86802F085F866
:103A500001280CDAA86802F080F8C0B204F070FD0A
:103A6000C0B20100DFF8540802F0CFFAD7E0A9682D
:103A7000DFF8280902F0C9FAD1E0DFF844186868D5
:103A8000FEF730FF002820D0A86802F066F8002872
:103A900015D4A86802F061F8022810DAA86802F0CC
:103AA0005CF8C0B204F0DCFF10EE100A05F020F95B
:103AB00002000B00DFF80C0802F0A7FAAFE0A968DB
:103AC000DFF8D80802F0A1FAA9E0DFF8FC1768686F
:103AD000FEF708FF002820D0A86802F03EF8002872
:103AE00015D4A86802F039F8022810DAA86802F0A4
:103AF00034F8C0B204F090FF10EE100A05F0F8F8A8
:103B000002000B00DFF8BC0702F07FFA87E0A9682B
:103B1000DFF8880802F079FA81E0DFF8B01768680A
:103B2000FEF7E0FE002845D0A86803F0C6FF51EC80
:103B3000100B0022DFF8983704F01EFC34D8A86878
:103B400003F0BBFF51EC100B0122DFF8883704F0C3
:103B50002BFC29D2E86802F000F800281ED4E8689F
:103B600001F0FBFF022819DAA86803F0A6FFB0EE07
:103B7000408AF0EE608AE86801F0EFFF060051EC41
:103B8000180B03F09FFF00EE100A3000C0B204F0E3
:103B9000E3FEDFF8140802F038FA40E0E968DFF8E5
:103BA000FC0702F032FA3AE0A968DFF8F00702F009
:103BB0002CFA34E0686800280BD031496868FEF7B9
:103BC00091FE002805D121A16868FEF78BFE002830
:103BD00020D0DFF8A80402F018FADFF8D00702F0CE
:103BE00014FADFF8CC0702F010FADFF8C80702F089
:103BF0000CFADFF8C40702F008FADFF8C00702F099
:103C000004FADFF8500802F000FADFF84C0802F07E
:103C1000FCF904E06968DFF8840702F0F6F9002097
:103C2000BDEC028B70BD000064697200C8770308A8
:103C300018B703080CAD030828B70308F4BB030842
:103C4000389B0308CC780308207903083F00000064
:103C5000F0BE030864000108E000010838B703085B
:103C600048B7030800B20308F8BE030800BC030805
:103C700000BF030884A6030808BF0308A0A6030822
:103C800038BE030868900308C07303081077030860
:103C9000C074030870790308C079030810BF0308D3
:103CA000B8B6030868B703085C9B0308907B030859
:103CB00018BF030820BF03082DE9F0412DED048B48
:103CC00084B005000E009DA17068FEF70BFE002871
:103CD0000CD005F03BFADFF8040800780428C0F2A5
:103CE0002481DFF8FC0702F090F91EE1DFF874147C
:103CF0007068FEF7F7FD002840F01781A0A17068FA
:103D0000FEF7F0FD00280CD005F02DFADFF8CC0707
:103D100000780428C0F20981DFF8C80702F075F9BD
:103D200003E1DFF8C4177068FEF7DCFD00280BD054
:103D3000B06801F012FF00EE100A0021B8EEC00AD0
:103D4000002005F081F9F0E0DFF8A0177068FEF7B9
:103D5000C9FD002840F0E980DFF894177068FEF78D
:103D6000C1FD002838D0B068002830D0F0680028A5
:103D70002DD0306900282AD0306901F0EEFE040011
:103D8000F06803F09AFEB0EE408AF0EE608AB06808
:103D900003F093FEB0EE409AF0EE609A21000C0022
:103DA00051EC180B03F08EFE00EE900A2100B0EEED
:103DB000608A0C0051EC190B03F084FE00EE100A2F
:103DC0002100F0EE480A002004F0D8FFADE0DFF853
:103DD000240702F01AF9A8E0A4A17068FEF782FD9A
:103DE000002850D0A2A1B068FEF77CFD002819D0B1
:103DF000F068002810D0F06801F0AFFEC0B205F006
:103E0000F5F810EE100A04F073FF02000B00DFF863
:103E1000E80602F0FAF888E0F168DFF8800502F0C1
:103E2000F4F882E093A1B068FEF75CFD002824D08E
:103E3000F06800281BD03069002818D0306903F0E2
:103E40003CFEB0EE408AF0EE608AF06801F085FE3C
:103E5000070001210C0051EC180B03F033FE00EEBB
:103E6000100A21003800C0B205F0EEF85DE0F168FC
:103E7000DFF8280502F0C9F857E0B168DFF81C0543
:103E800002F0C3F851E0DFF874167068FEF72AFDFF
:103E900000284AD1DFF868167068FEF723FD002875
:103EA00021D001A8DFF85C16D1E90023C0E9002386
:103EB0000020ADF80000F06801F04FFEADF8000002
:103EC000B06801F04AFE8DF8070002246F460DF13C
:103ED000080822003900404604F0FAF9082101A838
:103EE00005F08DFB21E0706800280CD0DFF8181673
:103EF0007068FEF7F7FC002805D199A17068FEF7FD
:103F0000F1FC00280CD0DFF8040602F07EF8DFF8A0
:103F1000000602F07AF8DFF8FC0502F076F804E01B
:103F20007168DFF8780402F070F8002004B0BDEC8E
:103F3000048BBDE8F081000058B703086F6E0000E5
:103F400070B504000D00DFF8D00502F05EF8DFF870
:103F5000CC0502F05AF8DFF8C865306800280DD0AB
:103F60000A2001F00EFCB068002805D0B268316864
:103F7000DFF8B00502F049F80C36EEE7002070BD1E
:103F80006F6666003EB504000D0005F069FB029007
:103F900005F06BFB0190DFF89005C18800918388E4
:103FA00042880188DFF8840502F02FF89DF80B00A5
:103FB00000909DF80A309DF809209DF80810DFF860
:103FC000700502F022F89DF8070000909DF8063079
:103FD0009DF805209DF80410DFF8580502F015F84B
:103FE00000203EBD38B504000D0002F09CF9002011
:103FF00032BDF8B504000D000026DFF83C0502F0E4
:1040000004F80127A74208DA55F827203900DFF81D
:104010002C0501F0FAFF7F1CF4E70020F2BD38B553
:1040200004000D00A3A001F0F0FF0A2001F0A9FB9D
:1040300001F0C1FB002032BDB88C030838B5040084
:104040000D006868002806D0686801F086FDC0B2DF
:1040500005F014FB07E005F014FB0100C9B2DFF81E
:10406000E00401F0D2FF002032BD0000646566006C
:10407000676574007365740098BE030808A103089F
:10408000247503085076030894900308D87B03082E
:104090001481030870B504000D0032496868FEF70A
:1040A00021FC002817D0A86800280FD0A86803F0CA
:1040B00004FD51EC100B03F005FD00EE100A05F0B5
:1040C000E5FADFF8800401F0A0FF46E0A968B348F4
:1040D00001F09BFF41E0DFF870146868FEF702FC16
:1040E000002808D09FED740A05F0D0FADFF85C04D0
:1040F00001F08BFF31E0DFF858146868FEF7F2FB3F
:10410000002809D005F0FAFA0600310089B2DFF87C
:10411000440401F07AFF20E0686800280CD0DFF842
:10412000E8136868FEF7DEFB002805D10CA168687B
:10413000FEF7D8FB00280CD0DFF81C0401F065FF67
:10414000DFF8180401F061FFDFF8140401F05DFFEF
:1041500003E06968914801F058FF002070BD00003D
:104160003F00000090BE03080088B34028BF03084A
:1041700030BF030838BF03080CBC030870B52DED31
:10418000028B04000D0086A631006868FEF7AAFBCA
:1041900000281BD083A1A868FEF7A4FB00280ED03E
:1041A00000263000C0B2032880F280803000C0B208
:1041B00005F01AFC0A2001F0E4FA761CF1E7A86881
:1041C00001F0CBFCC0B205F00FFC6FE0DFF89413F8
:1041D0006868FEF787FB002802D005F04BFB65E01E
:1041E000DFF884136868FEF77DFB002802D005F035
:1041F000BEFC5BE0DFF850136868FEF773FB002835
:1042000002D005F0A4FC51E08EA16868FEF76AFBBD
:1042100000282BD03100A868FEF764FB00280ED0E0
:1042200005F0BEFBB0EE408A18EE100A04F060FD07
:1042300002000B00DFF8340301F0E7FE36E082A154
:10424000A868FEF74FFB00280BD0E86803F035FCA8
:1042500051EC100B03F036FC00EE100A05F0A4FB45
:1042600024E0A9684D4801F0D0FE1FE068680028EE
:104270000BD0A5496868FEF735FB002805D173A16E
:104280006868FEF72FFB00280CD0B94801F0BDFE8E
:10429000B84801F0BAFEB84801F0B7FEB74801F0DF
:1042A000B4FE03E069683D4801F0AFFE0020BDECBC
:1042B000028B70BD0A0A0A000000000078B70308EC
:1042C00018BC030888B7030824BC030830BC0308E3
:1042D00000407FC000407F4038B504000D005CA165
:1042E0006868FEF7FFFA00281BD0A86801F035FCCB
:1042F000C0B205F0E7FC00280BD07848007804280D
:1043000049DBA86801F029FC01009D4801F07DFE11
:1043100041E07248007804283DDB9A4801F075FEC0
:1043200039E099496868FEF7DDFA002806D0A868E8
:1043300001F013FCC0B205F083FC2CE093496868DF
:10434000FEF7D0FA002806D0A86801F006FCC0B23B
:1043500005F097FC1FE0686800280BD06A49686880
:10436000FEF7C0FA002805D138A16868FEF7BAFA4E
:1043700000280CD0864801F048FE864801F045FE32
:10438000854801F042FE854801F03FFE03E0696880
:10439000024801F03AFE002032BD0000C4B103081B
:1043A00067657400616C6C0014B20308809B03089D
:1043B000BCA6030828A10308E8890308207C030899
:1043C0002DE9F04104000D0042A16868FEF78AFA69
:1043D00000281AD00A2001F0D4F900263000C0B21B
:1043E00003282CDA00273000C0B205F091FD80468A
:1043F000424692B23100C9B2491C694801F005FE3B
:104400000A2001F0BEF9761CE8E7686800280BD0A6
:104410003D496868FEF766FA002805D10BA1686877
:10442000FEF760FA002806D05E4801F0EEFD5E4817
:1044300001F0EBFD03E069685C4801F0E6FD002057
:10444000BDE8F0816C696D00736574003F00000089
:1044500072780000C0900308A49B030838B50400DC
:104460000D0053496868FEF73DFA002809D051490C
:10447000A868FEF737FA00282AD04F4801F0C5FD9A
:1044800026E04E496868FEF72DFA002803D04C4814
:1044900001F0BBFD1CE0686800280BD01A49686871
:1044A000FEF720FA002805D10BA16868FEF71AFA7A
:1044B000002809D0284801F0A8FD424801F0A5FDD8
:1044C000414801F0A2FD03E06968384801F09DFD14
:1044D000002032BD676574003F0000003E000020F0
:1044E00098B70308A8B7030840BF030848BF0308EC
:1044F00050BF0308B8B6030848A1030858BF030813
:10450000F0BE030860BF030838BE030868A10308B3
:10451000EC9003081891030824AD030828B203089F
:104520003C6B030868BF0308B0BF03083CAD030839
:1045300054AD03086CAD0308B8B703083CB20308D8
:1045400070BF030884AD030898BE030850B2030887
:1045500078BF03089CAD0308D8A60308548103085C
:10456000CC95030880BF030890BE0308C8B70308B2
:1045700088A10308F4950308449103081C960308D6
:10458000F4A6030864B2030888BF030890BF0308B9
:1045900078B2030850870308888703081C8A030839
:1045A00010A703088CB20308D8B70308C4B10308E6
:1045B00098BF0308A0BF0308A0B20308A8BF030860
:1045C000E8B70308E88C0308188D030881EA0003A4
:1045D0009B0717D1820707D010F8012B11F8013B78
:1045E000BAB19A42F6D014E002680B689A42A2F17E
:1045F000013301BF934313F0803F50F8042F51F86B
:10460000043FF3D010F8012B11F8013B0AB19A4294
:10461000F8D0D01A704730B4002513E050F8042BBE
:10462000D30744BFA9F101039A18091F042942F8CE
:10463000045BFAD213468C0744BF15809B1CC90744
:1046400048BF1D7050F8041B0029E7D130BC7047EB
:104650002DE9FB4F82B006001700DDF838800F9C73
:10466000DDF84090DDF844A03000002807D150204C
:1046700080F31188BFF34F8FBFF36F8FFEE7B8F160
:104680000A0F07D3502080F31188BFF34F8FBFF379
:104690006F8FFEE74946380080B200F03FFD05000D
:1046A000002D61D0286B390089B200EB8100001F1A
:1046B000C008C0000190019810F0070F07D05020EB
:1046C00080F31188BFF34F8FBFF36F8FFEE7380081
:1046D00080B20090534642460399280000F06EFCD9
:1046E000049A3100019805F037FC2860002C00D0B6
:1046F000256005F0B2FCDFF86C160868401C086005
:10470000DFF864261068002806D1156008680128C3
:104710000CD100F08BFC09E0DFF8BC060068002833
:1047200004D11068C06A804500D31560DFF8AC067C
:104730000168491C016000686864DFF8A4160A6813
:104740000123E86A83401A430A60291DDFF8942692
:10475000EB6A1420434302EB030005F02BFD5FF0EE
:10476000010B05F094FC01E05FF0FF3BBBF1010F92
:1047700013D1DFF86406006800280ED0DFF8E805E2
:104780000068C06A404508D25FF08050DFF83C17EF
:104790000860BFF34F8FBFF36F8F584605B0BDE879
:1047A000F08FF8B504000025002C2AD0DFF894061D
:1047B0000068002807D0502080F31188BFF34F8F86
:1047C000BFF36F8FFEE700F028F9DFF804070068F9
:1047D00020180600DFF890753868001D05F011FDFF
:1047E000002808D13868DFF8F8150A680123C06A84
:1047F00083409A430A60300000F06CFC00F013F92B
:104800000500002D08D15FF08050DFF8C016086069
:10481000BFF34F8FBFF36F8FF1BD70B5040005F08C
:104820001CFC002C03D1DFF84005056800E02500E2
:10483000281D05F0E6FC00280FD1DFF8A815EA6A6C
:10484000142042438858002807D1DFF894150A68DD
:104850000123E86A83409A430A60A86A002803D0CB
:1048600015F1180005F0CDFCDFF82867291D300090
:1048700005F0A0FC05F00BFCDFF8EC14086885429D
:1048800027D1DFF854050068002816D0DFF8B405FA
:104890000068002807D0502080F31188BFF34F8FA5
:1048A000BFF36F8FFEE75FF08050DFF820160860DF
:1048B000BFF34F8FBFF36F8F16E03068DFF8A4248B
:1048C0001268904202D1002008600DE000F0FDF96E
:1048D0000AE0DFF804050068002805D005F0BDFBFC
:1048E00000F0C1FC05F0D3FB70BD10B40200002045
:1048F0001300002A07D1502181F31188BFF34F8F95
:10490000BFF36F8FFEE75969DFF88846A14209D1EE
:10491000996ADFF8384AA14204D0996A002901D186
:104920000121080010BC704770B504002500002C60
:1049300007D1502080F31188BFF34F8FBFF36F8FE3
:10494000FEE7002D30D0DFF82064306885422BD0A0
:1049500005F083FB2800FFF7C8FF012822D1281D9E
:1049600005F04FFCDFF878140A680123E86A8340F9
:104970001A430A60291DDFF86C24EB6A14204343B4
:1049800002EB030005F016FCE86A3168C96A884248
:1049900008D35FF08050DFF880170860BFF34F8FB7
:1049A000BFF36F8F05F073FB70BD1FB50020039040
:1049B000002002900020019000200090002380221F
:1049C000DFF88C190FF2D150FFF742FE0400012CE2
:1049D00002D105F02BFC0400012C13D1502080F3F0
:1049E0001188BFF34F8FBFF36F8F0120DFF8E813FB
:1049F00008600020DFF8D814086000F01EFF05F002
:104A0000D2FA09E0002C07D1502080F31188BFF3BF
:104A10004F8FBFF36F8FFEE71FBDDFF828040168DB
:104A2000491C0160704770B50025DFF818643068D4
:104A3000002807D1502080F31188BFF34F8FBFF3B8
:104A40006F8FFEE705F009FB3068401E306030686C
:104A5000002853D1C348006800284FD0DFF8EC1875
:104A60000868002826D0C868C068040014F118003F
:104A700005F0C7FB201D05F0C4FBDFF864130A68CE
:104A80000123E06A83401A430A60211DDFF85423A2
:104A9000E36A1420434302EB030005F08BFBE06A5A
:104AA000B1490968C96A8842D8D30120DFF874196E
:104AB0000860D3E7DFF86869306800280ED03068F6
:104AC00000280BD000F07BF8002803D00120DFF88D
:104AD000541908603068401E3060F0E7DFF8440980
:104AE000006801280AD1012005005FF08050DFF83E
:104AF000DC130860BFF34F8FBFF36F8F05F0C7FA69
:104B0000280070BDDFF8C80300687047954800684A
:104B100070472DE9F84F06000F0015005FF0000800
:104B20000A24FFF77AFF8F480068874242D3641E49
:104B30000122AC48142101FB04F101445FEA481052
:104B4000304400F019FB10EB08008046002CEED139
:104B50000222DFF82C0401685FEA4810304400F0BC
:104B60000BFB814619EB08090222DFF824040168D7
:104B70005FEA4910304400F0FFFA82461AEB090A56
:104B8000042299495FEA4A10304400F0F5FA83465E
:104B90001BEB0A0B0322DFF8FC135FEA4B103044D7
:104BA00000F0EAFA10EB0B008046002D02D000F076
:104BB00080FE2860FFF737FF4046BDE8F28F2DE901
:104BC000F04100279F48006800286FD1DFF80003FC
:104BD0000168491C01600468002C1CD1DFF8A01397
:104BE00008680068002807D0502080F31188BFF3C0
:104BF0004F8FBFF36F8FFEE7D1F80080DFF890038F
:104C000002680A60C0F80080DFF81C080168491CCF
:104C1000016000F028FBDFF81488D8F80000844217
:104C200038D3DFF85C1308680068002804D15FF00F
:104C3000FF30C8F800002DE00868C068C0680500B3
:104C400068680600B44202D2C8F8006022E0281D5D
:104C500005F0D7FAA86A002803D015F1180005F06E
:104C6000D0FA5F490A680123E86A83401A430A6060
:104C7000291D5C4AEB6A1420434302EB030005F054
:104C800099FAE86A38490968C96A8842C9D3012093
:104C90000700C6E7534934480068C26A14204243FB
:104CA0008858022807D30120070004E0DFF87007C6
:104CB0000168491C0160DFF86C070068002801D01A
:104CC000012007003800BDE8F08110B55D4800689C
:104CD000002804D00120DFF84C17086040E00020D5
:104CE000DFF840170860DFF8484700F0E2FD206079
:104CF000DFF8401708682268904207D21A48026815
:104D0000536D2068C31808681B1A53652068086033
:104D100033480068B0FA80F1D1F11F011422314B01
:104D200002FB01F01858002807D1502080F31188A9
:104D3000BFF34F8FBFF36F8FFEE702FB01F203EB70
:104D40000200426852684260426810F108039A42C9
:104D500002D14268526842604068C068024A1060EE
:104D600010BD000018D5002008D50020F8B50400BB
:104D70000D00002C07D1502080F31188BFF34F8F16
:104D8000BFF36F8FFEE7DFF8B476386810F11801D3
:104D9000200005F01BFA3868001D05F032FA0028E3
:104DA00007D138680E490A680123C06A83409A43D4
:104DB0000A6015F1010F05D13868011D754805F02D
:104DC000F9F907E0DFF87C060068281806003000D3
:104DD00000F080F9F1BD000024D5002034D500207A
:104DE00020D500202CCD00208CD3002070B50400ED
:104DF0000D00002C07D1502080F31188BFF34F8F96
:104E0000BFF36F8FFEE7DFF83466306810F11801EA
:104E1000200005F0CFF93068001D05F0F2F90028F8
:104E200008D13068DFF818160A680123C06A834089
:104E30009A430A60DFF80C060668AE19300000F0ED
:104E400049F970BD38D5002038B50500E868C46858
:104E5000002C07D1502080F31188BFF34F8FBFF390
:104E60006F8FFEE714F1180005F0CBF9DFF8D805D5
:104E70000068002815D1201D05F0C3F9DFF8C01522
:104E80000A680123E06A83401A430A60211DDFF8A3
:104E9000BC25E36A1420434302EB030005F08AF9C2
:104EA00005E014F11801DFF8A40405F083F9DFF838
:104EB0008C050068C06AE16A884205D201200121A0
:104EC000DFF87425116000E0002032BD04ED00E041
:104ED0001CD50020002807D1502181F31188BFF391
:104EE0004F8FBFF36F8FFEE7DFF83C150968016055
:104EF000DFF85015096841607047F8B504000D00EF
:104F0000002C07D1502080F31188BFF34F8FBFF3DF
:104F10006F8FFEE7002D07D1502080F31188BFF37B
:104F20004F8FBFF36F8FFEE705F097F8DFF814059A
:104F30000668286810F1010F01D100271AE0DFF898
:104F4000E80400682168884204D06068864201D382
:104F500001270FE06068301A2968884209D2296861
:104F6000891B6068411829602000FFF7B3FF002704
:104F700000E0012705F08BF83800F2BD00000000CA
:104F80000CD500200120DFF8B01408607047000045
:104F900010D50020A0D3002010B5040000F070F858
:104FA000DFF8A80400680228F8D35FF080505A495F
:104FB0000860BFF34F8FBFF36F8FEFE72DE9F0412C
:104FC00004000D0016001F005FF00008B8F1100F7C
:104FD0000CD215F8080004EB080181F8340015F82C
:104FE0000800002802D018F10108EFE7002084F83B
:104FF00043000A2E01D309200600E662E664002081
:105000002065201D05F0D3F814F1180005F0CFF845
:105010002461D6F10A00A06164620020606500206E
:10502000A065002084F85C00BDE8F08170B5002424
:105030000A2C09D2DFF81404142101FB04F10844FE
:1050400005F0A6F8641CF3E7DFF80454280005F027
:105050009FF8DFF80064300005F09AF8BB4805F0CF
:1050600097F8DFF8F40305F093F8DFF8F00305F0A4
:105070008FF8DFF8EC030560DFF8E803066070BD29
:1050800070B5DFF8E4532868002822D0FFF7C5FC8C
:10509000DFF8C4633068002801D1012400E0002457
:1050A000FFF7C1FC002CECD104F0D7FFF068C66814
:1050B000301D05F0A6F8DFF8B4030168491E016051
:1050C0002868401E286004F0E2FF300000F0C2F8BB
:1050D000D7E770BD10B50400DFF8600301684C60CD
:1050E000DFF8601309688C4207D20068011DDFF801
:1050F0007403006805F06AF80CE00068011DDFF831
:105100006003006805F062F8DFF8200301688C4254
:1051100000D2046010BD000004ED00E02DE9F8436A
:1051200007000D00002D06D1380080B2800005F088
:10513000B3FA060000E02E00002E0BD0602005F030
:10514000ABFA0400002C01D0266304E0300005F027
:1051500007FB00E00024002C0BD0380080B2860052
:105160005FF0A508D4F8309042463100484605F07B
:1051700033FB2000BDE8F2832DE9F84304000D0065
:1051800016005FF000092868002855D02800416803
:1051900049684160416810F10802914202D14168BA
:1051A000496841604068C068804628004168496895
:1051B0004160416810F10802914202D1416849689A
:1051C00041604068C06807005FEA4910275017F146
:1051D00034005FEA491121444860786C5FEA491164
:1051E000214488605FEA491020440673F86A5FEA48
:1051F0004911214408613000C0B2032807D1B86AC0
:10520000002804D002205FEA491121440873F86C99
:105210005FEA491121444861786D5FEA49112144F0
:105220008861386B00F00BF85FEA491121448883EC
:1052300019F101094745B8D14846BDE8F28301009C
:1052400000200A78A52A02D1491C401CF9E78008F1
:1052500080B2704710B50400206B05F081FA200081
:1052600005F07EFA10BDDFF8F8211068006800280C
:1052700005D15FF0FF30DFF8B421106007E010685F
:10528000C068C06801004868DFF8A021106070475E
:10529000DFF8E0010068002801D1012007E0DFF815
:1052A000A8010068002801D1022000E0002070471A
:1052B0002DE9F04104002500002C44D0DFF8B08136
:1052C000E86AD8F80010C96A88423CD2A869002868
:1052D00005D4D8F80000C06AD0F10A00A861DFF850
:1052E0006C6114276869E96A79433144884226D1A0
:1052F000281D04F086FF00280CD1E86A7843305856
:10530000002807D1DFF870110A680123E86A83409A
:105310009A430A60D8F80000C06AE862DFF85811C2
:105320000A680123E86A83401A430A60291DE86A73
:1053300007FB00F706EB070004F03CFF03E0D8F89A
:105340000000C06AE862BDE8F081000078D3002068
:1053500048C0030870B5040025000026002C50D07A
:10536000DFF80C010068854207D0502080F31188D7
:10537000BFF34F8FBFF36F8FFEE7286D002807D173
:10538000502080F31188BFF34F8FBFF36F8FFEE77C
:10539000286D401E2865E86AE96C884231D0286D86
:1053A00000282ED1281D04F02CFF00280FD1DFF893
:1053B0009C10EA6A142042438858002807D1DFF87D
:1053C00080100A680123E86A83409A430A60E86C07
:1053D000E862E86AD0F10A00A861DFF864100A68A0
:1053E0000123E86A83401A430A60291DDFF85C2024
:1053F000EB6A1420434302EB030004F0DBFE0120C0
:105400000600300070BDDFF868100868002803D07F
:105410000868026D521C02650868704700000000B1
:1054200028D500202CD5002030D5002018000020E1
:1054300040D500203CD500202CD5002008D50020E8
:1054400020D500201CD5002038D500202CCD0020F0
:1054500050D3002064D300208CD30020A0D30020A0
:105460000CD5002010D5002014D5002018D5002020
:1054700008D5002024D5002020D50020DFF83012E8
:1054800081F82300704780B500F079F800F04FF8FC
:10549000DFF81C020021816401BDF8B52DED028BFF
:1054A0000400B0EE408A25000126DFF80472B878C7
:1054B00000282CD10120B8700020F870FFF722FBE3
:1054C00000EE100AB8EE400A87ED0F0A87ED0E8A4B
:1054D000280097F82310C0B2884203D02800C0B239
:1054E000FFF7CCFFDFF8CC01007804280BDB18EEC7
:1054F000100A03F0FDFB02000B002100C9B2DFF827
:10550000B80100F082FD786BFFF70EFA0AE0DFF8D1
:10551000A4010078022803DBDFF8A00100F075FD8C
:10552000002006003000C0B2BDEC028BF2BD10B509
:105530000124DFF87C01817801290DD100218170DF
:105540000121C170DFF86C01007804280FDBDFF85F
:10555000700100F05AFD0AE0DFF8580100780228D7
:1055600003DBDFF8600100F050FD002004002000A4
:10557000C0B210BD0120DFF838110871704700205B
:10558000DFF82C110871704700002DE9F0412DED76
:10559000010A81B004002000C0B2002819D00426FE
:1055A00001AFDFF80C5115F14808320039004046D0
:1055B00002F08EFEDFF8FC000078052808DBA86CFE
:1055C00003F096FB02000B00DFF8FC0000F01DFD6D
:1055D0002C71BDE8F381000010B52DED028B82B077
:1055E000B0EE408A334C2078042803DBDFF8DC007F
:1055F00000F00BFD0321B0EE480A042000F0DFF8B4
:105600002078042802DB27A000F0FFFCB5EE408ADA
:10561000F1EE10FA1EDD264C0020009000239FEDD5
:10562000140A28EE000AF7EE000A80EE200ABCEE0B
:10563000C00A10EE102A0421206C04F04AFEFFF785
:1056400061FA00210091002302000121206C04F086
:1056500040FE08E0002000900023002203211448AF
:10566000006C04F036FE02B0BDEC028B10BD0000F1
:1056700000007A4410B52DED028B82B00C4890EDFD
:10568000128A03F0CEFF0400009418EE100A03F013
:105690002FFB02000B000E4800F0B7FC02B0BDEC7F
:1056A000028B10BD20730000014890ED120A704774
:1056B000A8D100203E00002014820308F4B30308A0
:1056C0007CA8030808B40308CCBC030898A8030806
:1056D00008A2030810B4020052B2002A09D50A0138
:1056E000C64B040064B214F00F04234403F8042CE6
:1056F00004E00A01C24B040064B21A5510BC7047A2
:10570000BFF34F8FBF490A6812F4E062BE480243FC
:105710000A60BFF34F8F00BFFDE710B50400601EA5
:10572000B0F1807F01D301200EE0601EB749086010
:105730000F215FF0FF30FFF7CDFF0020B449086074
:105740000720B4490860002010BDF8B55FF40031AF
:105750005FF0006005F0ADF84FF4407005F070F8B0
:10576000684605F0BBF801984FF47A71B0FBF1F090
:10577000FFF7D3FF0F215FF0FF30FFF7ABFF05B05E
:1057800000BD10B504000120B4FBF0F0FFF709F8EC
:1057900010BD00220100481E002906D020210A0069
:1057A00011004A1E0029FBD1F4E770470100481E92
:1057B0000029FBD1704780B5FFF7A2FF01BD70B58E
:1057C0002DED048B0400B0EE408A0D009248007865
:1057D0002100C9B288422DD3B5EE408AF1EE10FA0D
:1057E00006D582A000F011FCBFEE000A28EE008A68
:1057F000FCEEC88A18EE901A7DA000F006FCB8EE08
:10580000680A38EE409A00262800C0B2864211DAB3
:10581000B2EE040A29EE009ABCEEC90A10EE101A84
:105820000A20B1FBF0F200FB121172A000F0EDFBB8
:10583000761CE9E7BDEC048B70BD7FB50C24002518
:1058400001AE2A002100300004F0C6FF0121202013
:1058500005F00CF94CF24F3002900020ADF8060034
:105860000020ADF80C004AF6C770ADF804006B4E8E
:1058700001A9300005F036F90121300005F096F954
:1058800001220121300005F085F937208DF8000054
:1058900001208DF8030005208DF8010000208DF80F
:1058A0000200684604F0D1FF0121300005F055F9EF
:1058B0007FBD80B5594805F04EF901005848008871
:1058C0004CF2503202FB001002BD10B5534C0121C6
:1058D000200005F070F9002807D00121200005F014
:1058E00081F94F480188491C018010BD30B5A9B02D
:1058F00007A84C49D1E90023C0E90023FFF706F9C6
:1059000005900598112804D30599474800F07DFBC0
:105910006AE0464D06AA05992800FFF7FAF80590B7
:10592000434800F072FB069800285AD000200490EB
:1059300004980599884254D204984001284480690B
:105940006421A1FB0001069A002305F051F904002F
:10595000002C1ED00499049A049B049803944901D6
:105960002944898B02915101294409690191590106
:1059700029448968009107A940012844007B0B5CF9
:1059800004984001284442682A4909A805F048FAC9
:105990001CE00499049A049B049849012944898BCA
:1059A00002915101294409690191590129448968E9
:1059B000009107A940012844007B0B5C049840013A
:1059C000284442681C4909A805F02AFA09A90AA036
:1059D00000F01BFB0A20FEF7E4FE0498401C049034
:1059E000A6E7164800F011FB29B030BD2D000000DD
:1059F00025642E002564000025730A0018ED00E0E0
:105A000000E400E00CED00E00400FA0514E000E022
:105A100018E000E010E000E03E000020001400402C
:105A20008CD5002040C003089C9D03080CC40020B6
:105A3000BC85030854AB030870AB0308F885030862
:105A40002DE9FC4F83B00BB100241C6004462546B1
:105A500000E06D1C2878A0F10903052BF9D320285C
:105A6000F7D02D2816BF2B2815F8018B4FF02B08E7
:105A7000002A019103D4012A01D0252A03DB002941
:105A800047D00C6045E0002A0ADD102A04BF2878C0
:105A9000302802BF687840F0200078280ED10AE054
:105AA0002878302818BF0A2208D1687840F02000F2
:105AB000782802D11022AD1C00E00822029500E0F7
:105AC0006D1C28783028FBD04FF0000926A02E4608
:105AD000CA468DF80000934607E09DF80070C71B8A
