type=LURC-S
mode=application
version =1.0.0.1 STD-2024.7.16
hash=ACBC80D84ED2300C90F2F9ED70FFB7DE
:020000040802F0
:1000000008DB0020FD620308A1650308A36503085F
:10001000A5650308A7650308A9650308000000009B
:1000200000000000000000000000000025DE0208C3
:10003000AB65030800000000CDDD0208DF6F020899
:1000400065680308696803086D6803087168030838
:1000500075680308796803087D68030881680308E8
:1000600085680308896803081D2603088D6803084E
:100070009168030895680308996803089D68030858
:10008000A1680308A5680308A9680308AD68030808
:10009000B1680308B5680308B9680308BD680308B8
:1000A000E5D20208C1680308C5680308C9680308E7
:1000B00001FB0208CD68030829FB0208D168030888
:1000C000D5680308D9680308DD680308E1680308F8
:1000D000E5680308158B0208E9680308CD1F0308CB
:1000E000ED680308F1680308F56803083B6D020832
:1000F000A56D02085DD20208F9680308FD680308CF
:100100000169030805690308332C0308096903081A
:100110008D1B0308AD1D03080D690308453C02084B
:100120001169030815690308196903081D690308A3
:100130002169030825690308296903082D69030853
:100140003169030835690308396903083D69030803
:100150004169030845690308496903084D690308B3
:100160005169030855690308596903085D69030863
:100170006169030865690308696903086D69030813
:1001800071690308756903085D92020879690308BB
:100190007D69030881690308856903088969030883
:1001A00000000000000000008D69030838B504005D
:1001B0000D002900200001F0A3FD002801D101203D
:1001C00000E00020C0B232BDF8B50020039000204E
:1001D0000290DFF8200901900420009000234FF4E2
:1001E0008072DFF814190FF20D0001F0CBFD05B09D
:1001F00000BD000010B50400002001F0A8FEDFF8EB
:10020000FC0800880121B0FBF1F001F064FEDFF88A
:10021000F0080078002807D0012802D0032811D068
:10022000EDE702F002FEEAE7002002F0CFFE10EE5A
:10023000100A02F0FFFE02000B00DFF8C80803F00E
:1002400046F9DCE703F012FDD9E738B504000D00EC
:10025000DFF8B4186868FFF7A9FF00281DD0A86868
:10026000002814D0A86803F036FE0A280FDBA8681F
:1002700003F031FEDFF8841808800320DFF88018CF
:100280000870DFF87008006801F0E8FE2EE0A96849
:10029000DFF8780803F01BF928E0DFF874186868C5
:1002A000FFF784FF002805D0DFF84808006801F058
:1002B0004EFE1BE0686800280CD0DFF8581868680C
:1002C000FFF774FF002805D140A16868FFF76EFFB3
:1002D00000280BD0DFF8400803F0F9F8DFF83C08FD
:1002E00003F0F5F8DFF8380803F0F1F8002032BD2C
:1002F00070B504000D000026DFF828186868FFF7C5
:1003000055FF002809D003F02DFE06003100C9B2C8
:10031000DFF8140803F0DBF817E0686800280CD059
:10032000DFF8F0176868FFF741FF002805D127A123
:100330006868FFF73BFF002807D0DFF8F00703F0FD
:10034000C6F8DFF8480C03F0C2F8F6B2300070BD12
:10035000F8B504000D00686800281CD0A8680028C3
:1003600014D0E868002811D0E86803F0B4FD060056
:10037000A86803F0B0FD0700686803F0ACFD320028
:1003800092B2390089B203F064FE1CE0DFF8A007E6
:1003900003F09DF817E0686800280CD0DFF87417A8
:1003A0006868FFF703FF002805D108A16868FFF718
:1003B000FDFE002807D0DFF87C0703F088F8DFF89F
:1003C000D00B03F084F80020F2BD00003F000000D5
:1003D00070B588B004000D00DFF85C176868FFF79F
:1003E000E5FE002802D003F0FAFECFE0DFF84C175C
:1003F0006868FFF7DBFE00281CD0A868002814D02E
:10040000E868002811D0286900280ED0286903F078
:1004100062FD0600E86803F05EFD320092B2010062
:1004200089B2A86803F0FDFEB0E0DFF8040703F02E
:100430004EF8ABE0DFF808176868FFF7B7FE002852
:100440000ED0A868002806D0A86803F044FD80B24A
:1004500003F092FF9AE0DFF8D80603F038F895E051
:10046000DFF8E0166868FFF7A1FE00282FD0A86823
:10047000002827D0E868002824D068461E2104F010
:100480001FF8E86803F027FD0600A86803F023FDC5
:100490006A46310004F046F83EA003F018F8002642
:1004A000E86803F018FD864207DA6846815DDFF8E8
:1004B000980603F00CF8761CF2E7694636A003F0C4
:1004C00006F863E0DFF8680603F001F85EE0DFF8A5
:1004D0007C166868FFF76AFE002807D003F0BFFFAC
:1004E00080B201002DA002F0F2FF4FE0DFF86016AD
:1004F0006868FFF75BFE002808D003F0ACFF060039
:10050000310049B225A002F0E2FF3FE0DFF8841A93
:100510006868FFF74BFE002802D003F098FF35E033
:10052000686800280CD0DFF8EC156868FFF73EFE1D
:10053000002805D18FA16868FFF738FE002820D079
:10054000DFF8580A02F0C3FFDFF8540A02F0BFFFD9
:10055000DFF8500A02F0BBFFDFF84C0A02F0B7FFE9
:10056000DFF8480A02F0B3FFDFF8440A02F0AFFFF9
:10057000DFF8400A02F0ABFFDFF83C0A02F0A7FF09
:1005800004E06968DFF8340A02F0A1FF002008B037
:1005900070BD00000A0000000A25730025640A00EF
:1005A00070B588B004000D00DFF8141A6868FFF712
:1005B000FDFD002821D0A868002819D0E86800288F
:1005C00016D02869002813D0E86803F084FC0600E0
:1005D000A86803F080FC2A69310004F088F9A86853
:1005E00003F079FC0100DFF8DC0902F070FFBDE0E8
:1005F000DFF83C0502F06BFFB8E0DFF840156868F3
:10060000FFF7D4FD002821D0A868002819D0E86899
:10061000002816D02869002813D0E86803F05BFC96
:100620000600A86803F057FC2A69310004F0DAF9E3
:10063000A86803F050FC0100DFF8880902F047FFCA
:1006400094E0DFF8EC0402F042FF8FE0DFF8F414EE
:100650006868FFF7ABFD002834D0A86800282CD0CC
:10066000E868002829D068461E2103F029FFE868C1
:1006700003F031FC0600A86803F02DFC6A46310047
:1006800004F01EF9A86803F026FC0100DFF8380921
:1006900002F01DFF0026E86803F01DFC864207DA21
:1006A0006846815DDFF8A00402F011FF761CF2E7D6
:1006B00069468DA002F00BFF58E0DFF8740402F0E9
:1006C00006FF53E0DFF870146868FFF76FFD00283D
:1006D00015D0A86800280DD0A86803F0FCFB04F032
:1006E000DEF8A86803F0F7FB0100DFF8E00802F08D
:1006F000EEFE3BE0DFF8380402F0E9FE36E07BA1D5
:100700006868FFF753FD002806D0DFF8C418DFF84B
:10071000C40802F0DCFE29E0686800280CD0DFF88D
:10072000F4136868FFF742FD002805D111A168683D
:10073000FFF73CFD002814D0DFF89C0802F0C7FE4C
:10074000DFF8980802F0C3FEDFF8940802F0BFFE5D
:10075000DFF8900802F0BBFEDFF88C0802F0B7FE6D
:1007600004E06968DFF8540802F0B1FE002008B028
:1007700070BD00003F00000038B504000D0004F01B
:10078000A9F9002004F072FC002032BDF8B5040085
:100790000D0057A16868FFF709FD00280DD0A86873
:1007A000002805D0A86803F030F904F05FFC98E059
:1007B000DFF8D40A02F08BFE93E0DFF8D01A686805
:1007C000FFF7F4FC002816D0A86800280ED0A8680F
:1007D00003F081FB012809DB0126A86803F07BFBFD
:1007E000471EBE40300004F041FC7AE0DFF8980A72
:1007F00002F06DFE75E0DFF8981A6868FFF7D6FC26
:10080000002803D0002004F031FC6AE039A16868B8
:10081000FFF7CCFC002808D004F060FC0600310093
:10082000DFF8740A02F053FE5BE0DFF8701A6868C4
:10083000FFF7BCFC002808D004F016FC80B20100D1
:10084000DFF85C0A02F043FE4BE02BA16868FFF77B
:10085000ADFC002808D0A868002842D0A86803F0A2
:100860003AFB04F054FC3CE0686800280BD0A9492E
:100870006868FFF79BFC002805D120A16868FFF796
:1008800095FC002828D0DFF81C0A02F020FE0F217A
:10089000DFF8140A02F01BFE04F0E6FB80B2010050
:1008A000DFF8080A02F013FEDFF8040A02F00FFE78
:1008B000DFF8000A02F00BFE052003F049F8DFF82C
:1008C000F80902F004FEDFF8F40902F000FEDFF898
:1008D000F00902F0FCFD04E06968DFF8E00602F0D0
:1008E000F6FD0020F2BD00000A257300656E64006D
:1008F0006D617000676574006E6F00003F0000005E
:1009000070B504000D00DFF8BC196868FFF74EFCF5
:1009100000282ED07C49A868FFF748FC002818D092
:10092000E868002811D0E86803F0D5FA0A280CDB43
:10093000E86803F0D0FA7149088001207049087016
:100940006C48006801F08AFBCCE0794802F0BFFDFA
:10095000C8E06F49A868FFF729FC002804D0654863
:10096000006801F0F4FABDE0DFF85C0902F0AFFDC9
:10097000B8E065496868FFF719FC002840F0B280CC
:1009800063496868FFF712FC002840F0AB80DFF88D
:100990003C196868FFF70AFC00281AD0A8680028EC
:1009A00000F0A080A86804F0E0FB51EC100B0022DE
:1009B000002304F0DFFB00F29580A86804F0D5FB6B
:1009C00051EC100B04F0EEFB00EE100A02F0AEF951
:1009D00088E045A16868FFF7E9FB002803D00A20FA
:1009E00004F06FFE7EE041A16868FFF7DFFB00289E
:1009F00003D00B2004F065FE74E0DFF8D4186868BB
:100A0000FFF7D4FB002806D0A86803F064FAC0B250
:100A100004F09EFE66E049496868FFF7C7FB0028BE
:100A20000CD0E86803F057FA0600A86803F053FA00
:100A3000310089B2C0B202F011FA53E0414968684E
:100A4000FFF7B4FB002806D0A86803F044FAC0B250
:100A500002F024FA46E0686800280BD02D49686847
:100A6000FFF7A4FB002805D121A16868FFF79EFBD2
:100A7000002832D0DFF85C0802F029FDDFF85808C2
:100A800002F025FDDFF8540802F021FDDFF85008E0
:100A900002F01DFDDFF8900B02F019FDDFF8900B5E
:100AA00002F015FD0A2002F053FFDFF8880B02F078
:100AB0000EFDDFF8840B02F00AFD0A2002F048FF69
:100AC000DFF8780B02F003FDDFF8740B02F0FFFC97
:100AD000DFF8700B02F0FBFC04E06968DFF8DC046F
:100AE00002F0F5FC002070BD6D6561007265660066
:100AF0003F000000C0D5002048630308CCD600208A
:100B0000E3D60020B45C030820660308C85C030831
:100B100028660308E06503084C480308845303086B
:100B2000A053030830660308DC5C03087048030820
:100B30009C5F0308944E0308386603084066030868
:100B40004866030850660308586603086066030891
:100B50006866030870B52DED068B04000D00DFF804
:100B6000E81A6868FFF722FB002853D0A86800281D
:100B70004BD0E868002848D02869002845D068692B
:100B8000002842D0A86803F0A6F9C0B204F084FFA0
:100B9000686904F0EAFAB0EE408AF0EE608A2869EB
:100BA00004F0E3FAB0EE409AF0EE609AE86804F0E0
:100BB000DCFAB0EE40AAF0EE60AAA86803F08BF968
:100BC000060051EC180B04F0EDFA01EE100AB0EE3D
:100BD000418A51EC190B04F0E5FA00EE900AB0EEF0
:100BE000481AB0EE608AF0EE418A51EC1A0B04F01C
:100BF000D9FA00EE100AB0EE681AF0EE480A0021A9
:100C00003000C0B204F0D5FEBCE1DFF8400A02F0CB
:100C10005EFCB7E1DFF8381A6868FFF7C7FA00280A
:100C200053D0A86800284BD0E868002848D028692D
:100C3000002845D06869002842D0A86803F04BF925
:100C4000C0B204F029FF686904F08FFAB0EE408A60
:100C5000F0EE608A286904F088FAB0EE409AF0EE6F
:100C6000609AE86804F081FAB0EE40AAF0EE60AA5B
:100C7000A86803F030F9060051EC180B04F092FA62
:100C800001EE100AB0EE418A51EC190B04F08AFA19
:100C900000EE900AB0EE481AB0EE608AF0EE418A9B
:100CA00051EC1A0B04F07EFA00EE100AB0EE681A4E
:100CB000F0EE480A01213000C0B204F07AFE61E192
:100CC000DFF8880902F003FC5CE1DFF8481B686884
:100CD000FFF76CFA002853D0A86800284BD0E868CA
:100CE000002848D02869002845D06869002842D0EB
:100CF000A86803F0F0F8C0B204F0CEFE686904F012
:100D000034FAB0EE408AF0EE608A286904F02DFAD9
:100D1000B0EE409AF0EE609AE86804F026FAB0EE81
:100D200040AAF0EE60AAA86803F0D5F8060051ECDE
:100D3000180B04F037FA01EE100AB0EE418A51ECBC
:100D4000190B04F02FFA00EE900AB0EE481AB0EE3C
:100D5000608AF0EE418A51EC1A0B04F023FA00EE9F
:100D6000100AB0EE681AF0EE480A02213000C0B254
:100D700004F01FFE06E1DFF8D40802F0A8FB01E151
:100D8000DFF8941A6868FFF711FA002853D0A868B2
:100D900000284BD0E868002848D02869002845D0B2
:100DA0006869002842D0A86803F095F8C0B204F042
:100DB00073FE686904F0D9F9B0EE408AF0EE608AFB
:100DC000286904F0D2F9B0EE409AF0EE609AE86833
:100DD00004F0CBF9B0EE40AAF0EE60AAA86803F0E8
:100DE0007AF8060051EC180B04F0DCF901EE100A59
:100DF000B0EE418A51EC190B04F0D4F900EE900AE0
:100E0000B0EE481AB0EE608AF0EE418A51EC1A0B4F
:100E100004F0C8F900EE100AB0EE681AF0EE480AC5
:100E200003213000C0B204F0C4FDABE0DFF81C08C1
:100E300002F04DFBA6E0DFF8E4196868FFF7B6F9A9
:100E4000002814D0A86800280CD0A86803F043F844
:100E5000C0B204F021FEA86803F03DF8C0B204F06F
:100E600044FE8FE0DFF8E40702F031FB8AE0DFF8B0
:100E7000B0196868FFF79AF900282AD0A8680028F6
:100E800022D0A86803F027F8C0B204F071FD060074
:100E90003000C0B200280BD1A86803F01CF8C0B223
:100EA00004F01EFD0100DFF8D00A02F010FB69E03B
:100EB000A86803F010F8C0B204F012FD0100DFF8DA
:100EC000BC0A02F004FB5DE0DFF8800702F0FFFAE5
:100ED00058E0DFF8AC1A6868FFF768F9002805D019
:100EE0000221DFF8A00A02F0F2FA4BE0686800285D
:100EF0000CD0DFF8941A6868FFF758F9002805D17C
:100F000025A16868FFF752F9002837D0DFF87C0A7E
:100F100002F0DDFADFF8780A02F0D9FADFF8740A95
:100F200002F0D5FADFF8700A02F0D1FA022002F0DE
:100F30000FFDDFF8EC0A02F0CAFADFF8E80A02F067
:100F4000C6FADFF8E40A02F0C2FADFF8E00A02F0BB
:100F5000BEFA0A2002F0FCFC00263000C0B20228D3
:100F600010DA3000C0B204F0BBFC02003100C9B29C
:100F7000DFF8BC0A02F0ABFA761CEEE769680F48AE
:100F800002F0A5FA0020BDEC068B70BD9448030862
:100F9000AC450308706603083F000000BC5303081B
:100FA000AC5F0308B8480308DC480308004903089D
:100FB00024490308484903086C490308F05C030806
:100FC00054630308045D0308BC5F0308CC5F030897
:100FD0003401010860630308B44E03081C41030890
:100FE0004841030874410308A041030870B52DED82
:100FF000028B05000E00DFF8741A7068FFF7D6F850
:10100000002843D0B06800283AD0F068002837D0D4
:10101000B06802F060FFC0B204F097FE0100DFF894
:10102000A80A02F054FAF06804F09FF803210C00BB
:1010300053EC102B0020DFF8E41A04F04FFF04F00B
:10104000B1F800EE100A2100012002F09FFC8CA0F4
:1010500002F03DFAF06804F088F8B0EE408AF0EE55
:10106000608AB06802F037FF040051EC180B04F0FE
:1010700099F800EE100A2000C0B204F0A1FEFBE0D7
:10108000B168DFF85C0B02F022FAF5E0DFF88C17AC
:101090007068FFF78BF800281CD0B068002813D0C8
:1010A000B06802F018FFC0B204F04FFE0100DFF894
:1010B000A40A02F00CFAB06802F00DFF9FED710A6D
:1010C000C0B204F07DFED7E0B168DFF8140B02F087
:1010D000FEF9D1E0DFF8801A7068FFF767F80028A2
:1010E0001AD0B068002811D0B06802F0F4FEC0B287
:1010F00004F02BFE0100DFF8640A02F0E8F9B068A2
:1011000002F0E9FEC0B204F027FEB5E0B168DFF8F6
:10111000D00A02F0DCF9AFE0DFF8441A7068FFF79C
:1011200045F8002843D0B06800283AD0F06800287D
:1011300037D0B06802F0CFFEC0B204F006FE010066
:10114000DFF8200A02F0C3F9F06804F00EF803217A
:101150000C0053EC102B0020DFF8C01904F0BEFE89
:1011600004F020F800EE100A2100012002F00EFC2D
:1011700043A002F0ACF9F06803F0F7FFB0EE408A4C
:10118000F0EE608AB06802F0A6FE040051EC180B85
:1011900004F008F800EE100A2000C0B204F064FE6B
:1011A0006AE0B168DFF8380A02F091F964E0DFF82C
:1011B000381A7068FEF7FAFF00281AD0B0680028C5
:1011C00011D0B06802F087FEC0B204F0BEFD01008D
:1011D000DFF8180A02F07BF9B06802F07CFEC0B2BA
:1011E00004F01EFE48E0B168DFF8F40902F06FF980
:1011F00042E0706800280CD0DFF88C177068FEF7AA
:10120000D5FF002805D123A17068FEF7CFFF002885
:101210002DD0DFF8E00902F05AF90221DFF8D809F1
:1012200002F055F9DFF8D40902F051F9DFF8D009DE
:1012300002F04DF9DFF8CC0902F049F9DFF8C809EE
:1012400002F045F900242000C0B2022814DA200080
:10125000C0B204F07AFD02002100C9B2DFF8D00765
:1012600002F035F9012002F073FB641CEBE77168B2
:10127000DFF86C0902F02BF90020BDEC028B70BD89
:101280002025250000000000DC5F030878660308C5
:101290006C6303083F000000185D030880660308C4
:1012A00078630308D44E0308D031030814380308C8
:1012B000D44503084C38030884380308FC35030878
:1012C000BC33030888660308EC5F030890660308D4
:1012D00098660308D85303080C2D0308D02F030881
:1012E000E42D03082DE9F0412DED088B84B00500B5
:1012F0000E009FEDC7BAC7A421007068FEF756FF25
:10130000002823D0B06800281AD0B06802F0E3FDAE
:10131000C0B201F05BFEB0EE408AB06802F0DBFDC7
:10132000C0B201F0F2FD040018EE100A01F082FED6
:1013300002000B002100DFF8D40802F0C8F860E1D9
:10134000B168DFF89C0802F0C2F85AE1B2A17068F7
:10135000FEF72CFF00280CD001F068FE10EE100AFA
:1013600001F068FE02000B00DFF8A40802F0AFF8FD
:1013700047E1AAA17068FEF719FF00281FD00027D7
:101380003800C0B2022880F23C81B7EE008A3800F3
:10139000C0B201F01BFEF0EE408A3800C0B201F08E
:1013A000B4FD040018EE900A01F044FE02000B00A8
:1013B0002100DFF8600802F08AF87F1CE0E7DFF820
:1013C00058187068FEF7F2FE002806D0B06802F0E8
:1013D00082FDC0B205F076F913E1DFF840187068BD
:1013E000FEF7E4FE00282ED068460A2103F068F8D4
:1013F00000242000C0B2042880F2038100272000CE
:10140000C0B205F09FFA80462000C0B2002802D08A
:10141000012805D008E082A1684605F0B5FA03E08E
:1014200080A1684605F0B0FA43469BB22200D2B2D2
:10143000521C6946DFF8E80702F049F80A2002F07A
:1014400087FA641CD5E7DFF8DC177068FEF7AEFE9C
:10145000002800F08F802100B068FEF7A7FE00286A
:101460003ED0F068002836D0F06802F034FDC0B2FB
:1014700001F052FDF0EE409AB0EE60AAF0EE41AA03
:10148000DFF8A407007804280ADBF06802F023FDE7
:10149000C0B201F03AFD0100DFF8900702F017F842
:1014A0000821B0EE690A012002F070FADFF8800727
:1014B00002F00DF80821B0EE4A0A012002F066FAA7
:1014C000DFF8700702F003F80821B0EE6A0A012085
:1014D00002F05CFA95E0DFF8600701F0F8FF90E0B9
:1014E00052A1B068FEF762FE002800F08A80F06822
:1014F00000283AD03069002837D07069002834D0ED
:10150000B069002831D0306903F02FFE51EC100B88
:1015100003F048FE00EE100AB0EE408A706903F056
:1015200024FE51EC100B03F03DFE00EE100AF0EE2D
:10153000408AB06903F019FE51EC100B03F032FE43
:1015400000EE100AB0EE409AF06802F0C4FCB0EE73
:10155000480AF0EE680AB0EE491AC0B201F006FD82
:10156000DFF8D80601F0B3FF4BE0DFF8CC0601F05E
:10157000AEFF46E0706800280CD0DFF80C147068ED
:10158000FEF714FE002805D19FA17068FEF70EFE3D
:10159000002831D0DFF8A80601F099FFDFF8A40693
:1015A00001F095FFDFF8A00601F091FFDFF89C063F
:1015B00001F08DFFDFF8980601F089FFDFF894064F
:1015C00001F085FFDFF8900601F081FFDFF88C065F
:1015D00001F07DFF00242000C0B2042811DA2000B1
:1015E000C0B201F092FC02002100C9B2DFF8400451
:1015F00001F06DFF641CEEE77168DFF8E40501F0AF
:1016000066FF002004B0BDEC088BBDE8F08100BF90
:101610000000000067657400656E7600616C6C0008
:101620004D45410052454600F44E03087365740071
:10163000083A0308743D0308A43D0308942C0308EA
:10164000D43D030890490308A06603089C5F030883
:10165000A866030870B52DED048B04000D006BA186
:101660006868FEF7A3FD00283ED0A868002836D0A1
:10167000A86802F030FCC0B201F04EFCB0EE408A27
:10168000F0EE608AB0EE419ADFF89C0500780428FD
:101690000ADBA86802F01FFCC0B201F036FC0100B2
:1016A000DFF8BC0501F013FF0821B0EE480A012065
:1016B00002F06CF9DFF8780501F009FF0821B0EEBF
:1016C000680A012002F062F9DFF8680501F0FFFE08
:1016D0000821B0EE490A012002F058F98FE0DFF846
:1016E000580501F0F4FE8AE049A16868FEF75EFD46
:1016F000002842D0A86800283AD0E868002837D0EF
:101700002869002834D06869002831D0E86803F0DF
:101710002CFD51EC100B03F045FD00EE100AB0EE6D
:10172000408A286903F021FD51EC100B03F03AFDCB
:1017300000EE100AF0EE408A686903F016FD51ECE5
:10174000100B03F02FFD00EE100AB0EE409AA868CF
:1017500002F0C1FBB0EE480AF0EE680AB0EE491A9A
:10176000C0B201F003FCDFF8D40401F0B0FE46E0A3
:10177000DFF8C40401F0ABFE41E0686800280BD03C
:1017800081496868FEF712FD002805D11EA168682E
:10179000FEF70CFD00282DD0DFF8C80401F097FEFD
:1017A000DFF8C40401F093FEDFF8C00401F08FFEFF
:1017B0000A2002F0CDF800263000C0B202280BDA71
:1017C0003000C0B201F0A1FB02003100C9B298485C
:1017D00001F07DFE761CEFE7954EDFF8942403219F
:1017E000300001F074FEDFF88C240421300001F099
:1017F0006EFE04E06968DFF8E80301F068FE00208F
:10180000BDEC048B70BD00003F00000067657400F4
:101810007365740084630308B066030828660308D0
:10182000B866030838B504000D0090496868FEF7F3
:10183000BDFC002829D0A868002821D0A86803F0A2
:1018400094FC51EC100B0022002303F093FC17D8FA
:10185000A86803F08AFC51EC100B0122DFF8183461
:1018600005F0B8F80CD2A86803F07FFC51EC100B1F
:1018700003F098FC00EE100A002005F015FA78E05D
:10188000DFF8F80301F023FE73E0DFF8F413686873
:10189000FEF78CFC002826D0A86800281ED0A86877
:1018A00002F019FB002819D4A86802F014FB0228E2
:1018B00014DAA86803F059FC51EC100B03F072FC29
:1018C00000EE100A002005F0EFF9A86802F003FB13
:1018D0000100DFF8B00301F0FAFD4AE0DFF8A803E9
:1018E00001F0F5FD45E0DFF8A4136868FEF75EFC43
:1018F00000281ED0A868002816D0A86802F0EBFACD
:10190000002811D4A86802F0E6FA02280CDAA868C8
:1019100002F0E1FAC0B205F005FAC0B20100DFF84A
:10192000700301F0D4FD24E0DFF85C0301F0CFFD8B
:101930001FE0686800280BD013496868FEF736FC82
:10194000002805D181A16868FEF730FC00280CD082
:10195000D04801F0BCFDD04801F0B9FDCF4801F0FE
:10196000B6FDCF4801F0B3FD03E069689C4801F083
:10197000AEFD002032BD0000A4580308BC58030887
:10198000C0660308D4580308E0650308144F030831
:101990003C3A0308703A0308A43A03082DE9F041E1
:1019A00004000D006AA16868FEF700FC00281AD048
:1019B0000A2001F0CDFF00263000C0B204282CDA46
:1019C00000273000C0B204F0BDFF8046424692B20C
:1019D0003100C9B2491CB34801F079FD0A2001F079
:1019E000B7FF761CE8E7686800280BD0AE49686846
:1019F000FEF7DCFB002805D154A16868FEF7D6FB92
:101A0000002806D0A94801F062FDA94801F05FFD59
:101A100003E06968724801F05AFD0020BDE8F081DA
:101A2000D83A03080C3B0308403B0308743B030807
:101A3000FC5F030870B504000D009E4801F047FDEF
:101A40009D4801F044FD9D4E306800280CD00A20CE
:101A500001F07EFFB068002804D0B2683168984871
:101A600001F035FD0C36EFE7002070BDC8660308B5
:101A70003EB504000D0005F0EBF9029005F0EDF91C
:101A800001909048C18800918388428801888E48DF
:101A900001F01DFD9DF80B0000909DF80A309DF8A7
:101AA00009209DF80810894801F011FD9DF80700F4
:101AB00000909DF806309DF805209DF8041084489C
:101AC00001F005FD00203EBDEC58030838B50400C8
:101AD0000D0001F08AFE002032BDF8B504000D00B3
:101AE00000267C4801F0F3FC0127A74207DA55F8ED
:101AF00027203900784801F0EAFC7F1CF5E7002038
:101B0000F2BD38B504000D0036A001F0E0FC0A205B
:101B100001F01EFF01F036FF002032BD00005940E9
:101B200038B504000D006868002806D0686802F027
:101B3000D2F9C0B205F09AF906E005F09AF9010071
:101B4000C9B2664801F0C3FC002032BD3F0000006E
:101B5000676574000C600308D06603082C5D0308F9
:101B6000D8660308FC45030838B504000D005C493D
:101B70006868FEF71BFB002809D05A49A868FEF7E1
:101B800015FB00282AD0584801F0A1FC26E057494F
:101B90006868FEF70BFB002803D0554801F097FC5E
:101BA0001CE0686800280BD03F496868FEF7FEFA21
:101BB000002805D10EA16868FEF7F8FA002809D0C0
:101BC0004C4801F084FC4C4801F081FC4B4801F08A
:101BD0007EFC03E06968024801F079FC002032BD18
:101BE000F05C03080A0A0A00E0660308F4530308DD
:101BF0003F000000B44903083836030824460308B0
:101C00004C460308744603089C4603081C600308FE
:101C10000459030810540308E8660308886603089B
:101C20001C590308F06603082F000020344F0308F6
:101C3000906303089C6303082C600308A8630308EF
:101C4000544F0308CC410308F84103082442030819
:101C5000504203087C420308102F03083031030868
:101C6000D8490308FC490308A8420308DC300308EC
:101C7000B4630308C06303080000F03F744F030817
:101C8000286603082C540308944F0308B866030819
:101C900034590308B44F0308043E030848540308AA
:101CA000D442030864540308E0650308405D030858
:101CB0003C6003084C590308545D03089429030849
:101CC000F866030820670308645903087C59030871
:101CD000945903084C600308685D03080067030813
:101CE00008670308106703087C5D0308186703088A
:101CF0005C60030880540308343E0308643E030814
:101D000081EA00039B0717D1820707D010F8012B47
:101D100011F8013BBAB19A42F6D014E002680B68A0
:101D20009A42A2F1013301BF934313F0803F50F870
:101D3000042F51F8043FF3D010F8012B11F8013BA8
:101D40000AB19A42F8D0D01A704730B4002513E097
:101D500050F8042BD30744BFA9F101039A18091FB7
:101D6000042942F8045BFAD213468C0744BF15805D
:101D70009B1CC90748BF1D7050F8041B0029E7D100
:101D800030BC70472DE9FB4F82B006001700DDF82C
:101D900038800F9CDDF84090DDF844A0300000282A
:101DA00007D1502080F31188BFF34F8FBFF36F8F9F
:101DB000FEE7B8F10A0F07D3502080F31188BFF374
:101DC0004F8FBFF36F8FFEE74946380080B200F0B7
:101DD0003FFD0500002D61D0286B390089B200EB72
:101DE0008100001FC008C0000190019810F0070F8B
:101DF00007D0502080F31188BFF34F8FBFF36F8F50
:101E0000FEE7380080B2009053464246039928000E
:101E100000F06EFC049A3100019805F02FF828605C
:101E2000002C00D0256005F0AAF8DFF86C160868D1
:101E3000401C0860DFF864261068002806D1156091
:101E4000086801280CD100F08BFC09E0DFF8BC0623
:101E50000068002804D11068C06A804500D315606E
:101E6000DFF8AC060168491C016000686864DFF8AF
:101E7000A4160A680123E86A83401A430A60291DF0
:101E8000DFF89426EB6A1420434302EB030005F0CD
:101E900023F95FF0010B05F08CF801E05FF0FF3BE8
:101EA000BBF1010F13D1DFF86406006800280ED0E3
:101EB000DFF8E8050068C06A404508D25FF080504E
:101EC000DFF83C170860BFF34F8FBFF36F8F5846A2
:101ED00005B0BDE8F08FF8B504000025002C2AD02D
:101EE000DFF894060068002807D0502080F311889E
:101EF000BFF34F8FBFF36F8FFEE700F028F9DFF8D5
:101F00000407006820180600DFF890753868001D87
:101F100005F009F9002808D13868DFF8F8150A68D3
:101F20000123C06A83409A430A60300000F06CFCD1
:101F300000F013F90500002D08D15FF08050DFF8A4
:101F4000C0160860BFF34F8FBFF36F8FF1BD70B540
:101F5000040005F014F8002C03D1DFF840050568F3
:101F600000E02500281D05F0DEF800280FD1DFF87D
:101F7000A815EA6A142042438858002807D1DFF8E0
:101F800094150A680123E86A83409A430A60A86AA4
:101F9000002803D015F1180005F0C5F8DFF8286710
:101FA000291D300005F098F805F003F8DFF8EC146F
:101FB0000868854227D1DFF854050068002816D04C
:101FC000DFF8B4050068002807D0502080F311889E
:101FD000BFF34F8FBFF36F8FFEE75FF08050DFF8E6
:101FE00020160860BFF34F8FBFF36F8F16E0306885
:101FF000DFF8A4241268904202D1002008600DE0AE
:1020000000F0FDF90AE0DFF804050068002805D0BB
:1020100004F0B5FF00F0C1FC04F0CBFF70BD10B4BC
:10202000020000201300002A07D1502181F31188FB
:10203000BFF34F8FBFF36F8FFEE75969DFF8884614
:10204000A14209D1996ADFF8384AA14204D0996ABD
:10205000002901D10121080010BC704770B50400AF
:102060002500002C07D1502080F31188BFF34F8F3B
:10207000BFF36F8FFEE7002D30D0DFF820643068AB
:1020800085422BD004F07BFF2800FFF7C8FF012812
:1020900022D1281D05F047F8DFF878140A680123DB
:1020A000E86A83401A430A60291DDFF86C24EB6A52
:1020B0001420434302EB030005F00EF8E86A316890
:1020C000C96A884208D35FF08050DFF88017086043
:1020D000BFF34F8FBFF36F8F04F06BFF70BD1FB561
:1020E000002003900020029000200190002000902A
:1020F00000238022DFF88C190FF2D150FFF742FE47
:102100000400012C02D105F023F80400012C13D1A6
:10211000502080F31188BFF34F8FBFF36F8F0120E2
:10212000DFF8E81308600020DFF8D814086001F039
:102130003FFD04F0CAFE09E0002C07D1502080F3D7
:102140001188BFF34F8FBFF36F8FFEE71FBDDFF81E
:1021500028040168491C0160704770B50025DFF84C
:1021600018643068002807D1502080F31188BFF32D
:102170004F8FBFF36F8FFEE704F001FF3068401E02
:1021800030603068002853D1C348006800284FD021
:10219000DFF8EC180868002826D0C868C06804007A
:1021A00014F1180004F0BFFF201D04F0BCFFDFF89D
:1021B00064130A680123E06A83401A430A60211D00
:1021C000DFF85423E36A1420434302EB030004F0D6
:1021D00083FFE06AB1490968C96A8842D8D30120FF
:1021E000DFF874190860D3E7DFF868693068002801
:1021F0000ED0306800280BD000F07BF8002803D008
:102200000120DFF8541908603068401E3060F0E7A4
:10221000DFF84409006801280AD1012005005FF0B9
:102220008050DFF8DC130860BFF34F8FBFF36F8F70
:1022300004F0BFFE280070BDDFF8C80300687047D7
:102240009548006870472DE9F84F06000F0015000B
:102250005FF000080A24FFF77AFF8F480068874282
:1022600042D3641E0122AC48142101FB04F1014455
:102270005FEA4810304400F019FB10EB080080467C
:10228000002CEED10222DFF82C0401685FEA48102E
:10229000304400F00BFB814619EB08090222DFF8FD
:1022A000240401685FEA4910304400F0FFFA8246D6
:1022B0001AEB090A042299495FEA4A10304400F0F7
:1022C000F5FA83461BEB0A0B0322DFF8FC135FEAE7
:1022D0004B10304400F0EAFA10EB0B008046002D62
:1022E00002D001F0A3FC2860FFF737FF4046BDE8AD
:1022F000F28F2DE9F04100279F48006800286FD138
:10230000DFF800030168491C01600468002C1CD13F
:10231000DFF8A01308680068002807D0502080F379
:102320001188BFF34F8FBFF36F8FFEE7D1F80080A6
:10233000DFF8900302680A60C0F80080DFF81C082C
:102340000168491C016000F028FBDFF81488D8F808
:102350000000844238D3DFF85C1308680068002866
:1023600004D15FF0FF30C8F800002DE00868C068B5
:10237000C068050068680600B44202D2C8F8006070
:1023800022E0281D04F0CFFEA86A002803D015F132
:10239000180004F0C8FE5F490A680123E86A834018
:1023A0001A430A60291D5C4AEB6A1420434302EB7E
:1023B000030004F091FEE86A38490968C96A884256
:1023C000C9D301200700C6E7534934480068C26AF0
:1023D000142042438858022807D30120070004E054
:1023E000DFF870070168491C0160DFF86C070068BE
:1023F000002801D0012007003800BDE8F08110B5A9
:102400005D480068002804D00120DFF84C17086000
:1024100040E00020DFF840170860DFF8484701F08F
:1024200005FC2060DFF8401708682268904207D258
:102430001A480268536D2068C31808681B1A536550
:102440002068086033480068B0FA80F1D1F11F01BC
:102450001422314B02FB01F01858002807D15020FC
:1024600080F31188BFF34F8FBFF36F8FFEE702FB3E
:1024700001F203EB0200426852684260426810F1C8
:1024800008039A4202D14268526842604068C068BC
:10249000024A106010BD00006CD600205CD60020FF
:1024A000F8B504000D00002C07D1502080F31188EE
:1024B000BFF34F8FBFF36F8FFEE7DFF8B476386856
:1024C00010F11801200004F013FE3868001D04F01C
:1024D0002AFE002807D138680E490A680123C06A1D
:1024E00083409A430A6015F1010F05D13868011D38
:1024F000754804F0F1FD07E0DFF87C060068281855
:102500000600300000F080F9F1BD000078D6002010
:1025100088D6002074D6002034CF0020C8D40020F4
:1025200070B504000D00002C07D1502080F31188F5
:10253000BFF34F8FBFF36F8FFEE7DFF8346630686D
:1025400010F11801200004F0C7FD3068001D04F0F0
:10255000EAFD002808D13068DFF818160A68012360
:10256000C06A83409A430A60DFF80C060668AE1919
:10257000300000F049F970BD8CD6002038B5050058
:10258000E868C468002C07D1502080F31188BFF39D
:102590004F8FBFF36F8FFEE714F1180004F0C3FDF7
:1025A000DFF8D8050068002815D1201D04F0BBFD18
:1025B000DFF8C0150A680123E06A83401A430A6005
:1025C000211DDFF8BC25E36A1420434302EB03001E
:1025D00004F082FD05E014F11801DFF8A40404F012
:1025E0007BFDDFF88C050068C06AE16A884205D28D
:1025F00001200121DFF87425116000E0002032BDC8
:1026000004ED00E070D60020002807D1502181F3AE
:102610001188BFF34F8FBFF36F8FFEE7DFF83C15D4
:1026200009680160DFF85015096841607047F8B526
:1026300004000D00002C07D1502080F31188BFF357
:102640004F8FBFF36F8FFEE7002D07D1502080F32F
:102650001188BFF34F8FBFF36F8FFEE704F08FFC3D
:10266000DFF814050668286810F1010F01D1002772
:102670001AE0DFF8E80400682168884204D0606846
:10268000864201D301270FE06068301A296888422A
:1026900009D22968891B6068411829602000FFF76A
:1026A000B3FF002700E0012704F083FC3800F2BDEF
:1026B0000000000060D600200120DFF8B0140860A0
:1026C0007047000064D60020DCD4002010B5040060
:1026D00000F070F8DFF8A80400680228F8D35FF073
:1026E00080505A490860BFF34F8FBFF36F8FEFE7F9
:1026F0002DE9F04104000D0016001F005FF00008F6
:10270000B8F1100F0CD215F8080004EB080181F89D
:10271000340015F80800002802D018F10108EFE78E
:10272000002084F843000A2E01D309200600E66247
:10273000E66400202065201D04F0CBFC14F1180095
:1027400004F0C7FC2461D6F10A00A0616462002095
:1027500060650020A065002084F85C00BDE8F08181
:1027600070B500240A2C09D2DFF81404142101FBEF
:1027700004F1084404F09EFC641CF3E7DFF8045401
:10278000280004F097FCDFF80064300004F092FCAD
:10279000BB4804F08FFCDFF8F40304F08BFCDFF897
:1027A000F00304F087FCDFF8EC030560DFF8E803D2
:1027B000066070BD70B5DFF8E4532868002822D0A9
:1027C000FFF7C5FCDFF8C4633068002801D101249D
:1027D00000E00024FFF7C1FC002CECD104F0CFFB9B
:1027E000F068C668301D04F09EFCDFF8B403016891
:1027F000491E01602868401E286004F0DAFB3000A2
:1028000000F0C2F8D7E770BD10B50400DFF8600330
:1028100001684C60DFF8601309688C4207D20068D9
:10282000011DDFF87403006804F062FC0CE000682E
:10283000011DDFF86003006804F05AFCDFF8200394
:1028400001688C4200D2046010BD000004ED00E07D
:102850002DE9F84307000D00002D06D1380080B2A5
:10286000800004F0ABFE060000E02E00002E0BD02E
:10287000602004F0A3FE0400002C01D0266304E0D5
:10288000300004F0FFFE00E00024002C0BD03800E4
:1028900080B286005FF0A508D4F83090424631003F
:1028A000484604F02BFF2000BDE8F2832DE9F843F1
:1028B00004000D0016005FF000092868002855D0BC
:1028C0002800416849684160416810F1080291425E
:1028D00002D14168496841604068C068804628006C
:1028E000416849684160416810F10802914202D193
:1028F0004168496841604068C06807005FEA491064
:10290000275017F134005FEA491121444860786C80
:102910005FEA4911214488605FEA49102044067348
:10292000F86A5FEA4911214408613000C0B2032807
:1029300007D1B86A002804D002205FEA4911214477
:102940000873F86C5FEA491121444861786D5FEAC9
:10295000491121448861386B00F00BF85FEA491196
:102960002144888319F101094745B8D14846BDE89B
:10297000F283010000200A78A52A02D1491C401CDC
:10298000F9E7800880B2704710B50400206B04F0AE
:1029900079FE200004F076FE10BDDFF8F821106803
:1029A0000068002805D15FF0FF30DFF8B421106027
:1029B00007E01068C068C06801004868DFF8A0211F
:1029C00010607047DFF8E0010068002801D10120A5
:1029D00007E0DFF8A8010068002801D1022000E02C
:1029E000002070472DE9F04104002500002C44D060
:1029F000DFF8B081E86AD8F80010C96A88423CD292
:102A0000A869002805D4D8F80000C06AD0F10A00EF
:102A1000A861DFF86C6114276869E96A7943314479
:102A2000884226D1281D04F07EFB00280CD1E86ADC
:102A300078433058002807D1DFF870110A68012365
:102A4000E86A83409A430A60D8F80000C06AE862E6
:102A5000DFF858110A680123E86A83401A430A60C4
:102A6000291DE86A07FB00F706EB070004F034FBBA
:102A700003E0D8F80000C06AE862BDE8F081000019
:102A8000B4D40020A067030870B504002500002618
:102A9000002C50D0DFF80C010068854207D0502090
:102AA00080F31188BFF34F8FBFF36F8FFEE7286D60
:102AB000002807D1502080F31188BFF34F8FBFF358
:102AC0006F8FFEE7286D401E2865E86AE96C884232
:102AD00031D0286D00282ED1281D04F024FB0028B9
:102AE0000FD1DFF89C10EA6A14204243885800286E
:102AF00007D1DFF880100A680123E86A83409A430F
:102B00000A60E86CE862E86AD0F10A00A861DFF8C0
:102B100064100A680123E86A83401A430A60291D89
:102B2000DFF85C20EB6A1420434302EB030004F05F
:102B3000D3FA01200600300070BDDFF86810086885
:102B4000002803D00868026D521C026508687047AF
:102B5000000000007CD6002080D6002084D6002013
:102B60000C00002094D6002090D6002080D60020B3
:102B70005CD6002074D6002070D600208CD60020B1
:102B800034CF00208CD40020A0D40020C8D4002052
:102B9000DCD4002060D6002064D6002068D6002057
:102BA0006CD600205CD6002078D6002074D6002099
:102BB0002DE9FF41DFF810430020207001206070F4
:102BC0000020A0700020E070002020710022082169
:102BD000052004F00FFEA06000220821052004F06B
:102BE00009FEE06000202061002060610020A061FB
:102BF0000020E0610020A0630020E063002084F852
:102C000023000020E06418250026DFF8C072B846D3
:102C100032002900404604F071FD2020B880DFF822
:102C2000B00238600821B96010213982F8600820AC
:102C30007861380005F09CFA05F09AFC02F0AAFCD5
:102C4000002003900020029014F130000190052034
:102C5000009023004FF48072DFF878120FF28D009D
:102C6000FFF790F8002003900020029014F1340048
:102C700001900520009023004FF48072DFF8581275
:102C80000FF23500FFF77EF80FF2351000900523A4
:102C900001224FF47A71DFF8440204F081FA2064D3
:102CA000FFF7CAFA02000020009000230121206CE7
:102CB00004F0A1FABDE8FF81F8B50600DFF82402B0
:102CC000D0E9004537000020FFF741F9B878002827
:102CD00003D0022806D004D3F8E70020FFF737F925
:102CE000F4E7F3E70020FFF732F9EFE770B52DEDD9
:102CF000028B0400250095F84400012808D105F056
:102D0000AAFC0600300005F0D9FCB0EE408AF2E7DC
:102D10006D4E05F0A0FCF064F06C05F0CFFC86ED84
:102D2000120A3220FFF7D7F8E5E7000010B52DEDC5
:102D3000028B82B0B0EE408A694C2078042802DB16
:102D4000694800F0C4FB0321B0EE480A042000F0FB
:102D50001DFE2078042802DB59A000F0B8FBB5EE78
:102D6000408AF1EE10FA1EDD574C0020009000233F
:102D70009FED540A28EE000AF7EE000A80EE200AC2
:102D8000BCEEC00A10EE102A0421206C04F033FAC5
:102D9000FFF752FA00210091002302000121206C6C
:102DA00004F029FA08E0002000900023002203210B
:102DB0004548006C04F01FFA02B0BDEC028B10BD58
:102DC0002DE9F84386B0040005F0EBFF012829D176
:102DD000684600210022C0E900121026002702AD3B
:102DE0003A003100280004F089FC374DE86C0028D7
:102DF00012D0042615F14C07E8463200390040464F
:102E000006F008F85FF0040848350DF10409424661
:102E10002900484605F0FEFF0822694648F60140B1
:102E200006F0A8F807B0BDE8F08310B52DED028BD1
:102E300082B02548C46C200005F040FCB0EE408A0A
:102E4000009418EE100A00F0F5F802000B00274875
:102E500000F03DFB02B0BDEC028B10BD7CB5040060
:102E60000D00E4B266000020ADF800002A0092B226
:102E70002D21164805F0DDFA002807D01848007803
:102E800004280ADB1A4800F022FB06E01448007808
:102E9000022802DB174800F01AFB73BD10B50400CE
:102EA0002D210A4805F096FA0D480078022805DB26
:102EB0002D222100C9B2104800F009FB10BD00000E
:102EC0002073000000007A443CD200205CD4002033
:102ED000000C0240585E03080C6103081C610308E3
:102EE0002F00002078670308445503083C5A030864
:102EF00014500308345003085843030880B503F006
:102F0000DEFC454806F060F801BD10B50400200065
:102F1000C0B206F0D4F810BD10B52DED048B04003E
:102F20002000C0B204280FDA3B492200D2B214209C
:102F3000424301EB020003F00BF9B0EE408AF0EEE1
:102F4000608AB0EE419A08E034480078022804DB39
:102F50002100C9B2324800F0BAFAB0EE480AF0EEE9
:102F6000680AB0EE491ABDEC048B10BD38B52DEDE2
:102F7000048B0400B0EE408AF0EE608AB0EE419A15
:102F800000252000C0B2042811DAB0EE480AF0EEA5
:102F9000680AB0EE491A20492200D2B214204243F6
:102FA00001EB020003F002F90120050008E01B48D4
:102FB0000078022804DB2100C9B21A4800F087FA21
:102FC0002800C0B2BDEC048B32BD000010B52DED61
:102FD000028B04009FED0F8A2000C0B204280BDA98
:102FE0000D492200D2B21420424301EB020003F04B
:102FF000C9FAB0EE408A08E008480078022804DBED
:103000002100C9B2084800F062FAB0EE480ABDECEF
:10301000028B10BD00000000DCD200202F00002039
:10302000B0430308DC430308D450030880B506F01E
:1030300087F801BDC0F3C75181B1FF2906D0C11087
:10304000400721F0E04101F16051704741020CBF9F
:1030500040F4E0016FF000410020704700F00041B3
:1030600000020AD0B0FA80FC00FA0CF001F16051C5
:10307000A1EB0C5101EBD0214005704710B506F0D3
:103080006BF806F05BF900F0B0FB0020DFF8A0174A
:1030900008700020DFF89C1708700020DFF89817F0
:1030A0000860DFF898170020087008780A280ADA04
:1030B0000022DFF88C370C78802044431A550878BA
:1030C000401C0870F1E7002008700878DFF87417DA
:1030D000087006F0D7F910BD2DE9F14300249DF8E2
:1030E000000003281FD004281DD008280ED00A286D
:1030F00024D00D2822D01B2847D0412845D0422873
:1031000043D05B2841D07F2840F0C380DFF82807F8
:103110000168012906DB0168491E0160032195A0B1
:1031200006F04DF9C6E00020DFF80C170860022019
:10313000DFF8FC16087001200400BBE0DFF8080788
:1031400000780D2803D19DF800000A281CD0DFF874
:10315000E8562E68DFF8F476DFF8F486C1463200D0
:103160003900484605F056FE0020296808F801009D
:10317000002028600120DFF8B81608700120040044
:103180000121A6A006F01BF994E0DFF8A8562878E4
:10319000002803D0022824D019D379E09DF800003C
:1031A0001B2802D10120287010E0DFF88C0601688E
:1031B0007F290BDA01684A1C02609DF80000DFF8E5
:1031C0008C2650540121684606F0F9F860E09DF81D
:1031D00000005B2802D10220287001E00020287046
:1031E00056E09DF8000041280AD1DFF85806017822
:1031F00009310A2291FBF2F302FB131101700DE079
:103200009DF80000422809D1DFF838060178491CF2
:103210000A2291FBF2F302FB131101709DF80000EA
:10322000412803D09DF8000042282FD1DFF808760E
:103230003868411E3960002804D003214DA006F0F3
:10324000BEF8F3E7DFF8F865DFF8F88598F80010C6
:103250008020414306EB010006F05CF938603968D4
:1032600098F800208020424306EB020006F0A7F801
:103270003F6898F80010C9B2802041430E44DFF83F
:10328000CC853A003100404605F0C4FD002028708E
:1032900010E0DFF8A40501687F290BDA01684A1CF9
:1032A00002609DF80000DFF8A42550540121684613
:1032B00006F085F89DF80000DFF88C1508702000F6
:1032C000C0B2BDE8F28338B5DFF86415087800288D
:1032D0004DD00878012843D100200870DFF87055E0
:1032E000280000F049F8280000F09AF8040014F1D2
:1032F000030F05D1DFF85C0500F0E9F8002037E0A6
:1033000014F1010F0DD100200400285D002801D127
:10331000641CFAE705EB0401DFF83C0500F0D7F880
:1033200016E014F1020F04D1DFF8300500F0CFF8F9
:103330000EE0102C01D100201AE0142C01D1142031
:1033400016E0002C04D02100DFF8140500F0BFF8CF
:1033500032A000F0BCF8DFF8FC0400F0B8F806E09A
:103360000878022803D100200870142000E0002013
:1033700032BD00000820080030B401000022885C43
:10338000002807D0885C202802D0885C092801D159
:10339000521CF4E71144087800283CD000200200B9
:1033A000802A0FD2885C00280CD0DFF89434DFF834
:1033B0008C0404788020444303EB04008B5C83542A
:1033C000521CEDE7802A0BD2DFF87434DFF86C046E
:1033D00004788020444303EB0400002383540CE072
:1033E000DFF85C34DFF8540404788020444303EBB6
:1033F00004001044002300F8013CDFF84004037887
:103400005B1C0A2493FBF4F504FB1533037000786E
:10341000DFF83034187030BC704700000A0000003C
:103420002DE9F8430600012400200C2806DA0021CB
:10343000DFF8302442F82010401CF6E70025370062
:10344000387800281BD03878202802D0387809280E
:1034500004D100203870012004000EE0002C0CD0B4
:103460000B2D07DADFF8FC0340F825706D1C0020F7
:10347000040002E07FF0010021E07F1CE0E7002D66
:103480001BD0DFF8E483D8F80000002812D0DFF862
:10349000D493D8F80010D9F80000FEF731FC0028CA
:1034A00005D149462800D8F80420904707E018F1D4
:1034B0000C08E8E75FF0FF3001E07FF00200BDE8B4
:1034C000F28380B5DFF88C0300F001F801BD0EB483
:1034D0002DE9F04F2DED048B88B0804615AE98F89D
:1034E0000000002800F07A810020050018F805008F
:1034F000252805D018F80500002801D06D1CF5E737
:103500002900404605F05BFFA84498F800002528F4
:10351000E5D118F101080020040020208DF80000FA
:10352000404610F101080078253800F04C810B3836
:10353000092815D9283800F0EF800B3820D0401E1C
:1035400026D0801E37D00A3800F0E680C01E00F07A
:10355000BD80801E00F0D680C01E00F0DD8038E106
:1035600018F8010C302804D1002C02D130208DF83D
:1035700000000A20444318F8010C30380419CFE742
:103580003068361D0190012101A805F018FFA6E75B
:103590003068361D0190002007000198002805D5ED
:1035A0000198404201900120834601E000208346BB
:1035B0000A208246B9E0F61D36F0070696ED000BAC
:1035C0000836B0EE408AF0EE608A51EC180B00220B
:1035D000002303F0FFF908D20120834651EC180BB9
:1035E00091F0004141EC180B01E00020834651ECC2
:1035F000180B05F0ABFF0190019805F0C5FF020024
:103600000B0051EC180B05F0CDFF41EC190B0A2013
:103610008246012005000120814601980AFB05F140
:1036200088420AD30AFB05F0B0FBFAF0A84204D1A5
:103630000AFB05F519F10109EFE700200700BBF1CE
:10364000010F03D12D2003A9C8557F1C002D0FD0D9
:103650000198B0FBF5F0B0FBFAF10AFB11008349C9
:103660000968085C03A9C8557F1CB5FBFAF5EDE7AE
:1036700051EC190B0022002301F07CFD03D82E2011
:1036800003A9C8557F1CB9F1070F1AD2504605F09F
:103690007BFF53EC192B02F021FC41EC190B51EC90
:1036A000190B05F053FF0A2190FBF1F201FB120008
:1036B0006E490968085C03A9C8557F1C19F1010906
:1036C000E1E7390003A805F07AFE08E73068361D07
:1036D0000290002005000298405D002801D06D1C7A
:1036E000F9E72900029805F06AFEA54209D2641B99
:1036F0002000441E002804D001214BA005F05FFEED
:10370000F6E7ECE63068361D0190002007000A203D
:1037100082460020834608E03068361D0190002074
:1037200007001020824600208346012005000198F2
:103730000AFB05F1884209D30AFB05F0B0FBFAF059
:10374000A84203D10AFB05F5641EF0E7BBF1000FA8
:1037500000D0641EBBF1000F09D09DF80000302896
:1037600005D12D2003A9C8557F1C00208346022CBB
:103770000BD3102C09D2641E002C06D09DF800003B
:1037800003A9C8557F1C641EF6E7BBF1000F03D0E8
:103790002D2003A9C8557F1C002D0FD00198B0FB28
:1037A000F5F0B0FBFAF10AFB110030490968085C3A
:1037B00003A9C8557F1CB5FBFAF5EDE7390003A84E
:1037C00005F0FDFD8BE60121B8F1010005F0F7FDE4
:1037D00085E60521264805F0F2FD80E608B0BDEC3F
:1037E000048BBDE8F00F5DF810FB80B52148FFF7B2
:1037F0006EFE21492148FFF76AFE2148C1880091E9
:103800008388428801881F48FFF761FE1E48FFF742
:103810005EFE1E491E48FFF75AFE04A0FFF757FE42
:10382000FFF74FFE01BD0000200000000A0A000063
:10383000E4D60020E6D60020C4D50020E7D600203C
:1038400070BC0020E8D60020E5D60020BCD00020C7
:103850003CD1002028670308AC5903080043030843
:10386000204A0308E4D30020942903084C68030885
:1038700030670308A45D0308C45903089C54030877
:1038800020670308DC590308D44F0308B854030821
:103890003867030810B4020052B2002A0AD50A01A0
:1038A000DFF8CC34040064B214F00F04234403F8AE
:1038B000042C05E00A01DFF8BC34040064B21A5598
:1038C00010BC7047BFF34F8FDFF8AC140A6812F4D6
:1038D000E062DFF8A80402430A60BFF34F8F00BF25
:1038E000FDE710B50400601EB0F1807F01D3012018
:1038F00011E0601EDFF8881408600F215FF0FF30D0
:10390000FFF7C8FF0020DFF87C1408600720DFF80D
:1039100078140860002010BDF8B55FF400315FF046
:10392000006005F0EAFE4FF4407005F0ADFE684619
:1039300005F0F8FE01984FF47A71B0FBF1F0FFF753
:10394000D0FF0F215FF0FF30FFF7A4FF05B000BDEF
:1039500010B504000120B4FBF0F0FEF7BCFA10BD76
:1039600000220100481E002906D020210A00110073
:103970004A1E0029FBD1F4E770470100481E0029C8
:10398000FBD1704780B5FFF79DFF01BD70B52DEDF0
:10399000048B0400B0EE408A0D00DFF8F0030078DD
:1039A0002100C9B288422DD3B5EE408AF1EE10FA5B
:1039B00006D57EA0FFF78BFDBFEE000A28EE008A39
:1039C000FCEEC88A18EE901A97A0FFF780FDB8EEBB
:1039D000680A38EE409A00262800C0B2864211DA02
:1039E000B2EE040A29EE009ABCEEC90A10EE101AD3
:1039F0000A20B1FBF0F200FB12119BA0FFF767FD5C
:103A0000761CE9E7BDEC048B70BD2DE9F84F84B05E
:103A1000814600215FF0000B0026002734003D00A6
:103A2000CDE902670800411CC0B219F80000002867
:103A3000F8D1B1F101084046C0B211280ADBDFF825
:103A40004C030078022805DB4146C9B2DFF8400389
:103A5000FFF73DFDB8F10100C0B25FEA800A4046C1
:103A6000B0F10108C0B2002800F09B80484610F178
:103A70000109007830282AD031282BD032282ED0C6
:103A8000332831D0342834D0352837D036283AD0AE
:103A900037283DD0382840D0392843D0412846D057
:103AA000422849D043284CD044284FD0452852D0F2
:103AB000462855D061283AD062283DD0632840D0AE
:103AC000642843D0652846D0662849D04DE03400AC
:103AD0003D0054E00120002104000D004FE00220D1
:103AE000002104000D004AE00320002104000D0025
:103AF00045E00420002104000D0040E005200021E5
:103B000004000D003BE00620002104000D0036E01B
:103B10000720002104000D0031E0082000210400EE
:103B20000D002CE00920002104000D0027E00A20F0
:103B3000002104000D0022E00B20002104000D00F4
:103B40001DE00C20002104000D0018E00D200021D4
:103B500004000D0013E00E20002104000D000EE013
:103B60000F20002104000D0009E088480078022899
:103B700002DB8848FFF7ABFC0020002113E0DDE901
:103B80000201CDE9000120002900524605F0CEFED9
:103B9000DDE9002310185941CDE90201BAF1040A08
:103BA0005DE7DDE9020105B0BDE8F08F2D00000002
:103BB0007FB50C24002501AE2A002100300003F05F
:103BC0009DFD0121202005F075FE4CF24F30029042
:103BD0000020ADF806000020ADF80C004AF6C770D2
:103BE000ADF804006C4E01A9300005F0B1FE0121D2
:103BF000300006F06CF801220121300006F05BF87D
:103C000037208DF8000001208DF8030005208DF885
:103C1000010000208DF80200684605F03AFD012100
:103C2000300005F0DFFE7FBD25642E0080B55A48C8
:103C300005F0C7FE0100594800884CF2503202FBE3
:103C4000001002BD10B5544C0121200006F044F8CC
:103C5000002807D00121200006F055F84F480188C0
:103C6000491C018010BD00002564000030B5A9B0DA
:103C700007A84B49D1E90023C0E90023FEF7E0FA89
:103C800005900598112804D305994648FFF71FFCB5
:103C90006AE0454D06AA05992800FEF7D4FA05907A
:103CA0004248FFF714FC069800285AD000200490E0
:103CB00004980599884254D20498400128448069A8
:103CC0006421A1FB0001069A002306F021F80400FC
:103CD000002C1ED00499049A049B04980394490173
:103CE0002944898B029151012944096901915901A3
:103CF00029448968009107A940012844007B0B5C96
:103D00000498400128444268294909A806F018F996
:103D10001CE00499049A049B049849012944898B66
:103D20000291510129440969019159012944896885
:103D3000009107A940012844007B0B5C04984001D6
:103D4000284442681B4909A806F0FAF809A907A007
:103D5000FFF7BDFB0A20FEF7BEF80498401C049054
:103D6000A6E71548FFF7B3FB29B030BD25730A005D
:103D700018ED00E000E400E00CED00E00400FA05BE
:103D800014E000E018E000E010E000E02F00002068
:103D9000F84A03081C4B030800140040DCD600203E
:103DA00098670308404B0308D4C80020283703084D
:103DB000B0560308CC560308643703082DE9FC4FBE
:103DC00083B00BB100241C600446254600E06D1C46
:103DD0002878A0F10903052BF9D32028F7D02D2846
:103DE00016BF2B2815F8018B4FF02B08002A0191E4
:103DF00003D4012A01D0252A03DB002947D00C6017
:103E000045E0002A0ADD102A04BF2878302802BFC6
:103E1000687840F0200078280ED10AE02878302811
:103E200018BF0A2208D1687840F02000782802D113
:103E30001022AD1C00E00822029500E06D1C2878DD
:103E40003028FBD04FF0000926A02E46CA468DF838
:103E50000000934607E09DF80070C71BCA46FFB2FA
:103E60000BFB09796D1C2978A1F141001A2838BF94
:103E7000203100BF1BA05A4606F082F80028EAD184
:103E80000299A942484604D1019800B1046000207B
:103E90001EE000BF1DA2AE1B12F80B10761A002EFA
:103EA0000FD405DCC71B03D3B7FBFBF1514508D08A
:103EB000AFF30080049808B1012101604FF0FF309A
:103EC00003E0B8F12D0F08BF4042019901B10D6028
:103ED00005B0BDE8F08F00E0000000230A220021B9
:103EE0006CE70000303132333435363738396162AF
:103EF000636465666768696A6B6C6D6E6F7071721A
:103F0000737475767778797A0000000000002115C7
:103F1000110E0D0C0B0B0A0A0909090909080808FA
:103F2000080808080707070707070707070707071D
:103F300007000000E0B50121022005F0ABFC0420E1
:103F4000009002208DF8050000208DF8040000206C
:103F50008DF8060002208DF807006946084806F033
:103F60003BF807BD10B500240121054806F099F87B
:103F7000002801D0012004002000C0B210BD0000C4
:103F80000004024080B586B00121022005F082FCC9
:103F900002208DF8150001208DF8140000208DF806
:103FA000160001208DF817004FF40050049004A96A
:103FB0004F4806F011F800200390002002904D4871
:103FC000019004200090002380224B490FF2090049
:103FD000FDF7D8FE07B000BDF8B50400474D32200C
:103FE0002880474E322030800A20FDF774FF454F6D
:103FF0003888401C388044480178012910D1434951
:104000000A68521C0A600A68414B1B689A4207D131
:1040100000220A6000210170322028803220308086
:1040200038882988884205D14FF40051304806F07D
:1040300054F8D9E738882988328812FA81F1884201
:10404000D2DB4FF400512A4806F049F800203880AE
:10405000CAE770B504000D001600002C46D02D48AC
:104060000078042807DB33009BB22A0092B22100BB
:104070002948FFF72CFA14F1010F03D1002022493F
:10408000087007E02248046001201F4908700020E2
:104090001E490860280080B2002809D14FF4005161
:1040A000134806F01AF813480068FDF750FF1DE0AA
:1040B000300080B2002809D14FF400510C4806F0BE
:1040C0000EF80C480068FDF742FF0FE000200D4994
:1040D00008804FF40051064806F001F807480580B3
:1040E0000748068003480068FDF7B8FF70BD000070
:1040F00000040240D8D500206C600308CED6002012
:10410000D0D60020D2D60020E9D60020D4D5002079
:10411000D0D500202F0000202C430308F8B5002044
:10412000039000200290DFF84003019004200090EB
:1041300000238022DFF834130FF21500FDF722FE72
:1041400005B000BD0120DFF828130870704700009B
:104150007CB504000020FDF7FAFEDFF8185328783C
:10416000002802D0012804D0F7E70020FDF7EFFE79
:10417000F3E74FF4FA60FFF7EBFB0220BE4908704B
:1041800000F0D9FA012803D100208DF8000002E0E8
:1041900001208DF800000020B84908600020B849CF
:1041A000088000202870B24D287801280BD14CF2ED
:1041B000010601226946300004F0DCFE0122694656
:1041C000300004F0E4FE00202870AE480078042897
:1041D00004DB9DF80010AC48FFF779F9BDE738B56E
:1041E0000124A44D287800280FD104F0DDFE012021
:1041F0002870A4480078042802DBA448FFF767F978
:1042000099480068FDF72AFF08E09E4800780228D8
:1042100002DB9F48FFF75BF9002004002000C0B2DA
:1042200032BD2DE9FE4F05000E001400944F200012
:10423000398880B2884240F08E80300080B2C12838
:104240007DDADFF83882D8F8000000282CD1300061
:1042500080B204281BDB5FF004090195DFF834A26B
:10426000D3464A460199584604F0D4FD2D1D361F09
:10427000D8F80000001DC8F8000082480078052822
:1042800012DBDAF800108448FFF721F90CE07D48D2
:104290000078022802DB8148FFF719F944F2080090
:1042A000ADF80000009865E02A00310089B2D8F826
:1042B000000000F053F9012835D1DFF8E4914A46B7
:1042C000310089B2D8F8000000F02CF9320092B227
:1042D0002900484605F03EFF002818D1D8F8000014
:1042E00010FA86F0C8F8000066480078052807DB59
:1042F0003B88320092B2D8F800106A48FFF7E7F81E
:104300003888401C38800020ADF800002EE05D4861
:104310000078022802DB6448FFF7D9F844F2050070
:10432000ADF8000022E044F20400ADF8000055486A
:10433000007802281ADB5D48FFF7C9F816E05148FB
:104340000078022802DB5A48FFF7C1F844F208005F
:10435000ADF800000AE04B480078022802DB55481F
:10436000FFF7B5F844F20900ADF800003888ADF861
:1043700002000098BDE8FE8F2DE9F84304000125F6
:104380000026200080B2002834D03C4F3868002836
:1043900030D05FF0040804223E49300080B205F0BE
:1043A0000DFF81463868C12813D33868C03880456E
:1043B0000FD23B4E3200C021404600F0B3F8C0227D
:1043C0003100484680B205F0F9FE814618F1C00878
:1043D000EBE7334E32003968B1EB0801404600F09C
:1043E000A1F83A68B2EB08023100484680B205F005
:1043F000E5FE0600200080B2002805D03000210034
:1044000080B289B2884205D1224A0421002000F0FE
:10441000A5F812E01B4F3878022806DB320092B272
:10442000210089B22448FFF752F83878022802DBCD
:104430002248FFF74CF80020050000200F490860D3
:1044400000200F4908802800C0B2BDE8F28380B583
:1044500000F0A8F901BD084890F90000704700205D
:1044600006490860C0207047C0D600209465030844
:1044700000D7002001D70020FFD60020B8D60020AA
:10448000DED600202F000020345F0308345C0308D0
:10449000BC620308BCD6002030680308145203082D
:1044A000FCCF0020B43F0308A8320308CC62030805
:1044B0004C5C0308DC62030854580308C84D030829
:1044C000002203F01FB90268531C0360117070478B
:1044D000BFF34F8FDFF81C130A6812F4E062DFF8B5
:1044E000180302430A60BFF34F8F00BFFDE70100CE
:1044F00000200200D2B2182A09DAC04A0300DBB257
:1045000002EB83025268914201D3401CF1E70200A2
:10451000D2B2182A01DB17221000C0B280B2704755
:10452000008870472DE9F04104000D00160014F1D9
:104530000068B3480078062803DB4146B148FEF71F
:10454000C6FF0027AF4207D24046FFF7E9FFF0530E
:1045500018F10208BF1CF5E7BDE8F0812DE9F14F25
:1045600082B00C00150009260127002000905FF0A2
:104570000008DDF8089019F10069B9F1006F05D362
:10458000A148814502D25FEAC97012D5DFF870A256
:104590009AF80000022803DB49469C48FEF797FF83
:1045A0009AF80000022802DB9948FEF790FF0020ED
:1045B0005FE0DFF84CA29AF80000062803DB4946CA
:1045C0009248FEF784FF05F023FE002005F00EFE62
:1045D000CB4614EB090000908E48834527D2009803
:1045E000834524D25846FFF79BFF4FF6FF71884260
:1045F0001AD05846FFF77BFF804601218648424685
:1046000092B230F8120005F018FE06003000C0B279
:104610000928E4D0002007009AF80000022802DBF5
:104620007E48FEF754FF02E01BF1020BD7E7300093
:10463000C0B2092816D10098814513D2298848466E
:1046400005F043FE092809D0002007009AF8000071
:10465000022802DB7248FEF73AFF03E019F1020973
:10466000AD1CE8E7012005F0C1FD05F0DFFD3800D5
:10467000C0B2BDE8FE8F10B5040005F0C9FD0020F2
:1046800005F0B4FD0121200080B205F0D6FD012027
:1046900005F0ACFD05F0CAFD10BD2DE9F0410400A8
:1046A0000D002000FFF723FF06002800FFF71FFF83
:1046B0000700B04638004146C0B2C9B2884209D3AB
:1046C00055484146C9B230F81100FFF7D4FF18F140
:1046D0000108EFE74A48007806280BDB4E4839000E
:1046E000C9B230F811203100C9B230F811104D486C
:1046F000FEF7EDFEBDE8F08138B504000D00A542DF
:1047000017D32000FFF70CFF4FF6FF7188420ED041
:104710003B480078022808DB2000FFF701FF020079
:1047200092B221004048FEF7D2FE002002E0A41C15
:10473000E5E7012032BD10B53C4C21005FF0006080
:10474000FFF7ABFF21005FF00060FFF7D5FF012806
:1047500008D02B480078022802DB3548FEF7B7FE68
:10476000002000E0012010BD80B5FFF7B1FE01BDC3
:1047700038B55FF0006400252800C0B204280FDAC5
:104780002800C0B2205CFF2808D11D48007802280C
:1047900002DB2848FEF79BFE002002E06D1CEBE7E1
:1047A000012032BDFEB5244C68462449D1E90023DE
:1047B000C0E90023FFF7DCFF012819D15FF000609A
:1047C00001681F480140B1F1005F0AD108256E461B
:1047D00027002A003100380004F01CFBFFF7C4FF5B
:1047E000FEE707480078022802DB1648FEF76FFE56
:1047F000F7BD00000CED00E00400FA05AC2E030844
:104800002F0000200C5F030800C00008205F030891
:104810005C4D03080000FF1F843F0308385803085D
:10482000D4510308804D0308F4510308FFBF00086A
:10483000603203081C5C0308F0FF022028680308AC
:104840000000FE2FA44D0308010000200200D2B298
:10485000182A09DA954A0300DBB202EB8302526898
:10486000914201D3401CF1E70200D2B2182A01DBC9
:1048700017221000C0B280B2704710B5040005F0D6
:10488000C7FC002005F0B2FC01212000C0B205F0F9
:10489000D4FC012005F0AAFC05F0C8FC10BD38B519
:1048A00004002000FFF7D0FF05008148290089B2ED
:1048B00030F81100C0B2FFF7E0FF31BD008870474B
:1048C000F8B504000D0016007A480078062803DBCE
:1048D00021007948FEF7FBFD0027AF4206D22000F9
:1048E000FFF7ECFFF053A41CBF1CF6E7F1BD2DE968
:1048F000F84F04000D0016000927002000905FF01B
:10490000000BB4F1006F01D3E00712D5DFF8A481EA
:1049100098F80000022803DB21006848FEF7D7FD65
:1049200098F80000022802DB6548FEF7D0FD002061
:1049300056E0DFF8808198F80000062803DB2100AC
:104940005E48FEF7C4FD05F063FC002005F04EFC58
:10495000A14615EB040A5B48814524D2D14522D2F9
:104960004846FFF7ABFF4FF6FF71884218D0484624
:10497000FFF76AFF834601214D485A4692B230F84C
:10498000120005F05AFC07003800C0B20928E5D033
:1049900098F80000052802DB42A0FEF798FD02E02F
:1049A00019F10209DAE73800C0B2092812D15445DA
:1049B00010D23188200005F088FC092807D098F82B
:1049C0000000052802DB38A0FEF781FD02E0A41CF0
:1049D000B61CECE7012005F009FC05F027FC0120DE
:1049E000BDE8F28F2DE9F84F04000D0016002000FD
:1049F000FFF72AFF2D4980B251F820705FF0000BBD
:104A00005FF00008B4EB0709DFF8BCA052464FF492
:104A1000C8713800FFF754FF19EB050040F29111FF
:104A2000884214D3DFF88CA09AF80000022806DB35
:104A30004FF4C8732A0049462448FEF748FD9AF807
:104A40000000022802DB2248FEF741FD27E05FF06C
:104A5000000BAB4508D21BEB09001AF80000FF2839
:104A600002D11BF1010BF4E7AB4513D200208346C2
:104A7000AB4508D216F80B0019EB0B010AF8010040
:104A80001BF1010BF4E752464FF4C8713800FFF7F1
:104A90002EFF04E0320029002000FFF728FFBDE8C8
:104AA000F18F00003100000032000000482E0308A2
:104AB000C43E03082F000020305E0308445E030854
:104AC000D44A03080000FF1FD4CC0020943E030802
:104AD000FC33030810B500242000C0B20C280FDA04
:104AE000DFF818152200D2B2B020424301EB0200D9
:104AF00006F02CF82000C0B200F010FA641CEBE7BE
:104B000010BD000010B504002000C0B20C280ADA65
:104B1000DFF8E8142200D2B2B020424301EB0200D9
:104B200005F036FC0CE0DFF8D8040078022805DB3D
:104B30002100C9B2DFF8CC04FEF7C9FC9FEDC80A1A
:104B400010BDF8B52DED048B04002000C0B20C2878
:104B50004ADAB025DFF8A4642000C0B268433044CC
:104B600005F03BFCB0EE408AF0EE608ADFF890740E
:104B70003878042803DBDFF89004FEF7A8FC042152
:104B8000B0EE480A0420FEF701FF3878042803DB62
:104B9000DFF87804FEF79BFC0421B0EE680A0420DD
:104BA000FEF7F4FE3878042803DBDFF86404FEF730
:104BB0008EFC2000C0B26843304490ED0E0A28EE0F
:104BC000000AB0EE408A2000C0B205FB00F506EBFB
:104BD000050090ED0E0A28EE800AF0EE408AB0EE55
:104BE000480AF0EE680A0EE0DFF8140400780228A4
:104BF00005DB2100C9B2DFF80C04FEF768FCB0EE5B
:104C0000490AF0EE690ABDEC048BF1BD10B5040051
:104C10002000C0B20C280ADADFF8E0132200D2B27A
:104C2000B020424301EB020005F080FC0CE0DFF80D
:104C3000D0030078022805DB2100C9B2DFF8C403E5
:104C4000FEF745FC9FED860A10BD0C207047000062
:104C50002DE9F0412DED048B0400F0EE408AB0EE1A
:104C6000608A0D00DFF898633078042817DBDFF8DE
:104C70008C132200D2B2B020424301EB020090ED2F
:104C80000E0ADFEDA50A20EE200A10EE100AFEF74C
:104C9000D1F902000B00DFF87C03FEF718FC2000BE
:104CA000C0B20C287CDAF5EE408AF1EE10FA77D02B
:104CB000B027DFF848832000C0B27843404490ED2D
:104CC0000E0AF3EE040A20EE200AB4EE408AF1EE5A
:104CD00010FA65DB2000C0B27843404490ED0E0A24
:104CE000DFED8D0A20EE200AB4EE480AF1EE10FA4C
:104CF00056DB2000C0B27843404490ED0E0AB5EE7A
:104D0000400AF1EE10FA4BD03078062805DB21007E
:104D1000C9B2DFF80403FEF7DAFB0421B0EE480A5B
:104D20000720FEF733FE3078072803DBDFF8EC02BC
:104D3000FEF7CDFB0421B0EE680A0720FEF726FE41
:104D40003078072803DBDFF8D802FEF7C0FB20002D
:104D5000C0B27843404490ED0E0A88EE800AB0EE6F
:104D6000409A2000C0B27843404490ED0E0A88EE8D
:104D7000000AF0EE409A2900C9B2B0EE490AF0EEFE
:104D8000690A2000C0B207FB00F708EB070005F036
:104D900052FB012801D1002002E04FF6FF70FFE72F
:104DA000BDEC048BBDE8F081F8B52DED028B04005D
:104DB000B0EE408A2000C0B20C2841DAB5EE408A3D
:104DC000F1EE10FA3CD0B025DFF830622000C0B21E
:104DD0006843304490F84000002823D1DFF8207267
:104DE0003878062805DB2100C9B2DFF83802FEF763
:104DF0006EFB0821B0EE480A0620FEF7C7FD3878A2
:104E0000062803DBDFF82002FEF761FBB0EE480A5C
:104E10002000C0B205FB00F506EB050005F0B2FB73
:104E200000201AE0DFF8D8010078022805DB210015
:104E3000C9B2DFF8F801FEF74AFB4FF6FF700CE04D
:104E4000DFF8BC010078022805DB2100C9B2DFF8D9
:104E5000E001FEF73CFB4FF6FE70BDEC028BF2BDAD
:104E600000000000F8B52DED028B06000C00B0EE3E
:104E7000408A1500B027DFF884C13000C0B2784303
:104E8000604490F84000002837D13000C0B20C28B0
:104E900027DAB5EE408AF1EE10FA22DD2000C0B22A
:104EA00002281EDA00232A00D2B2B0EE480A2100FE
:104EB000C9B23000C0B207FB00F70CEB070005F0E9
:104EC000A0FB012801D1002022E04D4800780228F3
:104ED00004DB3100C9B25748FEF7F9FA4FF6FF700C
:104EE00016E047480078022804DB3100C9B2524876
:104EF000FEF7EDFA4FF6FE700AE04148007802280E
:104F000004DB3100C9B24D48FEF7E1FA4FF6FF70FD
:104F1000BDEC028BF2BD000000007A4410B5040025
:104F20002000C0B20C2820DAB02034492200D2B2CE
:104F300042430A4492F84020012A0AD12200D2B208
:104F400000FB02F0084405F0E3FC012801D1002039
:104F500016E02B480078022804DB2100C9B238484B
:104F6000FEF7B5FA4FF6FF700AE0254800780228F0
:104F700004DB2100C9B23348FEF7A9FA4FF6FE70F0
:104F800010BD38B504001E4D2878022802DB2E48DB
:104F9000FEF79DFA2000C0B20C280ADA1749220059
:104FA000D2B2B020424301EB020005F0CBFD01205C
:104FB00008E02878022804DB2100C9B21148FEF776
:104FC00086FA002032BD10B504002000C0B20C28C3
:104FD00009DA0A492200D2B2B020424301EB0200B2
:104FE00005F0FEFA09E006480078022804DB2100FB
:104FF000C9B20448FEF76BFA012010BD30B400209E
:105000002F0000200C62030890670308FC5A030875
:1050100098640308145B0308B4500308A4640308ED
:10502000B0640308A85E0308BC640308F0320308F8
:1050300080310308643903083C350308EC36030863
:10504000DC3B03087C350308EC460308F8B518245C
:1050500000253D4E37002A002100380002F04EFBAB
:10506000300006F0CBF9F1BD0220704770B50400A6
:105070000125102C28D235480078042803DB2100B4
:105080003348FEF724FA00263000C0B2022819DAAD
:105090002C420AD001212C4A3300DBB20C204343BE
:1050A00002EB030006F0F1F909E00021264A330083
:1050B000DBB20C20434302EB030006F0E6F96D007F
:1050C000761CE1E7012008E020480078022803DB95
:1050D0000F212048FEF7FBF9002070BD70B50025B8
:1050E000012600242000C0B202280EDA1649220050
:1050F000D2B20C20424301EB020006F0D7F901289E
:1051000000D135437600641CECE7280070BD38B54B
:1051100004000125A800A04209D20C480078042808
:1051200003DB21000C48FEF7D2F900200AE00B480F
:10513000046006490978042903DB01680848FEF782
:10514000C6F9012032BD000074D400202F000020D9
:10515000EC6203083452030870580308C4D60020D8
:10516000485F030841EC100B01BD80B506F042FC1E
:10517000F8E73F004FF4001C1CEB410F94BF1CEB01
:10518000430F09E041EA030C50EA4C0C52EA0C0CC4
:1051900003D28B4208BF8242704714BF99429042AB
:1051A0007047680001F000428B1AA3F16051B1F51D
:1051B000801F0ADBB1F17F6F1FD242EAC102C1003A
:1051C00071F1004142EB507070470B15C3F10903B8
:1051D000212B10D2890241EA9051800201284941D5
:1051E00041F0004121FA03F0C3F12003994071F12D
:1051F000004150417047100070476FF0000013EB02
:10520000103F5CBF000E42EAC050704710B58AB034
:1052100004000121A06804F03DFB606800900220BA
:105220008DF8040002208DF8050000208DF806009E
:1052300001208DF807006946206804F0CDFE627BEE
:10524000217B89B2206804F054FF01216069226942
:1052500090470020ADF81000E0690390208BADF876
:1052600008000020ADF80A0002A9606A04F070FB93
:10527000608DADF81400208DADF820000120ADF850
:10528000160000200790208C012806D028D3032880
:1052900015D00BD304281BD022E005A9606A04F0C6
:1052A000B0FB0821606A04F0BBFC19E005A9606A44
:1052B00004F0E4FB0821606A04F0BCFC10E005A9DE
:1052C000606A04F01FFC0821606A04F0BEFC07E07D
:1052D00005A9606A04F059FC0821606A04F0BFFC6B
:1052E0000122218C606A04F0C5FC208C012806D0C4
:1052F00018D303280DD007D304280FD012E0A18DB6
:10530000606A04F085FC0DE0A18D606A04F082FC07
:1053100008E0A18D606A04F07FFC03E0A18D606A63
:1053200004F07CFC0AB010BD2DE9F0478CB0DFF82A
:10533000B884CDF800804020019006208DF80C0044
:1053400002208DF80D00DFF8A44404940420059099
:105350000820ADF8180041F28739CDF81C900120E3
:10536000ADF82000DFF8885409950220ADF8280038
:105370006020ADF82A0040F6C3163000ADF82C00CE
:105380006846FFF743FFCDF800808020019007209A
:105390008DF80C0002208DF80D0004940420059077
:1053A0000820ADF81800CDF81C900220ADF82000C0
:1053B00009950220ADF828006020ADF82A003000E1
:1053C000ADF82C006846FFF721FFCDF800802020C3
:1053D000019005208DF80C0002208DF80D0004943A
:1053E000022005900820ADF81800CDF81C9002208E
:1053F000ADF82000DFF8FC7309970220ADF8280013
:105400007020ADF82A003000ADF82C006846FFF798
:10541000FDFECDF800800120019000208DF80C00E9
:1054200002208DF80D000494022005900820ADF8AC
:105430001800CDF81C900320ADF820000997022039
:10544000ADF828007020ADF82A003000ADF82C002F
:105450006846FFF7DBFEDFF8A083CDF8008002206E
:10546000019001208DF80C0001208DF80D000494AE
:10547000012005900820ADF8180007960220ADF82D
:1054800020005FF08049CDF824900220ADF828007C
:105490007020ADF82A0040F2833AADF82CA068469F
:1054A000FFF7B4FECDF800800420019002208DF8B3
:1054B0000C0001208DF80D000494012005900820B7
:1054C000ADF8180007960320ADF82000CDF8249021
:1054D0000220ADF828007020ADF82A00ADF82CA00D
:1054E0006846FFF793FECDF8008008200190032066
:1054F0008DF80C0001208DF80D000494012005901A
:105500000820ADF8180007960420ADF82000CDF86B
:1055100024900220ADF828006020ADF82A00ADF8F4
:105520002CA06846FFF772FECDF800802020019085
:1055300005208DF80C0001208DF80D000494012049
:1055400005900820ADF8180007960120ADF820005E
:10555000CDF824900220ADF828006020ADF82A0094
:1055600040F27750ADF82C006846FFF74FFE01215E
:105570005FF0804004F036FA0F20FEF7F1F90121C8
:10558000380004F02FFA0121280004F02BFA0CB0A7
:10559000BDE8F0873EB50121012004F07BF901212F
:1055A000082004F077F90121082004F073F90121A3
:1055B000082004F06FF90121082004F06BF90121A3
:1055C000082004F067F90121042004F063F90121A7
:1055D000042004F05FF90121082004F05BF90820A1
:1055E000009001208DF8040000208DF806000220B4
:1055F0008DF8070002208DF805007F4C69462000D9
:1056000004F0EAFC0821200004F067FD022000906D
:105610007A4C6946200004F0DFFC0221200004F0EF
:105620005EFD042000906946200004F0D5FC0421B2
:10563000200004F052FD082000906946200004F08C
:10564000CBFC0821200004F04AFD40200090694670
:10565000200004F0C1FC4021200004F03EFD802029
:1056600000906946200004F0B7FC8021200004F07F
:1056700036FD4FF400600090614D6946280004F04B
:10568000ABFC4FF40061280004F029FD4FF480507A
:1056900000906946280004F09FFC4FF480512800D8
:1056A00004F01DFD4FF4004000906946200004F016
:1056B00093FC4FF40041200004F00FFDFFF734FE8F
:1056C00037BD1CB504004F480078042813DB2000C8
:1056D000C0B210F0080000902300DBB213F0040306
:1056E0002200D2B212F002022100C9B211F001016F
:1056F0004548FDF7ECFEE00704D502213F4804F0E1
:10570000ECFC03E002213D4804F0E9FCA00704D5CD
:1057100004213A4804F0E1FC03E00421374804F096
:10572000DEFC600704D50821344804F0D6FC03E011
:105730000821324804F0D3FC200704D508212E4864
:1057400004F0CBFC03E008212B4804F0C8FC13BD97
:105750001CB504002B480078042813DB2000C0B2DD
:1057600010F0080000902300DBB213F004032200C5
:10577000D2B212F002022100C9B211F00101234895
:10578000FDF7A5FEE00704D540211C4804F0A5FC68
:1057900003E04021194804F0A2FCA00704D58021B1
:1057A000164804F09AFC03E08021144804F097FCAA
:1057B000600705D54FF40061114804F08EFC04E049
:1057C0004FF400610E4804F08AFC200705D54FF421
:1057D00080510B4804F081FC04E04FF480510848EC
:1057E00004F07DFC13BD000000040240B5980208DF
:1057F000000800400004004000000240000C02408D
:10580000000802402F000020344E0308F040030837
:1058100030B585B000242000C0B202280EDA210085
:10582000C9B2DFF854242300DBB24FF4887043433D
:1058300002EB030006F07BF9641CECE7DFF83C4464
:10584000DFF8345494EC030A280006F0FDF8002138
:10585000280006F06EF900208DF8100004AA01213E
:10586000280006F068F915F5887594EC030A2800FD
:1058700006F0EAF80121280006F05BF901208DF816
:10588000100004AA0121280006F06DF904AA0021E5
:10589000280006F050F9002003900020029000201C
:1058A00001900420009000234FF48072DFF8D013A1
:1058B0000FF29920FCF766FA002003900020029076
:1058C000DFF8C00301900320009000234FF48072A2
:1058D000DFF8B4130FF2B120FCF754FA05B030BD75
:1058E00010B504002000C0B2002805D0022811D055
:1058F00009D3032815D01BE0DFF89013DFF89003DD
:1059000001F042F81AE0DFF88C13DFF8840301F0AD
:105910003BF813E0DFF88013DFF8740301F034F88C
:105920000CE0DFF87813DFF8680301F02DF805E0EC
:10593000DFF86C13DFF8580301F026F8DFF85003A6
:1059400010BD10B500242000C0B202280FDA2000DC
:10595000C0B200F00DF8012807D12000C0B200F05D
:105960009BF82000C0B200F0C0F8641CEBE710BD4B
:1059700038B504002000C0B202280CDADFF8F812B3
:105980002200D2B24FF48870424301EB020006F0CD
:10599000F5F905000AE0DFF80C030078022805DBC2
:1059A0002100C9B2DFF80003FDF791FD2800C0B265
:1059B00032BDF8B52DED048B04000D00B0EE408A29
:1059C000F0EE608AB0EE419A7FF001062000C0B28E
:1059D000022852DADFF8CC723878042808DB20007D
:1059E000C0B2FFF77DFF0100DFF8C002FDF76FFDD9
:1059F0003878042805DB2900C9B2DFF8B402FDF7C6
:105A000066FD3878042803DBDFF8A802FDF75FFDA8
:105A10000221B0EE480A0420FDF7B8FF38780428C8
:105A200003DBDFF89402FDF752FD0221B0EE680AB5
:105A30000420FDF7ABFF3878042803DBDFF87C0295
:105A4000FDF745FD0221B0EE490A0420FDF79EFF57
:105A5000B0EE491AF0EE680AB0EE480A2900C9B261
:105A6000DFF814222300DBB24FF48870434302EBCB
:105A7000030006F0E3F906000AE0DFF828020078E8
:105A8000022805DB2100C9B2DFF83402FDF71FFD53
:105A90003000BDEC048BF2BD10B504002000C0B294
:105AA000022816DADFF8D0112200D2B24FF4887043
:105AB000424301EB020006F0F3FADFF8E801007858
:105AC000042811DB2100C9B2DFF8F801FDF7FFFC63
:105AD0000AE0DFF8D0010078022805DB2100C9B216
